{
  "abi": [
    {
      "constant": true,
      "inputs": [],
      "name": "name",
      "outputs": [
        {
          "name": "",
          "type": "string"
        }
      ],
      "payable": false,
      "stateMutability": "view",
      "type": "function"
    },
    {
      "constant": false,
      "inputs": [
        {
          "name": "_upgradedAddress",
          "type": "address"
        }
      ],
      "name": "deprecate",
      "outputs": [],
      "payable": false,
      "stateMutability": "nonpayable",
      "type": "function"
    },
    {
      "constant": false,
      "inputs": [
        {
          "name": "_spender",
          "type": "address"
        },
        {
          "name": "_value",
          "type": "uint256"
        }
      ],
      "name": "approve",
      "outputs": [],
      "payable": false,
      "stateMutability": "nonpayable",
      "type": "function"
    },
    {
      "constant": true,
      "inputs": [],
      "name": "deprecated",
      "outputs": [
        {
          "name": "",
          "type": "bool"
        }
      ],
      "payable": false,
      "stateMutability": "view",
      "type": "function"
    },
    {
      "constant": false,
      "inputs": [
        {
          "name": "_evilUser",
          "type": "address"
        }
      ],
      "name": "addBlackList",
      "outputs": [],
      "payable": false,
      "stateMutability": "nonpayable",
      "type": "function"
    },
    {
      "constant": true,
      "inputs": [],
      "name": "totalSupply",
      "outputs": [
        {
          "name": "",
          "type": "uint256"
        }
      ],
      "payable": false,
      "stateMutability": "view",
      "type": "function"
    },
    {
      "constant": false,
      "inputs": [
        {
          "name": "_from",
          "type": "address"
        },
        {
          "name": "_to",
          "type": "address"
        },
        {
          "name": "_value",
          "type": "uint256"
        }
      ],
      "name": "transferFrom",
      "outputs": [],
      "payable": false,
      "stateMutability": "nonpayable",
      "type": "function"
    },
    {
      "constant": true,
      "inputs": [],
      "name": "upgradedAddress",
      "outputs": [
        {
          "name": "",
          "type": "address"
        }
      ],
      "payable": false,
      "stateMutability": "view",
      "type": "function"
    },
    {
      "constant": true,
      "inputs": [
        {
          "name": "",
          "type": "address"
        }
      ],
      "name": "balances",
      "outputs": [
        {
          "name": "",
          "type": "uint256"
        }
      ],
      "payable": false,
      "stateMutability": "view",
      "type": "function"
    },
    {
      "constant": true,
      "inputs": [],
      "name": "decimals",
      "outputs": [
        {
          "name": "",
          "type": "uint256"
        }
      ],
      "payable": false,
      "stateMutability": "view",
      "type": "function"
    },
    {
      "constant": true,
      "inputs": [],
      "name": "maximumFee",
      "outputs": [
        {
          "name": "",
          "type": "uint256"
        }
      ],
      "payable": false,
      "stateMutability": "view",
      "type": "function"
    },
    {
      "constant": true,
      "inputs": [],
      "name": "_totalSupply",
      "outputs": [
        {
          "name": "",
          "type": "uint256"
        }
      ],
      "payable": false,
      "stateMutability": "view",
      "type": "function"
    },
    {
      "constant": false,
      "inputs": [],
      "name": "unpause",
      "outputs": [],
      "payable": false,
      "stateMutability": "nonpayable",
      "type": "function"
    },
    {
      "constant": true,
      "inputs": [
        {
          "name": "_maker",
          "type": "address"
        }
      ],
      "name": "getBlackListStatus",
      "outputs": [
        {
          "name": "",
          "type": "bool"
        }
      ],
      "payable": false,
      "stateMutability": "view",
      "type": "function"
    },
    {
      "constant": true,
      "inputs": [
        {
          "name": "",
          "type": "address"
        },
        {
          "name": "",
          "type": "address"
        }
      ],
      "name": "allowed",
      "outputs": [
        {
          "name": "",
          "type": "uint256"
        }
      ],
      "payable": false,
      "stateMutability": "view",
      "type": "function"
    },
    {
      "constant": true,
      "inputs": [],
      "name": "paused",
      "outputs": [
        {
          "name": "",
          "type": "bool"
        }
      ],
      "payable": false,
      "stateMutability": "view",
      "type": "function"
    },
    {
      "constant": true,
      "inputs": [
        {
          "name": "who",
          "type": "address"
        }
      ],
      "name": "balanceOf",
      "outputs": [
        {
          "name": "",
          "type": "uint256"
        }
      ],
      "payable": false,
      "stateMutability": "view",
      "type": "function"
    },
    {
      "constant": false,
      "inputs": [],
      "name": "pause",
      "outputs": [],
      "payable": false,
      "stateMutability": "nonpayable",
      "type": "function"
    },
    {
      "constant": true,
      "inputs": [],
      "name": "getOwner",
      "outputs": [
        {
          "name": "",
          "type": "address"
        }
      ],
      "payable": false,
      "stateMutability": "view",
      "type": "function"
    },
    {
      "constant": true,
      "inputs": [],
      "name": "owner",
      "outputs": [
        {
          "name": "",
          "type": "address"
        }
      ],
      "payable": false,
      "stateMutability": "view",
      "type": "function"
    },
    {
      "constant": true,
      "inputs": [],
      "name": "symbol",
      "outputs": [
        {
          "name": "",
          "type": "string"
        }
      ],
      "payable": false,
      "stateMutability": "view",
      "type": "function"
    },
    {
      "constant": false,
      "inputs": [
        {
          "name": "_to",
          "type": "address"
        },
        {
          "name": "_value",
          "type": "uint256"
        }
      ],
      "name": "transfer",
      "outputs": [],
      "payable": false,
      "stateMutability": "nonpayable",
      "type": "function"
    },
    {
      "constant": false,
      "inputs": [
        {
          "name": "newBasisPoints",
          "type": "uint256"
        },
        {
          "name": "newMaxFee",
          "type": "uint256"
        }
      ],
      "name": "setParams",
      "outputs": [],
      "payable": false,
      "stateMutability": "nonpayable",
      "type": "function"
    },
    {
      "constant": false,
      "inputs": [
        {
          "name": "amount",
          "type": "uint256"
        }
      ],
      "name": "issue",
      "outputs": [],
      "payable": false,
      "stateMutability": "nonpayable",
      "type": "function"
    },
    {
      "constant": false,
      "inputs": [
        {
          "name": "amount",
          "type": "uint256"
        }
      ],
      "name": "redeem",
      "outputs": [],
      "payable": false,
      "stateMutability": "nonpayable",
      "type": "function"
    },
    {
      "constant": true,
      "inputs": [
        {
          "name": "_owner",
          "type": "address"
        },
        {
          "name": "_spender",
          "type": "address"
        }
      ],
      "name": "allowance",
      "outputs": [
        {
          "name": "remaining",
          "type": "uint256"
        }
      ],
      "payable": false,
      "stateMutability": "view",
      "type": "function"
    },
    {
      "constant": true,
      "inputs": [],
      "name": "basisPointsRate",
      "outputs": [
        {
          "name": "",
          "type": "uint256"
        }
      ],
      "payable": false,
      "stateMutability": "view",
      "type": "function"
    },
    {
      "constant": true,
      "inputs": [
        {
          "name": "",
          "type": "address"
        }
      ],
      "name": "isBlackListed",
      "outputs": [
        {
          "name": "",
          "type": "bool"
        }
      ],
      "payable": false,
      "stateMutability": "view",
      "type": "function"
    },
    {
      "constant": false,
      "inputs": [
        {
          "name": "_clearedUser",
          "type": "address"
        }
      ],
      "name": "removeBlackList",
      "outputs": [],
      "payable": false,
      "stateMutability": "nonpayable",
      "type": "function"
    },
    {
      "constant": true,
      "inputs": [],
      "name": "MAX_UINT",
      "outputs": [
        {
          "name": "",
          "type": "uint256"
        }
      ],
      "payable": false,
      "stateMutability": "view",
      "type": "function"
    },
    {
      "constant": false,
      "inputs": [
        {
          "name": "newOwner",
          "type": "address"
        }
      ],
      "name": "transferOwnership",
      "outputs": [],
      "payable": false,
      "stateMutability": "nonpayable",
      "type": "function"
    },
    {
      "constant": false,
      "inputs": [
        {
          "name": "_blackListedUser",
          "type": "address"
        }
      ],
      "name": "destroyBlackFunds",
      "outputs": [],
      "payable": false,
      "stateMutability": "nonpayable",
      "type": "function"
    },
    {
      "inputs": [
        {
          "name": "_initialSupply",
          "type": "uint256"
        },
        {
          "name": "_name",
          "type": "string"
        },
        {
          "name": "_symbol",
          "type": "string"
        },
        {
          "name": "_decimals",
          "type": "uint256"
        }
      ],
      "payable": false,
      "stateMutability": "nonpayable",
      "type": "constructor"
    },
    {
      "anonymous": false,
      "inputs": [
        {
          "indexed": false,
          "name": "amount",
          "type": "uint256"
        }
      ],
      "name": "Issue",
      "type": "event"
    },
    {
      "anonymous": false,
      "inputs": [
        {
          "indexed": false,
          "name": "amount",
          "type": "uint256"
        }
      ],
      "name": "Redeem",
      "type": "event"
    },
    {
      "anonymous": false,
      "inputs": [
        {
          "indexed": false,
          "name": "newAddress",
          "type": "address"
        }
      ],
      "name": "Deprecate",
      "type": "event"
    },
    {
      "anonymous": false,
      "inputs": [
        {
          "indexed": false,
          "name": "feeBasisPoints",
          "type": "uint256"
        },
        {
          "indexed": false,
          "name": "maxFee",
          "type": "uint256"
        }
      ],
      "name": "Params",
      "type": "event"
    },
    {
      "anonymous": false,
      "inputs": [
        {
          "indexed": false,
          "name": "_blackListedUser",
          "type": "address"
        },
        {
          "indexed": false,
          "name": "_balance",
          "type": "uint256"
        }
      ],
      "name": "DestroyedBlackFunds",
      "type": "event"
    },
    {
      "anonymous": false,
      "inputs": [
        {
          "indexed": false,
          "name": "_user",
          "type": "address"
        }
      ],
      "name": "AddedBlackList",
      "type": "event"
    },
    {
      "anonymous": false,
      "inputs": [
        {
          "indexed": false,
          "name": "_user",
          "type": "address"
        }
      ],
      "name": "RemovedBlackList",
      "type": "event"
    },
    {
      "anonymous": false,
      "inputs": [
        {
          "indexed": true,
          "name": "owner",
          "type": "address"
        },
        {
          "indexed": true,
          "name": "spender",
          "type": "address"
        },
        {
          "indexed": false,
          "name": "value",
          "type": "uint256"
        }
      ],
      "name": "Approval",
      "type": "event"
    },
    {
      "anonymous": false,
      "inputs": [
        {
          "indexed": true,
          "name": "from",
          "type": "address"
        },
        {
          "indexed": true,
          "name": "to",
          "type": "address"
        },
        {
          "indexed": false,
          "name": "value",
          "type": "uint256"
        }
      ],
      "name": "Transfer",
      "type": "event"
    },
    {
      "anonymous": false,
      "inputs": [],
      "name": "Pause",
      "type": "event"
    },
    {
      "anonymous": false,
      "inputs": [],
      "name": "Unpause",
      "type": "event"
    }
  ],
  "devdoc": {
    "methods": {
      "pause()": {
        "details": "called by the owner to pause, triggers stopped state"
      },
      "transferOwnership(address)": {
        "details": "Allows the current owner to transfer control of the contract to a newOwner.",
        "params": {
          "newOwner": "The address to transfer ownership to."
        }
      },
      "unpause()": {
        "details": "called by the owner to unpause, returns to normal state"
      }
    }
  },
  "evm": {
    "assembly": "    /* \"contracts/USDT.sol\":9724:14505  contract TetherToken is Pausable, StandardToken, BlackList {... */\n  mstore(0x40, 0x60)\n    /* \"contracts/USDT.sol\":7405:7410  false */\n  0x0\n    /* \"contracts/USDT.sol\":7384:7410  bool public paused = false */\n  dup1\n  sload\n  not(mul(0xff, exp(0x2, 0xa0)))\n  and\n  dup2\n  sstore\n    /* \"contracts/USDT.sol\":3041:3072  uint public basisPointsRate = 0 */\n  0x3\n  dup2\n  swap1\n  sstore\n    /* \"contracts/USDT.sol\":3078:3104  uint public maximumFee = 0 */\n  0x4\n  sstore\n    /* \"contracts/USDT.sol\":10219:10508  function TetherToken(uint _initialSupply, string _name, string _symbol, uint _decimals) public {... */\n  jumpi(tag_1, iszero(callvalue))\n  0x0\n  dup1\n  revert\ntag_1:\n  mload(0x40)\n  sub(codesize, bytecodeSize)\n  dup1\n  bytecodeSize\n  dup4\n  codecopy\n  dup2\n  add\n  0x40\n  mstore\n  dup1\n  dup1\n  mload\n  swap2\n  swap1\n  0x20\n  add\n  dup1\n  mload\n  dup3\n  add\n  swap2\n  swap1\n  0x20\n  add\n  dup1\n  mload\n  dup3\n  add\n  swap2\n  swap1\n  0x20\n  add\n  dup1\n  mload\n    /* \"contracts/USDT.sol\":1378:1383  owner */\n  0x0\n    /* \"contracts/USDT.sol\":1378:1396  owner = msg.sender */\n  dup1\n  sload\n  not(sub(exp(0x2, 0xa0), 0x1))\n  and\n    /* \"contracts/USDT.sol\":1386:1396  msg.sender */\n  caller\n  sub(exp(0x2, 0xa0), 0x1)\n    /* \"contracts/USDT.sol\":1378:1396  owner = msg.sender */\n  and\n  or\n  swap1\n  sstore\n  0x1\n    /* \"contracts/USDT.sol\":10324:10353  _totalSupply = _initialSupply */\n  dup7\n  swap1\n  sstore\n    /* \"contracts/USDT.sol\":10219:10508  function TetherToken(uint _initialSupply, string _name, string _symbol, uint _decimals) public {... */\n  swap2\n  pop\n    /* \"contracts/USDT.sol\":10363:10367  name */\n  0x7\n  swap1\n  pop\n    /* \"contracts/USDT.sol\":10370:10375  _name */\n  dup4\n  dup1\n    /* \"contracts/USDT.sol\":10363:10375  name = _name */\n  mload\n  tag_6\n  swap3\n  swap2\n  0x20\n  add\n  swap1\n  jump\t// in(tag_7)\ntag_6:\n  pop\n    /* \"contracts/USDT.sol\":10385:10391  symbol */\n  0x8\n    /* \"contracts/USDT.sol\":10394:10401  _symbol */\n  dup3\n  dup1\n    /* \"contracts/USDT.sol\":10385:10401  symbol = _symbol */\n  mload\n  tag_8\n  swap3\n  swap2\n  0x20\n  add\n  swap1\n  jump\t// in(tag_7)\ntag_8:\n  pop\n    /* \"contracts/USDT.sol\":10411:10419  decimals */\n  0x9\n    /* \"contracts/USDT.sol\":10411:10431  decimals = _decimals */\n  sstore\n  pop\n  pop\n    /* \"contracts/USDT.sol\":10441:10456  balances[owner] */\n  0x0\n    /* \"contracts/USDT.sol\":10450:10455  owner */\n  dup1\n  sload\n  sub(exp(0x2, 0xa0), 0x1)\n  and\n    /* \"contracts/USDT.sol\":10441:10456  balances[owner] */\n  dup2\n  mstore\n    /* \"contracts/USDT.sol\":10441:10449  balances */\n  0x2\n    /* \"contracts/USDT.sol\":10441:10456  balances[owner] */\n  0x20\n  mstore\n  0x40\n  swap1\n  keccak256\n    /* \"contracts/USDT.sol\":10441:10473  balances[owner] = _initialSupply */\n  sstore\n    /* \"contracts/USDT.sol\":10483:10493  deprecated */\n  0xa\n    /* \"contracts/USDT.sol\":10483:10501  deprecated = false */\n  dup1\n  sload\n  not(mul(0xff, exp(0x2, 0xa0)))\n  and\n  swap1\n  sstore\n    /* \"contracts/USDT.sol\":9724:14505  contract TetherToken is Pausable, StandardToken, BlackList {... */\n  jump(tag_9)\ntag_7:\n  dup3\n  dup1\n  sload\n  0x1\n  dup2\n  0x1\n  and\n  iszero\n  0x100\n  mul\n  sub\n  and\n  0x2\n  swap1\n  div\n  swap1\n  0x0\n  mstore\n  keccak256(0x0, 0x20)\n  swap1\n  0x1f\n  add\n  0x20\n  swap1\n  div\n  dup2\n  add\n  swap3\n  dup3\n  0x1f\n  lt\n  tag_11\n  jumpi\n  dup1\n  mload\n  not(0xff)\n  and\n  dup4\n  dup1\n  add\n  or\n  dup6\n  sstore\n  jump(tag_13)\ntag_11:\n  dup3\n  dup1\n  add\n  0x1\n  add\n  dup6\n  sstore\n  dup3\n  iszero\n  tag_13\n  jumpi\n  swap2\n  dup3\n  add\ntag_12:\n  dup3\n  dup2\n  gt\n  iszero\n  tag_13\n  jumpi\n  dup3\n  mload\n  dup3\n  sstore\n  swap2\n  0x20\n  add\n  swap2\n  swap1\n  0x1\n  add\n  swap1\n  jump(tag_12)\ntag_13:\n  pop\n  tag_14\n  swap3\n  swap2\n  pop\n  jump\t// in(tag_15)\ntag_14:\n  pop\n  swap1\n  jump\t// out\ntag_15:\n  tag_16\n  swap2\n  swap1\ntag_17:\n  dup1\n  dup3\n  gt\n  iszero\n  tag_14\n  jumpi\n  0x0\n  dup2\n  sstore\n  0x1\n  add\n  jump(tag_17)\ntag_16:\n  swap1\n  jump\t// out\ntag_9:\n  dataSize(sub_0)\n  dup1\n  dataOffset(sub_0)\n  0x0\n  codecopy\n  0x0\n  return\nstop\n\nsub_0: assembly {\n        /* \"contracts/USDT.sol\":9724:14505  contract TetherToken is Pausable, StandardToken, BlackList {... */\n      mstore(0x40, 0x60)\n      jumpi(tag_1, lt(calldatasize, 0x4))\n      and(div(calldataload(0x0), exp(0x2, 0xe0)), 0xffffffff)\n      0x6fdde03\n      dup2\n      eq\n      tag_2\n      jumpi\n      dup1\n      0x753c30c\n      eq\n      tag_3\n      jumpi\n      dup1\n      0x95ea7b3\n      eq\n      tag_4\n      jumpi\n      dup1\n      0xe136b19\n      eq\n      tag_5\n      jumpi\n      dup1\n      0xecb93c0\n      eq\n      tag_6\n      jumpi\n      dup1\n      0x18160ddd\n      eq\n      tag_7\n      jumpi\n      dup1\n      0x23b872dd\n      eq\n      tag_8\n      jumpi\n      dup1\n      0x26976e3f\n      eq\n      tag_9\n      jumpi\n      dup1\n      0x27e235e3\n      eq\n      tag_10\n      jumpi\n      dup1\n      0x313ce567\n      eq\n      tag_11\n      jumpi\n      dup1\n      0x35390714\n      eq\n      tag_12\n      jumpi\n      dup1\n      0x3eaaf86b\n      eq\n      tag_13\n      jumpi\n      dup1\n      0x3f4ba83a\n      eq\n      tag_14\n      jumpi\n      dup1\n      0x59bf1abe\n      eq\n      tag_15\n      jumpi\n      dup1\n      0x5c658165\n      eq\n      tag_16\n      jumpi\n      dup1\n      0x5c975abb\n      eq\n      tag_17\n      jumpi\n      dup1\n      0x70a08231\n      eq\n      tag_18\n      jumpi\n      dup1\n      0x8456cb59\n      eq\n      tag_19\n      jumpi\n      dup1\n      0x893d20e8\n      eq\n      tag_20\n      jumpi\n      dup1\n      0x8da5cb5b\n      eq\n      tag_21\n      jumpi\n      dup1\n      0x95d89b41\n      eq\n      tag_22\n      jumpi\n      dup1\n      0xa9059cbb\n      eq\n      tag_23\n      jumpi\n      dup1\n      0xc0324c77\n      eq\n      tag_24\n      jumpi\n      dup1\n      0xcc872b66\n      eq\n      tag_25\n      jumpi\n      dup1\n      0xdb006a75\n      eq\n      tag_26\n      jumpi\n      dup1\n      0xdd62ed3e\n      eq\n      tag_27\n      jumpi\n      dup1\n      0xdd644f72\n      eq\n      tag_28\n      jumpi\n      dup1\n      0xe47d6060\n      eq\n      tag_29\n      jumpi\n      dup1\n      0xe4997dc5\n      eq\n      tag_30\n      jumpi\n      dup1\n      0xe5b5019a\n      eq\n      tag_31\n      jumpi\n      dup1\n      0xf2fde38b\n      eq\n      tag_32\n      jumpi\n      dup1\n      0xf3bdc228\n      eq\n      tag_33\n      jumpi\n    tag_1:\n      0x0\n      dup1\n      revert\n        /* \"contracts/USDT.sol\":9790:9808  string public name */\n    tag_2:\n      jumpi(tag_34, iszero(callvalue))\n      0x0\n      dup1\n      revert\n    tag_34:\n      tag_35\n      jump(tag_36)\n    tag_35:\n      mload(0x40)\n      0x20\n      dup1\n      dup3\n      mstore\n      dup2\n      swap1\n      dup2\n      add\n      dup4\n      dup2\n      dup2\n      mload\n      dup2\n      mstore\n      0x20\n      add\n      swap2\n      pop\n      dup1\n      mload\n      swap1\n      0x20\n      add\n      swap1\n      dup1\n      dup4\n      dup4\n        /* \"--CODEGEN--\":23:24   */\n      0x0\n        /* \"--CODEGEN--\":8:108   */\n    tag_37:\n        /* \"--CODEGEN--\":33:36   */\n      dup4\n        /* \"--CODEGEN--\":30:31   */\n      dup2\n        /* \"--CODEGEN--\":27:29   */\n      lt\n        /* \"--CODEGEN--\":8:108   */\n      iszero\n      tag_38\n      jumpi\n        /* \"--CODEGEN--\":99:100   */\n      dup1\n        /* \"--CODEGEN--\":94:97   */\n      dup3\n        /* \"--CODEGEN--\":90:93   */\n      add\n        /* \"--CODEGEN--\":84:89   */\n      mload\n        /* \"--CODEGEN--\":71:74   */\n      dup4\n      dup3\n      add\n        /* \"--CODEGEN--\":64:70   */\n      mstore\n        /* \"--CODEGEN--\":52:54   */\n      0x20\n        /* \"--CODEGEN--\":45:48   */\n      add\n        /* \"--CODEGEN--\":8:108   */\n      jump(tag_37)\n    tag_38:\n        /* \"--CODEGEN--\":12:26   */\n      pop\n        /* \"--CODEGEN--\":3:112   */\n      pop\n      pop\n      pop\n      swap1\n      pop\n      swap1\n      dup2\n      add\n      swap1\n      0x1f\n      and\n      dup1\n      iszero\n      tag_40\n      jumpi\n      dup1\n      dup3\n      sub\n      dup1\n      mload\n      0x1\n      dup4\n      0x20\n      sub\n      0x100\n      exp\n      sub\n      not\n      and\n      dup2\n      mstore\n      0x20\n      add\n      swap2\n      pop\n    tag_40:\n      pop\n      swap3\n      pop\n      pop\n      pop\n      mload(0x40)\n      dup1\n      swap2\n      sub\n      swap1\n      return\n        /* \"contracts/USDT.sol\":12476:12653  function deprecate(address _upgradedAddress) public onlyOwner {... */\n    tag_3:\n      jumpi(tag_41, iszero(callvalue))\n      0x0\n      dup1\n      revert\n    tag_41:\n      tag_42\n      and(calldataload(0x4), sub(exp(0x2, 0xa0), 0x1))\n      jump(tag_43)\n    tag_42:\n      stop\n        /* \"contracts/USDT.sol\":11748:12044  function approve(address _spender, uint _value) public onlyPayloadSize(2 * 32) {... */\n    tag_4:\n      jumpi(tag_44, iszero(callvalue))\n      0x0\n      dup1\n      revert\n    tag_44:\n      tag_42\n      and(calldataload(0x4), sub(exp(0x2, 0xa0), 0x1))\n      calldataload(0x24)\n      jump(tag_46)\n        /* \"contracts/USDT.sol\":9902:9924  bool public deprecated */\n    tag_5:\n      jumpi(tag_47, iszero(callvalue))\n      0x0\n      dup1\n      revert\n    tag_47:\n      tag_48\n      jump(tag_49)\n    tag_48:\n      mload(0x40)\n      swap1\n      iszero\n      iszero\n      dup2\n      mstore\n      0x20\n      add\n      mload(0x40)\n      dup1\n      swap2\n      sub\n      swap1\n      return\n        /* \"contracts/USDT.sol\":8501:8643  function addBlackList (address _evilUser) public onlyOwner {... */\n    tag_6:\n      jumpi(tag_50, iszero(callvalue))\n      0x0\n      dup1\n      revert\n    tag_50:\n      tag_42\n      and(calldataload(0x4), sub(exp(0x2, 0xa0), 0x1))\n      jump(tag_52)\n        /* \"contracts/USDT.sol\":12716:12928  function totalSupply() public constant returns (uint) {... */\n    tag_7:\n      jumpi(tag_53, iszero(callvalue))\n      0x0\n      dup1\n      revert\n    tag_53:\n      tag_54\n      jump(tag_55)\n    tag_54:\n      mload(0x40)\n      swap1\n      dup2\n      mstore\n      0x20\n      add\n      mload(0x40)\n      dup1\n      swap2\n      sub\n      swap1\n      return\n        /* \"contracts/USDT.sol\":10991:11346  function transferFrom(address _from, address _to, uint _value) public whenNotPaused {... */\n    tag_8:\n      jumpi(tag_56, iszero(callvalue))\n      0x0\n      dup1\n      revert\n    tag_56:\n      tag_42\n      sub(exp(0x2, 0xa0), 0x1)\n      calldataload(0x4)\n      dup2\n      and\n      swap1\n      calldataload(0x24)\n      and\n      calldataload(0x44)\n      jump(tag_58)\n        /* \"contracts/USDT.sol\":9866:9896  address public upgradedAddress */\n    tag_9:\n      jumpi(tag_59, iszero(callvalue))\n      0x0\n      dup1\n      revert\n    tag_59:\n      tag_60\n      jump(tag_61)\n    tag_60:\n      mload(0x40)\n      sub(exp(0x2, 0xa0), 0x1)\n      swap1\n      swap2\n      and\n      dup2\n      mstore\n      0x20\n      add\n      mload(0x40)\n      dup1\n      swap2\n      sub\n      swap1\n      return\n        /* \"contracts/USDT.sol\":2916:2956  mapping(address => uint) public balances */\n    tag_10:\n      jumpi(tag_62, iszero(callvalue))\n      0x0\n      dup1\n      revert\n    tag_62:\n      tag_54\n      and(calldataload(0x4), sub(exp(0x2, 0xa0), 0x1))\n      jump(tag_64)\n        /* \"contracts/USDT.sol\":9840:9860  uint public decimals */\n    tag_11:\n      jumpi(tag_65, iszero(callvalue))\n      0x0\n      dup1\n      revert\n    tag_65:\n      tag_54\n      jump(tag_67)\n        /* \"contracts/USDT.sol\":3078:3104  uint public maximumFee = 0 */\n    tag_12:\n      jumpi(tag_68, iszero(callvalue))\n      0x0\n      dup1\n      revert\n    tag_68:\n      tag_54\n      jump(tag_70)\n        /* \"contracts/USDT.sol\":2043:2067  uint public _totalSupply */\n    tag_13:\n      jumpi(tag_71, iszero(callvalue))\n      0x0\n      dup1\n      revert\n    tag_71:\n      tag_54\n      jump(tag_73)\n        /* \"contracts/USDT.sol\":7970:8057  function unpause() onlyOwner whenPaused public {... */\n    tag_14:\n      jumpi(tag_74, iszero(callvalue))\n      0x0\n      dup1\n      revert\n    tag_74:\n      tag_42\n      jump(tag_76)\n        /* \"contracts/USDT.sol\":8229:8351  function getBlackListStatus(address _maker) external constant returns (bool) {... */\n    tag_15:\n      jumpi(tag_77, iszero(callvalue))\n      0x0\n      dup1\n      revert\n    tag_77:\n      tag_48\n      and(calldataload(0x4), sub(exp(0x2, 0xa0), 0x1))\n      jump(tag_79)\n        /* \"contracts/USDT.sol\":4652:4713  mapping (address => mapping (address => uint)) public allowed */\n    tag_16:\n      jumpi(tag_80, iszero(callvalue))\n      0x0\n      dup1\n      revert\n    tag_80:\n      tag_54\n      sub(exp(0x2, 0xa0), 0x1)\n      calldataload(0x4)\n      dup2\n      and\n      swap1\n      calldataload(0x24)\n      and\n      jump(tag_82)\n        /* \"contracts/USDT.sol\":7384:7410  bool public paused = false */\n    tag_17:\n      jumpi(tag_83, iszero(callvalue))\n      0x0\n      dup1\n      revert\n    tag_83:\n      tag_48\n      jump(tag_85)\n        /* \"contracts/USDT.sol\":11428:11666  function balanceOf(address who) public constant returns (uint) {... */\n    tag_18:\n      jumpi(tag_86, iszero(callvalue))\n      0x0\n      dup1\n      revert\n    tag_86:\n      tag_54\n      and(calldataload(0x4), sub(exp(0x2, 0xa0), 0x1))\n      jump(tag_88)\n        /* \"contracts/USDT.sol\":7803:7888  function pause() onlyOwner whenNotPaused public {... */\n    tag_19:\n      jumpi(tag_89, iszero(callvalue))\n      0x0\n      dup1\n      revert\n    tag_89:\n      tag_42\n      jump(tag_91)\n        /* \"contracts/USDT.sol\":8357:8442  function getOwner() external constant returns (address) {... */\n    tag_20:\n      jumpi(tag_92, iszero(callvalue))\n      0x0\n      dup1\n      revert\n    tag_92:\n      tag_60\n      jump(tag_94)\n        /* \"contracts/USDT.sol\":1188:1208  address public owner */\n    tag_21:\n      jumpi(tag_95, iszero(callvalue))\n      0x0\n      dup1\n      revert\n    tag_95:\n      tag_60\n      jump(tag_97)\n        /* \"contracts/USDT.sol\":9814:9834  string public symbol */\n    tag_22:\n      jumpi(tag_98, iszero(callvalue))\n      0x0\n      dup1\n      revert\n    tag_98:\n      tag_35\n      jump(tag_100)\n        /* \"contracts/USDT.sol\":10590:10909  function transfer(address _to, uint _value) public whenNotPaused {... */\n    tag_23:\n      jumpi(tag_105, iszero(callvalue))\n      0x0\n      dup1\n      revert\n    tag_105:\n      tag_42\n      and(calldataload(0x4), sub(exp(0x2, 0xa0), 0x1))\n      calldataload(0x24)\n      jump(tag_107)\n        /* \"contracts/USDT.sol\":13805:14183  function setParams(uint newBasisPoints, uint newMaxFee) public onlyOwner {... */\n    tag_24:\n      jumpi(tag_108, iszero(callvalue))\n      0x0\n      dup1\n      revert\n    tag_108:\n      tag_42\n      calldataload(0x4)\n      calldataload(0x24)\n      jump(tag_110)\n        /* \"contracts/USDT.sol\":13086:13345  function issue(uint amount) public onlyOwner {... */\n    tag_25:\n      jumpi(tag_111, iszero(callvalue))\n      0x0\n      dup1\n      revert\n    tag_111:\n      tag_42\n      calldataload(0x4)\n      jump(tag_113)\n        /* \"contracts/USDT.sol\":13569:13799  function redeem(uint amount) public onlyOwner {... */\n    tag_26:\n      jumpi(tag_114, iszero(callvalue))\n      0x0\n      dup1\n      revert\n    tag_114:\n      tag_42\n      calldataload(0x4)\n      jump(tag_116)\n        /* \"contracts/USDT.sol\":12126:12413  function allowance(address _owner, address _spender) public constant returns (uint remaining) {... */\n    tag_27:\n      jumpi(tag_117, iszero(callvalue))\n      0x0\n      dup1\n      revert\n    tag_117:\n      tag_54\n      sub(exp(0x2, 0xa0), 0x1)\n      calldataload(0x4)\n      dup2\n      and\n      swap1\n      calldataload(0x24)\n      and\n      jump(tag_119)\n        /* \"contracts/USDT.sol\":3041:3072  uint public basisPointsRate = 0 */\n    tag_28:\n      jumpi(tag_120, iszero(callvalue))\n      0x0\n      dup1\n      revert\n    tag_120:\n      tag_54\n      jump(tag_122)\n        /* \"contracts/USDT.sol\":8448:8494  mapping (address => bool) public isBlackListed */\n    tag_29:\n      jumpi(tag_123, iszero(callvalue))\n      0x0\n      dup1\n      revert\n    tag_123:\n      tag_48\n      and(calldataload(0x4), sub(exp(0x2, 0xa0), 0x1))\n      jump(tag_125)\n        /* \"contracts/USDT.sol\":8649:8806  function removeBlackList (address _clearedUser) public onlyOwner {... */\n    tag_30:\n      jumpi(tag_126, iszero(callvalue))\n      0x0\n      dup1\n      revert\n    tag_126:\n      tag_42\n      and(calldataload(0x4), sub(exp(0x2, 0xa0), 0x1))\n      jump(tag_128)\n        /* \"contracts/USDT.sol\":4720:4762  uint public constant MAX_UINT = 2**256 - 1 */\n    tag_31:\n      jumpi(tag_129, iszero(callvalue))\n      0x0\n      dup1\n      revert\n    tag_129:\n      tag_54\n      jump(tag_131)\n        /* \"contracts/USDT.sol\":1738:1885  function transferOwnership(address newOwner) public onlyOwner {... */\n    tag_32:\n      jumpi(tag_132, iszero(callvalue))\n      0x0\n      dup1\n      revert\n    tag_132:\n      tag_42\n      and(calldataload(0x4), sub(exp(0x2, 0xa0), 0x1))\n      jump(tag_134)\n        /* \"contracts/USDT.sol\":8812:9130  function destroyBlackFunds (address _blackListedUser) public onlyOwner {... */\n    tag_33:\n      jumpi(tag_135, iszero(callvalue))\n      0x0\n      dup1\n      revert\n    tag_135:\n      tag_42\n      and(calldataload(0x4), sub(exp(0x2, 0xa0), 0x1))\n      jump(tag_137)\n        /* \"contracts/USDT.sol\":9790:9808  string public name */\n    tag_36:\n      0x7\n      dup1\n      sload\n      0x1\n      dup2\n      0x1\n      and\n      iszero\n      0x100\n      mul\n      sub\n      and\n      0x2\n      swap1\n      div\n      dup1\n      0x1f\n      add\n      0x20\n      dup1\n      swap2\n      div\n      mul\n      0x20\n      add\n      mload(0x40)\n      swap1\n      dup2\n      add\n      0x40\n      mstore\n      dup1\n      swap3\n      swap2\n      swap1\n      dup2\n      dup2\n      mstore\n      0x20\n      add\n      dup3\n      dup1\n      sload\n      0x1\n      dup2\n      0x1\n      and\n      iszero\n      0x100\n      mul\n      sub\n      and\n      0x2\n      swap1\n      div\n      dup1\n      iszero\n      tag_138\n      jumpi\n      dup1\n      0x1f\n      lt\n      tag_139\n      jumpi\n      0x100\n      dup1\n      dup4\n      sload\n      div\n      mul\n      dup4\n      mstore\n      swap2\n      0x20\n      add\n      swap2\n      jump(tag_138)\n    tag_139:\n      dup3\n      add\n      swap2\n      swap1\n      0x0\n      mstore\n      keccak256(0x0, 0x20)\n      swap1\n    tag_140:\n      dup2\n      sload\n      dup2\n      mstore\n      swap1\n      0x1\n      add\n      swap1\n      0x20\n      add\n      dup1\n      dup4\n      gt\n      tag_140\n      jumpi\n      dup3\n      swap1\n      sub\n      0x1f\n      and\n      dup3\n      add\n      swap2\n    tag_138:\n      pop\n      pop\n      pop\n      pop\n      pop\n      dup2\n      jump\t// out\n        /* \"contracts/USDT.sol\":12476:12653  function deprecate(address _upgradedAddress) public onlyOwner {... */\n    tag_43:\n        /* \"contracts/USDT.sol\":1546:1551  owner */\n      sload(0x0)\n        /* \"contracts/USDT.sol\":1532:1542  msg.sender */\n      caller\n      sub(exp(0x2, 0xa0), 0x1)\n        /* \"contracts/USDT.sol\":1532:1551  msg.sender == owner */\n      swap1\n      dup2\n      and\n        /* \"contracts/USDT.sol\":1546:1551  owner */\n      swap2\n      and\n        /* \"contracts/USDT.sol\":1532:1551  msg.sender == owner */\n      eq\n        /* \"contracts/USDT.sol\":1524:1552  require(msg.sender == owner) */\n      tag_142\n      jumpi\n      0x0\n      dup1\n      revert\n    tag_142:\n        /* \"contracts/USDT.sol\":12548:12558  deprecated */\n      0xa\n        /* \"contracts/USDT.sol\":12548:12565  deprecated = true */\n      dup1\n      sload\n      exp(0x2, 0xa0)\n      not(0xff0000000000000000000000000000000000000000)\n      swap1\n      swap2\n      and\n      or\n      not(0xffffffffffffffffffffffffffffffffffffffff)\n        /* \"contracts/USDT.sol\":12575:12609  upgradedAddress = _upgradedAddress */\n      and\n      sub(exp(0x2, 0xa0), 0x1)\n      dup4\n      and\n      or\n      swap1\n      sstore\n        /* \"contracts/USDT.sol\":12619:12646  Deprecate(_upgradedAddress) */\n      0xcc358699805e9a8b7f77b522628c7cb9abd07d9efb86b6fb616af1609036a99e\n        /* \"contracts/USDT.sol\":12575:12609  upgradedAddress = _upgradedAddress */\n      dup2\n        /* \"contracts/USDT.sol\":12619:12646  Deprecate(_upgradedAddress) */\n      mload(0x40)\n      sub(exp(0x2, 0xa0), 0x1)\n      swap1\n      swap2\n      and\n      dup2\n      mstore\n      0x20\n      add\n      mload(0x40)\n      dup1\n      swap2\n      sub\n      swap1\n      log1\n        /* \"contracts/USDT.sol\":12476:12653  function deprecate(address _upgradedAddress) public onlyOwner {... */\n      pop\n      jump\t// out\n        /* \"contracts/USDT.sol\":11748:12044  function approve(address _spender, uint _value) public onlyPayloadSize(2 * 32) {... */\n    tag_46:\n        /* \"contracts/USDT.sol\":11819:11825  2 * 32 */\n      0x40\n        /* \"contracts/USDT.sol\":3251:3259  size + 4 */\n      0x44\n        /* \"contracts/USDT.sol\":3233:3241  msg.data */\n      calldatasize\n        /* \"contracts/USDT.sol\":3233:3259  msg.data.length < size + 4 */\n      lt\n        /* \"contracts/USDT.sol\":3231:3260  !(msg.data.length < size + 4) */\n      iszero\n        /* \"contracts/USDT.sol\":3223:3261  require(!(msg.data.length < size + 4)) */\n      tag_145\n      jumpi\n      0x0\n      dup1\n      revert\n    tag_145:\n        /* \"contracts/USDT.sol\":11841:11851  deprecated */\n      sload(0xa)\n      exp(0x2, 0xa0)\n      swap1\n      div\n      0xff\n      and\n        /* \"contracts/USDT.sol\":11837:12038  if (deprecated) {... */\n      iszero\n      tag_147\n      jumpi\n        /* \"contracts/USDT.sol\":11896:11911  upgradedAddress */\n      and(sub(exp(0x2, 0xa0), 0x1), sload(0xa))\n        /* \"contracts/USDT.sol\":11874:11928  UpgradedStandardToken(upgradedAddress).approveByLegacy */\n      0xaee92d33\n        /* \"contracts/USDT.sol\":11929:11939  msg.sender */\n      caller\n        /* \"contracts/USDT.sol\":11941:11949  _spender */\n      dup6\n        /* \"contracts/USDT.sol\":11951:11957  _value */\n      dup6\n        /* \"contracts/USDT.sol\":11874:11958  UpgradedStandardToken(upgradedAddress).approveByLegacy(msg.sender, _spender, _value) */\n      mload(0x40)\n      exp(0x2, 0xe0)\n      0xffffffff\n      dup7\n      and\n      mul\n      dup2\n      mstore\n      sub(exp(0x2, 0xa0), 0x1)\n      swap4\n      dup5\n      and\n      0x4\n      dup3\n      add\n      mstore\n      swap2\n      swap1\n      swap3\n      and\n      0x24\n      dup3\n      add\n      mstore\n      0x44\n      dup2\n      add\n      swap2\n      swap1\n      swap2\n      mstore\n      0x64\n      add\n      0x0\n      mload(0x40)\n      dup1\n      dup4\n      sub\n      dup2\n      0x0\n      dup8\n      dup1\n      extcodesize\n      iszero\n      iszero\n      tag_148\n      jumpi\n      0x0\n      dup1\n      revert\n    tag_148:\n      sub(gas, 0x2c6)\n      call\n      iszero\n      iszero\n      tag_149\n      jumpi\n      0x0\n      dup1\n      revert\n    tag_149:\n      pop\n      pop\n      pop\n        /* \"contracts/USDT.sol\":11867:11958  return UpgradedStandardToken(upgradedAddress).approveByLegacy(msg.sender, _spender, _value) */\n      jump(tag_151)\n        /* \"contracts/USDT.sol\":11837:12038  if (deprecated) {... */\n    tag_147:\n        /* \"contracts/USDT.sol\":11996:12027  super.approve(_spender, _value) */\n      tag_151\n        /* \"contracts/USDT.sol\":12010:12018  _spender */\n      dup4\n        /* \"contracts/USDT.sol\":12020:12026  _value */\n      dup4\n        /* \"contracts/USDT.sol\":11996:12009  super.approve */\n      tag_152\n        /* \"contracts/USDT.sol\":11996:12027  super.approve(_spender, _value) */\n      jump\t// in\n    tag_151:\n        /* \"contracts/USDT.sol\":11748:12044  function approve(address _spender, uint _value) public onlyPayloadSize(2 * 32) {... */\n      pop\n      pop\n      pop\n      jump\t// out\n        /* \"contracts/USDT.sol\":9902:9924  bool public deprecated */\n    tag_49:\n      sload(0xa)\n      exp(0x2, 0xa0)\n      swap1\n      div\n      0xff\n      and\n      dup2\n      jump\t// out\n        /* \"contracts/USDT.sol\":8501:8643  function addBlackList (address _evilUser) public onlyOwner {... */\n    tag_52:\n        /* \"contracts/USDT.sol\":1546:1551  owner */\n      sload(0x0)\n        /* \"contracts/USDT.sol\":1532:1542  msg.sender */\n      caller\n      sub(exp(0x2, 0xa0), 0x1)\n        /* \"contracts/USDT.sol\":1532:1551  msg.sender == owner */\n      swap1\n      dup2\n      and\n        /* \"contracts/USDT.sol\":1546:1551  owner */\n      swap2\n      and\n        /* \"contracts/USDT.sol\":1532:1551  msg.sender == owner */\n      eq\n        /* \"contracts/USDT.sol\":1524:1552  require(msg.sender == owner) */\n      tag_154\n      jumpi\n      0x0\n      dup1\n      revert\n    tag_154:\n      sub(exp(0x2, 0xa0), 0x1)\n        /* \"contracts/USDT.sol\":8570:8594  isBlackListed[_evilUser] */\n      dup2\n      and\n      0x0\n      swap1\n      dup2\n      mstore\n        /* \"contracts/USDT.sol\":8570:8583  isBlackListed */\n      0x6\n        /* \"contracts/USDT.sol\":8570:8594  isBlackListed[_evilUser] */\n      0x20\n      mstore\n      0x40\n      swap1\n      dup2\n      swap1\n      keccak256\n        /* \"contracts/USDT.sol\":8570:8601  isBlackListed[_evilUser] = true */\n      dup1\n      sload\n      not(0xff)\n      and\n        /* \"contracts/USDT.sol\":8597:8601  true */\n      0x1\n        /* \"contracts/USDT.sol\":8570:8601  isBlackListed[_evilUser] = true */\n      or\n      swap1\n      sstore\n        /* \"contracts/USDT.sol\":8611:8636  AddedBlackList(_evilUser) */\n      0x42e160154868087d6bfdc0ca23d96a1c1cfa32f1b72ba9ba27b69b98a0d819dc\n      swap1\n        /* \"contracts/USDT.sol\":8584:8593  _evilUser */\n      dup3\n      swap1\n        /* \"contracts/USDT.sol\":8611:8636  AddedBlackList(_evilUser) */\n      mload\n      sub(exp(0x2, 0xa0), 0x1)\n      swap1\n      swap2\n      and\n      dup2\n      mstore\n      0x20\n      add\n      mload(0x40)\n      dup1\n      swap2\n      sub\n      swap1\n      log1\n        /* \"contracts/USDT.sol\":8501:8643  function addBlackList (address _evilUser) public onlyOwner {... */\n      pop\n      jump\t// out\n        /* \"contracts/USDT.sol\":12716:12928  function totalSupply() public constant returns (uint) {... */\n    tag_55:\n        /* \"contracts/USDT.sol\":12784:12794  deprecated */\n      sload(0xa)\n        /* \"contracts/USDT.sol\":12764:12768  uint */\n      0x0\n      swap1\n      exp(0x2, 0xa0)\n        /* \"contracts/USDT.sol\":12784:12794  deprecated */\n      swap1\n      div\n      0xff\n      and\n        /* \"contracts/USDT.sol\":12780:12922  if (deprecated) {... */\n      iszero\n      tag_157\n      jumpi\n        /* \"contracts/USDT.sol\":12831:12846  upgradedAddress */\n      and(sub(exp(0x2, 0xa0), 0x1), sload(0xa))\n        /* \"contracts/USDT.sol\":12817:12859  StandardToken(upgradedAddress).totalSupply */\n      0x18160ddd\n        /* \"contracts/USDT.sol\":12831:12846  upgradedAddress */\n      0x0\n        /* \"contracts/USDT.sol\":12817:12861  StandardToken(upgradedAddress).totalSupply() */\n      add(0x20, mload(0x40))\n      mstore\n      mload(0x40)\n      dup2\n      0xffffffff\n      and\n      exp(0x2, 0xe0)\n      mul\n      dup2\n      mstore\n      0x4\n      add\n      0x20\n      mload(0x40)\n      dup1\n      dup4\n      sub\n      dup2\n      0x0\n      dup8\n      dup1\n      extcodesize\n      iszero\n      iszero\n      tag_158\n      jumpi\n      0x0\n      dup1\n      revert\n    tag_158:\n      sub(gas, 0x2c6)\n      call\n      iszero\n      iszero\n      tag_159\n      jumpi\n      0x0\n      dup1\n      revert\n    tag_159:\n      pop\n      pop\n      pop\n      mload(0x40)\n      dup1\n      mload\n      swap1\n      pop\n        /* \"contracts/USDT.sol\":12810:12861  return StandardToken(upgradedAddress).totalSupply() */\n      swap1\n      pop\n      jump(tag_160)\n        /* \"contracts/USDT.sol\":12780:12922  if (deprecated) {... */\n    tag_157:\n      pop\n        /* \"contracts/USDT.sol\":12899:12911  _totalSupply */\n      sload(0x1)\n        /* \"contracts/USDT.sol\":12780:12922  if (deprecated) {... */\n    tag_160:\n        /* \"contracts/USDT.sol\":12716:12928  function totalSupply() public constant returns (uint) {... */\n      swap1\n      jump\t// out\n        /* \"contracts/USDT.sol\":10991:11346  function transferFrom(address _from, address _to, uint _value) public whenNotPaused {... */\n    tag_58:\n        /* \"contracts/USDT.sol\":7553:7559  paused */\n      sload(0x0)\n      exp(0x2, 0xa0)\n      swap1\n      div\n      0xff\n      and\n        /* \"contracts/USDT.sol\":7552:7559  !paused */\n      iszero\n        /* \"contracts/USDT.sol\":7544:7560  require(!paused) */\n      tag_162\n      jumpi\n      0x0\n      dup1\n      revert\n    tag_162:\n      sub(exp(0x2, 0xa0), 0x1)\n        /* \"contracts/USDT.sol\":11094:11114  isBlackListed[_from] */\n      dup4\n      and\n      0x0\n      swap1\n      dup2\n      mstore\n        /* \"contracts/USDT.sol\":11094:11107  isBlackListed */\n      0x6\n        /* \"contracts/USDT.sol\":11094:11114  isBlackListed[_from] */\n      0x20\n      mstore\n      0x40\n      swap1\n      keccak256\n      sload\n      0xff\n      and\n        /* \"contracts/USDT.sol\":11093:11114  !isBlackListed[_from] */\n      iszero\n        /* \"contracts/USDT.sol\":11085:11115  require(!isBlackListed[_from]) */\n      tag_164\n      jumpi\n      0x0\n      dup1\n      revert\n    tag_164:\n        /* \"contracts/USDT.sol\":11129:11139  deprecated */\n      sload(0xa)\n      exp(0x2, 0xa0)\n      swap1\n      div\n      0xff\n      and\n        /* \"contracts/USDT.sol\":11125:11340  if (deprecated) {... */\n      iszero\n      tag_165\n      jumpi\n        /* \"contracts/USDT.sol\":11184:11199  upgradedAddress */\n      and(sub(exp(0x2, 0xa0), 0x1), sload(0xa))\n        /* \"contracts/USDT.sol\":11162:11221  UpgradedStandardToken(upgradedAddress).transferFromByLegacy */\n      0x8b477adb\n        /* \"contracts/USDT.sol\":11222:11232  msg.sender */\n      caller\n        /* \"contracts/USDT.sol\":11234:11239  _from */\n      dup6\n        /* \"contracts/USDT.sol\":11241:11244  _to */\n      dup6\n        /* \"contracts/USDT.sol\":11246:11252  _value */\n      dup6\n        /* \"contracts/USDT.sol\":11162:11253  UpgradedStandardToken(upgradedAddress).transferFromByLegacy(msg.sender, _from, _to, _value) */\n      mload(0x40)\n      exp(0x2, 0xe0)\n      0xffffffff\n      dup8\n      and\n      mul\n      dup2\n      mstore\n      sub(exp(0x2, 0xa0), 0x1)\n      swap5\n      dup6\n      and\n      0x4\n      dup3\n      add\n      mstore\n      swap3\n      dup5\n      and\n      0x24\n      dup5\n      add\n      mstore\n      swap3\n      and\n      0x44\n      dup3\n      add\n      mstore\n      0x64\n      dup2\n      add\n      swap2\n      swap1\n      swap2\n      mstore\n      0x84\n      add\n      0x0\n      mload(0x40)\n      dup1\n      dup4\n      sub\n      dup2\n      0x0\n      dup8\n      dup1\n      extcodesize\n      iszero\n      iszero\n      tag_148\n      jumpi\n      0x0\n      dup1\n      revert\n        /* \"contracts/USDT.sol\":11125:11340  if (deprecated) {... */\n    tag_165:\n        /* \"contracts/USDT.sol\":11291:11329  super.transferFrom(_from, _to, _value) */\n      tag_151\n        /* \"contracts/USDT.sol\":11310:11315  _from */\n      dup4\n        /* \"contracts/USDT.sol\":11317:11320  _to */\n      dup4\n        /* \"contracts/USDT.sol\":11322:11328  _value */\n      dup4\n        /* \"contracts/USDT.sol\":11291:11309  super.transferFrom */\n      tag_170\n        /* \"contracts/USDT.sol\":11291:11329  super.transferFrom(_from, _to, _value) */\n      jump\t// in\n        /* \"contracts/USDT.sol\":9866:9896  address public upgradedAddress */\n    tag_61:\n      and(sub(exp(0x2, 0xa0), 0x1), sload(0xa))\n      dup2\n      jump\t// out\n        /* \"contracts/USDT.sol\":2916:2956  mapping(address => uint) public balances */\n    tag_64:\n      mstore(0x20, 0x2)\n      0x0\n      swap1\n      dup2\n      mstore\n      0x40\n      swap1\n      keccak256\n      sload\n      dup2\n      jump\t// out\n        /* \"contracts/USDT.sol\":9840:9860  uint public decimals */\n    tag_67:\n      sload(0x9)\n      dup2\n      jump\t// out\n        /* \"contracts/USDT.sol\":3078:3104  uint public maximumFee = 0 */\n    tag_70:\n      sload(0x4)\n      dup2\n      jump\t// out\n        /* \"contracts/USDT.sol\":2043:2067  uint public _totalSupply */\n    tag_73:\n      sload(0x1)\n      dup2\n      jump\t// out\n        /* \"contracts/USDT.sol\":7970:8057  function unpause() onlyOwner whenPaused public {... */\n    tag_76:\n        /* \"contracts/USDT.sol\":1546:1551  owner */\n      sload(0x0)\n        /* \"contracts/USDT.sol\":1532:1542  msg.sender */\n      caller\n      sub(exp(0x2, 0xa0), 0x1)\n        /* \"contracts/USDT.sol\":1532:1551  msg.sender == owner */\n      swap1\n      dup2\n      and\n        /* \"contracts/USDT.sol\":1546:1551  owner */\n      swap2\n      and\n        /* \"contracts/USDT.sol\":1532:1551  msg.sender == owner */\n      eq\n        /* \"contracts/USDT.sol\":1524:1552  require(msg.sender == owner) */\n      tag_172\n      jumpi\n      0x0\n      dup1\n      revert\n    tag_172:\n        /* \"contracts/USDT.sol\":7705:7711  paused */\n      sload(0x0)\n      exp(0x2, 0xa0)\n      swap1\n      div\n      0xff\n      and\n        /* \"contracts/USDT.sol\":7697:7712  require(paused) */\n      iszero\n      iszero\n      tag_174\n      jumpi\n      0x0\n      dup1\n      revert\n    tag_174:\n        /* \"contracts/USDT.sol\":8032:8037  false */\n      0x0\n        /* \"contracts/USDT.sol\":8023:8037  paused = false */\n      dup1\n      sload\n      not(0xff0000000000000000000000000000000000000000)\n      and\n      swap1\n      sstore\n        /* \"contracts/USDT.sol\":8043:8052  Unpause() */\n      0x7805862f689e2f13df9f062ff482ad3ad112aca9e0847911ed832e158c525b33\n      mload(0x40)\n      mload(0x40)\n      dup1\n      swap2\n      sub\n      swap1\n      log1\n        /* \"contracts/USDT.sol\":7970:8057  function unpause() onlyOwner whenPaused public {... */\n      jump\t// out\n        /* \"contracts/USDT.sol\":8229:8351  function getBlackListStatus(address _maker) external constant returns (bool) {... */\n    tag_79:\n      sub(exp(0x2, 0xa0), 0x1)\n        /* \"contracts/USDT.sol\":8323:8344  isBlackListed[_maker] */\n      dup2\n      and\n        /* \"contracts/USDT.sol\":8300:8304  bool */\n      0x0\n        /* \"contracts/USDT.sol\":8323:8344  isBlackListed[_maker] */\n      swap1\n      dup2\n      mstore\n        /* \"contracts/USDT.sol\":8323:8336  isBlackListed */\n      0x6\n        /* \"contracts/USDT.sol\":8323:8344  isBlackListed[_maker] */\n      0x20\n      mstore\n      0x40\n      swap1\n      keccak256\n      sload\n      0xff\n      and\n        /* \"contracts/USDT.sol\":8229:8351  function getBlackListStatus(address _maker) external constant returns (bool) {... */\n    tag_176:\n      swap2\n      swap1\n      pop\n      jump\t// out\n        /* \"contracts/USDT.sol\":4652:4713  mapping (address => mapping (address => uint)) public allowed */\n    tag_82:\n      0x5\n      0x20\n      swap1\n      dup2\n      mstore\n      0x0\n      swap3\n      dup4\n      mstore\n      0x40\n      dup1\n      dup5\n      keccak256\n      swap1\n      swap2\n      mstore\n      swap1\n      dup3\n      mstore\n      swap1\n      keccak256\n      sload\n      dup2\n      jump\t// out\n        /* \"contracts/USDT.sol\":7384:7410  bool public paused = false */\n    tag_85:\n      sload(0x0)\n      exp(0x2, 0xa0)\n      swap1\n      div\n      0xff\n      and\n      dup2\n      jump\t// out\n        /* \"contracts/USDT.sol\":11428:11666  function balanceOf(address who) public constant returns (uint) {... */\n    tag_88:\n        /* \"contracts/USDT.sol\":11505:11515  deprecated */\n      sload(0xa)\n        /* \"contracts/USDT.sol\":11485:11489  uint */\n      0x0\n      swap1\n      exp(0x2, 0xa0)\n        /* \"contracts/USDT.sol\":11505:11515  deprecated */\n      swap1\n      div\n      0xff\n      and\n        /* \"contracts/USDT.sol\":11501:11660  if (deprecated) {... */\n      iszero\n      tag_178\n      jumpi\n        /* \"contracts/USDT.sol\":11560:11575  upgradedAddress */\n      and(sub(exp(0x2, 0xa0), 0x1), sload(0xa))\n        /* \"contracts/USDT.sol\":11538:11586  UpgradedStandardToken(upgradedAddress).balanceOf */\n      0x70a08231\n        /* \"contracts/USDT.sol\":11587:11590  who */\n      dup4\n        /* \"contracts/USDT.sol\":11560:11575  upgradedAddress */\n      0x0\n        /* \"contracts/USDT.sol\":11538:11591  UpgradedStandardToken(upgradedAddress).balanceOf(who) */\n      add(0x20, mload(0x40))\n      mstore\n      mload(0x40)\n      exp(0x2, 0xe0)\n      0xffffffff\n      dup5\n      and\n      mul\n      dup2\n      mstore\n      sub(exp(0x2, 0xa0), 0x1)\n      swap1\n      swap2\n      and\n      0x4\n      dup3\n      add\n      mstore\n      0x24\n      add\n      0x20\n      mload(0x40)\n      dup1\n      dup4\n      sub\n      dup2\n      0x0\n      dup8\n      dup1\n      extcodesize\n      iszero\n      iszero\n      tag_179\n      jumpi\n      0x0\n      dup1\n      revert\n    tag_179:\n      sub(gas, 0x2c6)\n      call\n      iszero\n      iszero\n      tag_180\n      jumpi\n      0x0\n      dup1\n      revert\n    tag_180:\n      pop\n      pop\n      pop\n      mload(0x40)\n      dup1\n      mload\n      swap1\n      pop\n        /* \"contracts/USDT.sol\":11531:11591  return UpgradedStandardToken(upgradedAddress).balanceOf(who) */\n      swap1\n      pop\n      jump(tag_176)\n        /* \"contracts/USDT.sol\":11501:11660  if (deprecated) {... */\n    tag_178:\n        /* \"contracts/USDT.sol\":11629:11649  super.balanceOf(who) */\n      tag_182\n        /* \"contracts/USDT.sol\":11645:11648  who */\n      dup3\n        /* \"contracts/USDT.sol\":11629:11644  super.balanceOf */\n      tag_183\n        /* \"contracts/USDT.sol\":11629:11649  super.balanceOf(who) */\n      jump\t// in\n    tag_182:\n        /* \"contracts/USDT.sol\":11622:11649  return super.balanceOf(who) */\n      swap1\n      pop\n      jump(tag_176)\n        /* \"contracts/USDT.sol\":7803:7888  function pause() onlyOwner whenNotPaused public {... */\n    tag_91:\n        /* \"contracts/USDT.sol\":1546:1551  owner */\n      sload(0x0)\n        /* \"contracts/USDT.sol\":1532:1542  msg.sender */\n      caller\n      sub(exp(0x2, 0xa0), 0x1)\n        /* \"contracts/USDT.sol\":1532:1551  msg.sender == owner */\n      swap1\n      dup2\n      and\n        /* \"contracts/USDT.sol\":1546:1551  owner */\n      swap2\n      and\n        /* \"contracts/USDT.sol\":1532:1551  msg.sender == owner */\n      eq\n        /* \"contracts/USDT.sol\":1524:1552  require(msg.sender == owner) */\n      tag_185\n      jumpi\n      0x0\n      dup1\n      revert\n    tag_185:\n        /* \"contracts/USDT.sol\":7553:7559  paused */\n      sload(0x0)\n      exp(0x2, 0xa0)\n      swap1\n      div\n      0xff\n      and\n        /* \"contracts/USDT.sol\":7552:7559  !paused */\n      iszero\n        /* \"contracts/USDT.sol\":7544:7560  require(!paused) */\n      tag_187\n      jumpi\n      0x0\n      dup1\n      revert\n    tag_187:\n        /* \"contracts/USDT.sol\":7857:7863  paused */\n      0x0\n        /* \"contracts/USDT.sol\":7857:7870  paused = true */\n      dup1\n      sload\n      not(0xff0000000000000000000000000000000000000000)\n      and\n      exp(0x2, 0xa0)\n      or\n      swap1\n      sstore\n        /* \"contracts/USDT.sol\":7876:7883  Pause() */\n      0x6985a02210a168e66602d3235cb6db0e70f92b3ba4d376a33c0f3d9434bff625\n      mload(0x40)\n      mload(0x40)\n      dup1\n      swap2\n      sub\n      swap1\n      log1\n        /* \"contracts/USDT.sol\":7803:7888  function pause() onlyOwner whenNotPaused public {... */\n      jump\t// out\n        /* \"contracts/USDT.sol\":8357:8442  function getOwner() external constant returns (address) {... */\n    tag_94:\n        /* \"contracts/USDT.sol\":8404:8411  address */\n      0x0\n        /* \"contracts/USDT.sol\":8430:8435  owner */\n      sload\n      sub(exp(0x2, 0xa0), 0x1)\n      and\n        /* \"contracts/USDT.sol\":8357:8442  function getOwner() external constant returns (address) {... */\n      swap1\n      jump\t// out\n        /* \"contracts/USDT.sol\":1188:1208  address public owner */\n    tag_97:\n      and(sub(exp(0x2, 0xa0), 0x1), sload(0x0))\n      dup2\n      jump\t// out\n        /* \"contracts/USDT.sol\":9814:9834  string public symbol */\n    tag_100:\n      0x8\n      dup1\n      sload\n      0x1\n      dup2\n      0x1\n      and\n      iszero\n      0x100\n      mul\n      sub\n      and\n      0x2\n      swap1\n      div\n      dup1\n      0x1f\n      add\n      0x20\n      dup1\n      swap2\n      div\n      mul\n      0x20\n      add\n      mload(0x40)\n      swap1\n      dup2\n      add\n      0x40\n      mstore\n      dup1\n      swap3\n      swap2\n      swap1\n      dup2\n      dup2\n      mstore\n      0x20\n      add\n      dup3\n      dup1\n      sload\n      0x1\n      dup2\n      0x1\n      and\n      iszero\n      0x100\n      mul\n      sub\n      and\n      0x2\n      swap1\n      div\n      dup1\n      iszero\n      tag_138\n      jumpi\n      dup1\n      0x1f\n      lt\n      tag_139\n      jumpi\n      0x100\n      dup1\n      dup4\n      sload\n      div\n      mul\n      dup4\n      mstore\n      swap2\n      0x20\n      add\n      swap2\n      jump(tag_138)\n        /* \"contracts/USDT.sol\":10590:10909  function transfer(address _to, uint _value) public whenNotPaused {... */\n    tag_107:\n        /* \"contracts/USDT.sol\":7553:7559  paused */\n      sload(0x0)\n      exp(0x2, 0xa0)\n      swap1\n      div\n      0xff\n      and\n        /* \"contracts/USDT.sol\":7552:7559  !paused */\n      iszero\n        /* \"contracts/USDT.sol\":7544:7560  require(!paused) */\n      tag_194\n      jumpi\n      0x0\n      dup1\n      revert\n    tag_194:\n      sub(exp(0x2, 0xa0), 0x1)\n        /* \"contracts/USDT.sol\":10688:10698  msg.sender */\n      caller\n        /* \"contracts/USDT.sol\":10674:10699  isBlackListed[msg.sender] */\n      and\n      0x0\n      swap1\n      dup2\n      mstore\n        /* \"contracts/USDT.sol\":10674:10687  isBlackListed */\n      0x6\n        /* \"contracts/USDT.sol\":10674:10699  isBlackListed[msg.sender] */\n      0x20\n      mstore\n      0x40\n      swap1\n      keccak256\n      sload\n      0xff\n      and\n        /* \"contracts/USDT.sol\":10673:10699  !isBlackListed[msg.sender] */\n      iszero\n        /* \"contracts/USDT.sol\":10665:10700  require(!isBlackListed[msg.sender]) */\n      tag_196\n      jumpi\n      0x0\n      dup1\n      revert\n    tag_196:\n        /* \"contracts/USDT.sol\":10714:10724  deprecated */\n      sload(0xa)\n      exp(0x2, 0xa0)\n      swap1\n      div\n      0xff\n      and\n        /* \"contracts/USDT.sol\":10710:10903  if (deprecated) {... */\n      iszero\n      tag_197\n      jumpi\n        /* \"contracts/USDT.sol\":10769:10784  upgradedAddress */\n      and(sub(exp(0x2, 0xa0), 0x1), sload(0xa))\n        /* \"contracts/USDT.sol\":10747:10802  UpgradedStandardToken(upgradedAddress).transferByLegacy */\n      0x6e18980a\n        /* \"contracts/USDT.sol\":10803:10813  msg.sender */\n      caller\n        /* \"contracts/USDT.sol\":10815:10818  _to */\n      dup5\n        /* \"contracts/USDT.sol\":10820:10826  _value */\n      dup5\n        /* \"contracts/USDT.sol\":10747:10827  UpgradedStandardToken(upgradedAddress).transferByLegacy(msg.sender, _to, _value) */\n      mload(0x40)\n      exp(0x2, 0xe0)\n      0xffffffff\n      dup7\n      and\n      mul\n      dup2\n      mstore\n      sub(exp(0x2, 0xa0), 0x1)\n      swap4\n      dup5\n      and\n      0x4\n      dup3\n      add\n      mstore\n      swap2\n      swap1\n      swap3\n      and\n      0x24\n      dup3\n      add\n      mstore\n      0x44\n      dup2\n      add\n      swap2\n      swap1\n      swap2\n      mstore\n      0x64\n      add\n      0x0\n      mload(0x40)\n      dup1\n      dup4\n      sub\n      dup2\n      0x0\n      dup8\n      dup1\n      extcodesize\n      iszero\n      iszero\n      tag_198\n      jumpi\n      0x0\n      dup1\n      revert\n    tag_198:\n      sub(gas, 0x2c6)\n      call\n      iszero\n      iszero\n      tag_199\n      jumpi\n      0x0\n      dup1\n      revert\n    tag_199:\n      pop\n      pop\n      pop\n        /* \"contracts/USDT.sol\":10740:10827  return UpgradedStandardToken(upgradedAddress).transferByLegacy(msg.sender, _to, _value) */\n      jump(tag_201)\n        /* \"contracts/USDT.sol\":10710:10903  if (deprecated) {... */\n    tag_197:\n        /* \"contracts/USDT.sol\":10865:10892  super.transfer(_to, _value) */\n      tag_201\n        /* \"contracts/USDT.sol\":10880:10883  _to */\n      dup3\n        /* \"contracts/USDT.sol\":10885:10891  _value */\n      dup3\n        /* \"contracts/USDT.sol\":10865:10879  super.transfer */\n      tag_202\n        /* \"contracts/USDT.sol\":10865:10892  super.transfer(_to, _value) */\n      jump\t// in\n    tag_201:\n        /* \"contracts/USDT.sol\":10590:10909  function transfer(address _to, uint _value) public whenNotPaused {... */\n      pop\n      pop\n      jump\t// out\n        /* \"contracts/USDT.sol\":13805:14183  function setParams(uint newBasisPoints, uint newMaxFee) public onlyOwner {... */\n    tag_110:\n        /* \"contracts/USDT.sol\":1546:1551  owner */\n      sload(0x0)\n        /* \"contracts/USDT.sol\":1532:1542  msg.sender */\n      caller\n      sub(exp(0x2, 0xa0), 0x1)\n        /* \"contracts/USDT.sol\":1532:1551  msg.sender == owner */\n      swap1\n      dup2\n      and\n        /* \"contracts/USDT.sol\":1546:1551  owner */\n      swap2\n      and\n        /* \"contracts/USDT.sol\":1532:1551  msg.sender == owner */\n      eq\n        /* \"contracts/USDT.sol\":1524:1552  require(msg.sender == owner) */\n      tag_204\n      jumpi\n      0x0\n      dup1\n      revert\n    tag_204:\n        /* \"contracts/USDT.sol\":14001:14003  20 */\n      0x14\n        /* \"contracts/USDT.sol\":13984:14003  newBasisPoints < 20 */\n      dup3\n      lt\n        /* \"contracts/USDT.sol\":13976:14004  require(newBasisPoints < 20) */\n      tag_206\n      jumpi\n      0x0\n      dup1\n      revert\n    tag_206:\n        /* \"contracts/USDT.sol\":14034:14036  50 */\n      0x32\n        /* \"contracts/USDT.sol\":14022:14036  newMaxFee < 50 */\n      dup2\n      lt\n        /* \"contracts/USDT.sol\":14014:14037  require(newMaxFee < 50) */\n      tag_207\n      jumpi\n      0x0\n      dup1\n      revert\n    tag_207:\n        /* \"contracts/USDT.sol\":14048:14063  basisPointsRate */\n      0x3\n        /* \"contracts/USDT.sol\":14048:14080  basisPointsRate = newBasisPoints */\n      dup3\n      swap1\n      sstore\n        /* \"contracts/USDT.sol\":14121:14129  decimals */\n      sload(0x9)\n        /* \"contracts/USDT.sol\":14103:14130  newMaxFee.mul(10**decimals) */\n      tag_208\n      swap1\n        /* \"contracts/USDT.sol\":14103:14112  newMaxFee */\n      dup3\n      swap1\n        /* \"contracts/USDT.sol\":14117:14119  10 */\n      0xa\n        /* \"contracts/USDT.sol\":14117:14129  10**decimals */\n      exp\n        /* \"contracts/USDT.sol\":14103:14130  newMaxFee.mul(10**decimals) */\n      0xffffffff\n        /* \"contracts/USDT.sol\":14103:14116  newMaxFee.mul */\n      tag_209\n        /* \"contracts/USDT.sol\":14103:14130  newMaxFee.mul(10**decimals) */\n      and\n      jump\t// in\n    tag_208:\n        /* \"contracts/USDT.sol\":14090:14100  maximumFee */\n      0x4\n        /* \"contracts/USDT.sol\":14090:14130  maximumFee = newMaxFee.mul(10**decimals) */\n      dup2\n      swap1\n      sstore\n        /* \"contracts/USDT.sol\":14148:14163  basisPointsRate */\n      sload(0x3)\n        /* \"contracts/USDT.sol\":14141:14176  Params(basisPointsRate, maximumFee) */\n      0xb044a1e409eac5c48e5af22d4af52670dd1a99059537a78b31b48c6500a6354e\n      swap2\n      mload(0x40)\n      swap2\n      dup3\n      mstore\n      0x20\n      dup3\n      add\n      mstore\n      0x40\n      swap1\n      dup2\n      add\n      swap1\n      mload\n      dup1\n      swap2\n      sub\n      swap1\n      log1\n        /* \"contracts/USDT.sol\":13805:14183  function setParams(uint newBasisPoints, uint newMaxFee) public onlyOwner {... */\n      pop\n      pop\n      jump\t// out\n        /* \"contracts/USDT.sol\":13086:13345  function issue(uint amount) public onlyOwner {... */\n    tag_113:\n        /* \"contracts/USDT.sol\":1546:1551  owner */\n      sload(0x0)\n        /* \"contracts/USDT.sol\":1532:1542  msg.sender */\n      caller\n      sub(exp(0x2, 0xa0), 0x1)\n        /* \"contracts/USDT.sol\":1532:1551  msg.sender == owner */\n      swap1\n      dup2\n      and\n        /* \"contracts/USDT.sol\":1546:1551  owner */\n      swap2\n      and\n        /* \"contracts/USDT.sol\":1532:1551  msg.sender == owner */\n      eq\n        /* \"contracts/USDT.sol\":1524:1552  require(msg.sender == owner) */\n      tag_211\n      jumpi\n      0x0\n      dup1\n      revert\n    tag_211:\n        /* \"contracts/USDT.sol\":13173:13185  _totalSupply */\n      sload(0x1)\n        /* \"contracts/USDT.sol\":13149:13170  _totalSupply + amount */\n      dup2\n      dup2\n      add\n        /* \"contracts/USDT.sol\":13149:13185  _totalSupply + amount > _totalSupply */\n      gt\n        /* \"contracts/USDT.sol\":13141:13186  require(_totalSupply + amount > _totalSupply) */\n      tag_213\n      jumpi\n      0x0\n      dup1\n      revert\n    tag_213:\n        /* \"contracts/USDT.sol\":13231:13246  balances[owner] */\n      0x0\n        /* \"contracts/USDT.sol\":13240:13245  owner */\n      dup1\n      sload\n      sub(exp(0x2, 0xa0), 0x1)\n      and\n        /* \"contracts/USDT.sol\":13231:13246  balances[owner] */\n      dup2\n      mstore\n        /* \"contracts/USDT.sol\":13231:13239  balances */\n      0x2\n        /* \"contracts/USDT.sol\":13231:13246  balances[owner] */\n      0x20\n      mstore\n      0x40\n      swap1\n      keccak256\n      sload\n        /* \"contracts/USDT.sol\":13204:13228  balances[owner] + amount */\n      dup2\n      dup2\n      add\n        /* \"contracts/USDT.sol\":13204:13246  balances[owner] + amount > balances[owner] */\n      gt\n        /* \"contracts/USDT.sol\":13196:13247  require(balances[owner] + amount > balances[owner]) */\n      tag_214\n      jumpi\n      0x0\n      dup1\n      revert\n    tag_214:\n        /* \"contracts/USDT.sol\":13258:13273  balances[owner] */\n      0x0\n        /* \"contracts/USDT.sol\":13267:13272  owner */\n      dup1\n      sload\n      sub(exp(0x2, 0xa0), 0x1)\n      and\n        /* \"contracts/USDT.sol\":13258:13273  balances[owner] */\n      dup2\n      mstore\n        /* \"contracts/USDT.sol\":13258:13266  balances */\n      0x2\n        /* \"contracts/USDT.sol\":13258:13273  balances[owner] */\n      0x20\n      mstore\n      0x40\n      swap1\n      dup2\n      swap1\n      keccak256\n        /* \"contracts/USDT.sol\":13258:13283  balances[owner] += amount */\n      dup1\n      sload\n      dup4\n      add\n      swap1\n      sstore\n        /* \"contracts/USDT.sol\":13267:13272  owner */\n      0x1\n        /* \"contracts/USDT.sol\":13293:13315  _totalSupply += amount */\n      dup1\n      sload\n      dup4\n      add\n      swap1\n      sstore\n        /* \"contracts/USDT.sol\":13325:13338  Issue(amount) */\n      0xcb8241adb0c3fdb35b70c24ce35c5eb0c17af7431c99f827d44a445ca624176a\n      swap1\n        /* \"contracts/USDT.sol\":13277:13283  amount */\n      dup3\n      swap1\n        /* \"contracts/USDT.sol\":13325:13338  Issue(amount) */\n      mload\n      swap1\n      dup2\n      mstore\n      0x20\n      add\n      mload(0x40)\n      dup1\n      swap2\n      sub\n      swap1\n      log1\n        /* \"contracts/USDT.sol\":13086:13345  function issue(uint amount) public onlyOwner {... */\n      pop\n      jump\t// out\n        /* \"contracts/USDT.sol\":13569:13799  function redeem(uint amount) public onlyOwner {... */\n    tag_116:\n        /* \"contracts/USDT.sol\":1546:1551  owner */\n      sload(0x0)\n        /* \"contracts/USDT.sol\":1532:1542  msg.sender */\n      caller\n      sub(exp(0x2, 0xa0), 0x1)\n        /* \"contracts/USDT.sol\":1532:1551  msg.sender == owner */\n      swap1\n      dup2\n      and\n        /* \"contracts/USDT.sol\":1546:1551  owner */\n      swap2\n      and\n        /* \"contracts/USDT.sol\":1532:1551  msg.sender == owner */\n      eq\n        /* \"contracts/USDT.sol\":1524:1552  require(msg.sender == owner) */\n      tag_216\n      jumpi\n      0x0\n      dup1\n      revert\n    tag_216:\n        /* \"contracts/USDT.sol\":13633:13645  _totalSupply */\n      sload(0x1)\n        /* \"contracts/USDT.sol\":13633:13655  _totalSupply >= amount */\n      dup2\n      swap1\n      lt\n      iszero\n        /* \"contracts/USDT.sol\":13625:13656  require(_totalSupply >= amount) */\n      tag_218\n      jumpi\n      0x0\n      dup1\n      revert\n    tag_218:\n        /* \"contracts/USDT.sol\":13674:13689  balances[owner] */\n      0x0\n        /* \"contracts/USDT.sol\":13683:13688  owner */\n      dup1\n      sload\n      sub(exp(0x2, 0xa0), 0x1)\n      and\n        /* \"contracts/USDT.sol\":13674:13689  balances[owner] */\n      dup2\n      mstore\n        /* \"contracts/USDT.sol\":13674:13682  balances */\n      0x2\n        /* \"contracts/USDT.sol\":13674:13689  balances[owner] */\n      0x20\n      mstore\n      0x40\n      swap1\n      keccak256\n      sload\n        /* \"contracts/USDT.sol\":13674:13699  balances[owner] >= amount */\n      dup2\n      swap1\n      lt\n      iszero\n        /* \"contracts/USDT.sol\":13666:13700  require(balances[owner] >= amount) */\n      tag_219\n      jumpi\n      0x0\n      dup1\n      revert\n    tag_219:\n        /* \"contracts/USDT.sol\":13711:13723  _totalSupply */\n      0x1\n        /* \"contracts/USDT.sol\":13711:13733  _totalSupply -= amount */\n      dup1\n      sload\n      dup3\n      swap1\n      sub\n      swap1\n      sstore\n        /* \"contracts/USDT.sol\":13711:13723  _totalSupply */\n      0x0\n        /* \"contracts/USDT.sol\":13752:13757  owner */\n      dup1\n      sload\n      sub(exp(0x2, 0xa0), 0x1)\n      and\n        /* \"contracts/USDT.sol\":13743:13758  balances[owner] */\n      dup2\n      mstore\n        /* \"contracts/USDT.sol\":13743:13751  balances */\n      0x2\n        /* \"contracts/USDT.sol\":13743:13758  balances[owner] */\n      0x20\n      mstore\n      0x40\n      swap1\n      dup2\n      swap1\n      keccak256\n        /* \"contracts/USDT.sol\":13743:13768  balances[owner] -= amount */\n      dup1\n      sload\n      dup4\n      swap1\n      sub\n      swap1\n      sstore\n        /* \"contracts/USDT.sol\":13778:13792  Redeem(amount) */\n      0x702d5967f45f6513a38ffc42d6ba9bf230bd40e8f53b16363c7eb4fd2deb9a44\n      swap1\n        /* \"contracts/USDT.sol\":13727:13733  amount */\n      dup3\n      swap1\n        /* \"contracts/USDT.sol\":13778:13792  Redeem(amount) */\n      mload\n      swap1\n      dup2\n      mstore\n      0x20\n      add\n      mload(0x40)\n      dup1\n      swap2\n      sub\n      swap1\n      log1\n        /* \"contracts/USDT.sol\":13569:13799  function redeem(uint amount) public onlyOwner {... */\n      pop\n      jump\t// out\n        /* \"contracts/USDT.sol\":12126:12413  function allowance(address _owner, address _spender) public constant returns (uint remaining) {... */\n    tag_119:\n        /* \"contracts/USDT.sol\":12234:12244  deprecated */\n      sload(0xa)\n        /* \"contracts/USDT.sol\":12204:12218  uint remaining */\n      0x0\n      swap1\n      exp(0x2, 0xa0)\n        /* \"contracts/USDT.sol\":12234:12244  deprecated */\n      swap1\n      div\n      0xff\n      and\n        /* \"contracts/USDT.sol\":12230:12407  if (deprecated) {... */\n      iszero\n      tag_221\n      jumpi\n        /* \"contracts/USDT.sol\":12281:12296  upgradedAddress */\n      and(sub(exp(0x2, 0xa0), 0x1), sload(0xa))\n        /* \"contracts/USDT.sol\":12267:12307  StandardToken(upgradedAddress).allowance */\n      0xdd62ed3e\n        /* \"contracts/USDT.sol\":12308:12314  _owner */\n      dup5\n        /* \"contracts/USDT.sol\":12316:12324  _spender */\n      dup5\n        /* \"contracts/USDT.sol\":12281:12296  upgradedAddress */\n      0x0\n        /* \"contracts/USDT.sol\":12267:12325  StandardToken(upgradedAddress).allowance(_owner, _spender) */\n      add(0x20, mload(0x40))\n      mstore\n      mload(0x40)\n      exp(0x2, 0xe0)\n      0xffffffff\n      dup6\n      and\n      mul\n      dup2\n      mstore\n      sub(exp(0x2, 0xa0), 0x1)\n      swap3\n      dup4\n      and\n      0x4\n      dup3\n      add\n      mstore\n      swap2\n      and\n      0x24\n      dup3\n      add\n      mstore\n      0x44\n      add\n      0x20\n      mload(0x40)\n      dup1\n      dup4\n      sub\n      dup2\n      0x0\n      dup8\n      dup1\n      extcodesize\n      iszero\n      iszero\n      tag_222\n      jumpi\n      0x0\n      dup1\n      revert\n    tag_222:\n      sub(gas, 0x2c6)\n      call\n      iszero\n      iszero\n      tag_223\n      jumpi\n      0x0\n      dup1\n      revert\n    tag_223:\n      pop\n      pop\n      pop\n      mload(0x40)\n      dup1\n      mload\n      swap1\n      pop\n        /* \"contracts/USDT.sol\":12260:12325  return StandardToken(upgradedAddress).allowance(_owner, _spender) */\n      swap1\n      pop\n      jump(tag_224)\n        /* \"contracts/USDT.sol\":12230:12407  if (deprecated) {... */\n    tag_221:\n        /* \"contracts/USDT.sol\":12363:12396  super.allowance(_owner, _spender) */\n      tag_225\n        /* \"contracts/USDT.sol\":12379:12385  _owner */\n      dup4\n        /* \"contracts/USDT.sol\":12387:12395  _spender */\n      dup4\n        /* \"contracts/USDT.sol\":12363:12378  super.allowance */\n      tag_226\n        /* \"contracts/USDT.sol\":12363:12396  super.allowance(_owner, _spender) */\n      jump\t// in\n    tag_225:\n        /* \"contracts/USDT.sol\":12356:12396  return super.allowance(_owner, _spender) */\n      swap1\n      pop\n        /* \"contracts/USDT.sol\":12230:12407  if (deprecated) {... */\n    tag_224:\n        /* \"contracts/USDT.sol\":12126:12413  function allowance(address _owner, address _spender) public constant returns (uint remaining) {... */\n      swap3\n      swap2\n      pop\n      pop\n      jump\t// out\n        /* \"contracts/USDT.sol\":3041:3072  uint public basisPointsRate = 0 */\n    tag_122:\n      sload(0x3)\n      dup2\n      jump\t// out\n        /* \"contracts/USDT.sol\":8448:8494  mapping (address => bool) public isBlackListed */\n    tag_125:\n      mstore(0x20, 0x6)\n      0x0\n      swap1\n      dup2\n      mstore\n      0x40\n      swap1\n      keccak256\n      sload\n      0xff\n      and\n      dup2\n      jump\t// out\n        /* \"contracts/USDT.sol\":8649:8806  function removeBlackList (address _clearedUser) public onlyOwner {... */\n    tag_128:\n        /* \"contracts/USDT.sol\":1546:1551  owner */\n      sload(0x0)\n        /* \"contracts/USDT.sol\":1532:1542  msg.sender */\n      caller\n      sub(exp(0x2, 0xa0), 0x1)\n        /* \"contracts/USDT.sol\":1532:1551  msg.sender == owner */\n      swap1\n      dup2\n      and\n        /* \"contracts/USDT.sol\":1546:1551  owner */\n      swap2\n      and\n        /* \"contracts/USDT.sol\":1532:1551  msg.sender == owner */\n      eq\n        /* \"contracts/USDT.sol\":1524:1552  require(msg.sender == owner) */\n      tag_228\n      jumpi\n      0x0\n      dup1\n      revert\n    tag_228:\n      sub(exp(0x2, 0xa0), 0x1)\n        /* \"contracts/USDT.sol\":8724:8751  isBlackListed[_clearedUser] */\n      dup2\n      and\n        /* \"contracts/USDT.sol\":8754:8759  false */\n      0x0\n        /* \"contracts/USDT.sol\":8724:8751  isBlackListed[_clearedUser] */\n      swap1\n      dup2\n      mstore\n        /* \"contracts/USDT.sol\":8724:8737  isBlackListed */\n      0x6\n        /* \"contracts/USDT.sol\":8724:8751  isBlackListed[_clearedUser] */\n      0x20\n      mstore\n      0x40\n      swap1\n      dup2\n      swap1\n      keccak256\n        /* \"contracts/USDT.sol\":8724:8759  isBlackListed[_clearedUser] = false */\n      dup1\n      sload\n      not(0xff)\n      and\n      swap1\n      sstore\n        /* \"contracts/USDT.sol\":8769:8799  RemovedBlackList(_clearedUser) */\n      0xd7e9ec6e6ecd65492dce6bf513cd6867560d49544421d0783ddf06e76c24470c\n      swap1\n        /* \"contracts/USDT.sol\":8738:8750  _clearedUser */\n      dup3\n      swap1\n        /* \"contracts/USDT.sol\":8769:8799  RemovedBlackList(_clearedUser) */\n      mload\n      sub(exp(0x2, 0xa0), 0x1)\n      swap1\n      swap2\n      and\n      dup2\n      mstore\n      0x20\n      add\n      mload(0x40)\n      dup1\n      swap2\n      sub\n      swap1\n      log1\n        /* \"contracts/USDT.sol\":8649:8806  function removeBlackList (address _clearedUser) public onlyOwner {... */\n      pop\n      jump\t// out\n        /* \"contracts/USDT.sol\":4720:4762  uint public constant MAX_UINT = 2**256 - 1 */\n    tag_131:\n      not(0x0)\n      dup2\n      jump\t// out\n        /* \"contracts/USDT.sol\":1738:1885  function transferOwnership(address newOwner) public onlyOwner {... */\n    tag_134:\n        /* \"contracts/USDT.sol\":1546:1551  owner */\n      sload(0x0)\n        /* \"contracts/USDT.sol\":1532:1542  msg.sender */\n      caller\n      sub(exp(0x2, 0xa0), 0x1)\n        /* \"contracts/USDT.sol\":1532:1551  msg.sender == owner */\n      swap1\n      dup2\n      and\n        /* \"contracts/USDT.sol\":1546:1551  owner */\n      swap2\n      and\n        /* \"contracts/USDT.sol\":1532:1551  msg.sender == owner */\n      eq\n        /* \"contracts/USDT.sol\":1524:1552  require(msg.sender == owner) */\n      tag_231\n      jumpi\n      0x0\n      dup1\n      revert\n    tag_231:\n      sub(exp(0x2, 0xa0), 0x1)\n        /* \"contracts/USDT.sol\":1814:1836  newOwner != address(0) */\n      dup2\n      and\n      iszero\n        /* \"contracts/USDT.sol\":1810:1879  if (newOwner != address(0)) {... */\n      tag_233\n      jumpi\n        /* \"contracts/USDT.sol\":1852:1857  owner */\n      0x0\n        /* \"contracts/USDT.sol\":1852:1868  owner = newOwner */\n      dup1\n      sload\n      not(0xffffffffffffffffffffffffffffffffffffffff)\n      and\n      sub(exp(0x2, 0xa0), 0x1)\n      dup4\n      and\n      or\n      swap1\n      sstore\n        /* \"contracts/USDT.sol\":1810:1879  if (newOwner != address(0)) {... */\n    tag_233:\n        /* \"contracts/USDT.sol\":1738:1885  function transferOwnership(address newOwner) public onlyOwner {... */\n      pop\n      jump\t// out\n        /* \"contracts/USDT.sol\":8812:9130  function destroyBlackFunds (address _blackListedUser) public onlyOwner {... */\n    tag_137:\n        /* \"contracts/USDT.sol\":8943:8958  uint dirtyFunds */\n      0x0\n        /* \"contracts/USDT.sol\":1546:1551  owner */\n      dup1\n      sload\n        /* \"contracts/USDT.sol\":1532:1542  msg.sender */\n      caller\n      sub(exp(0x2, 0xa0), 0x1)\n        /* \"contracts/USDT.sol\":1532:1551  msg.sender == owner */\n      swap1\n      dup2\n      and\n        /* \"contracts/USDT.sol\":1546:1551  owner */\n      swap2\n      and\n        /* \"contracts/USDT.sol\":1532:1551  msg.sender == owner */\n      eq\n        /* \"contracts/USDT.sol\":1524:1552  require(msg.sender == owner) */\n      tag_235\n      jumpi\n      0x0\n      dup1\n      revert\n    tag_235:\n      sub(exp(0x2, 0xa0), 0x1)\n        /* \"contracts/USDT.sol\":8901:8932  isBlackListed[_blackListedUser] */\n      dup3\n      and\n      0x0\n      swap1\n      dup2\n      mstore\n        /* \"contracts/USDT.sol\":8901:8914  isBlackListed */\n      0x6\n        /* \"contracts/USDT.sol\":8901:8932  isBlackListed[_blackListedUser] */\n      0x20\n      mstore\n      0x40\n      swap1\n      keccak256\n      sload\n      0xff\n      and\n        /* \"contracts/USDT.sol\":8893:8933  require(isBlackListed[_blackListedUser]) */\n      iszero\n      iszero\n      tag_237\n      jumpi\n      0x0\n      dup1\n      revert\n    tag_237:\n        /* \"contracts/USDT.sol\":8961:8988  balanceOf(_blackListedUser) */\n      tag_238\n        /* \"contracts/USDT.sol\":8971:8987  _blackListedUser */\n      dup3\n        /* \"contracts/USDT.sol\":8961:8970  balanceOf */\n      tag_88\n        /* \"contracts/USDT.sol\":8961:8988  balanceOf(_blackListedUser) */\n      jump\t// in\n    tag_238:\n      sub(exp(0x2, 0xa0), 0x1)\n        /* \"contracts/USDT.sol\":8998:9024  balances[_blackListedUser] */\n      dup4\n      and\n        /* \"contracts/USDT.sol\":9027:9028  0 */\n      0x0\n        /* \"contracts/USDT.sol\":8998:9024  balances[_blackListedUser] */\n      swap1\n      dup2\n      mstore\n        /* \"contracts/USDT.sol\":8998:9006  balances */\n      0x2\n        /* \"contracts/USDT.sol\":8998:9024  balances[_blackListedUser] */\n      0x20\n      mstore\n      0x40\n      dup1\n      dup3\n      keccak256\n        /* \"contracts/USDT.sol\":8998:9028  balances[_blackListedUser] = 0 */\n      swap2\n      swap1\n      swap2\n      sstore\n        /* \"contracts/USDT.sol\":9038:9050  _totalSupply */\n      0x1\n        /* \"contracts/USDT.sol\":9038:9064  _totalSupply -= dirtyFunds */\n      dup1\n      sload\n      dup4\n      swap1\n      sub\n      swap1\n      sstore\n        /* \"contracts/USDT.sol\":8943:8988  uint dirtyFunds = balanceOf(_blackListedUser) */\n      swap1\n      swap2\n      pop\n        /* \"contracts/USDT.sol\":9074:9123  DestroyedBlackFunds(_blackListedUser, dirtyFunds) */\n      0x61e6e66b0d6339b2980aecc6ccc0039736791f0ccde9ed512e789a7fbdd698c6\n      swap1\n        /* \"contracts/USDT.sol\":9007:9023  _blackListedUser */\n      dup4\n      swap1\n        /* \"contracts/USDT.sol\":8943:8988  uint dirtyFunds = balanceOf(_blackListedUser) */\n      dup4\n      swap1\n        /* \"contracts/USDT.sol\":9074:9123  DestroyedBlackFunds(_blackListedUser, dirtyFunds) */\n      mload\n      sub(exp(0x2, 0xa0), 0x1)\n      swap1\n      swap3\n      and\n      dup3\n      mstore\n      0x20\n      dup3\n      add\n      mstore\n      0x40\n      swap1\n      dup2\n      add\n      swap1\n      mload\n      dup1\n      swap2\n      sub\n      swap1\n      log1\n        /* \"contracts/USDT.sol\":8812:9130  function destroyBlackFunds (address _blackListedUser) public onlyOwner {... */\n      pop\n      pop\n      jump\t// out\n        /* \"contracts/USDT.sol\":6164:6727  function approve(address _spender, uint _value) public onlyPayloadSize(2 * 32) {... */\n    tag_152:\n        /* \"contracts/USDT.sol\":6235:6241  2 * 32 */\n      0x40\n        /* \"contracts/USDT.sol\":3251:3259  size + 4 */\n      0x44\n        /* \"contracts/USDT.sol\":3233:3241  msg.data */\n      calldatasize\n        /* \"contracts/USDT.sol\":3233:3259  msg.data.length < size + 4 */\n      lt\n        /* \"contracts/USDT.sol\":3231:3260  !(msg.data.length < size + 4) */\n      iszero\n        /* \"contracts/USDT.sol\":3223:3261  require(!(msg.data.length < size + 4)) */\n      tag_240\n      jumpi\n      0x0\n      dup1\n      revert\n    tag_240:\n        /* \"contracts/USDT.sol\":6569:6580  _value != 0 */\n      dup2\n      iszero\n      dup1\n      iszero\n      swap1\n        /* \"contracts/USDT.sol\":6568:6621  (_value != 0) && (allowed[msg.sender][_spender] != 0) */\n      tag_242\n      jumpi\n      pop\n      sub(exp(0x2, 0xa0), 0x1)\n        /* \"contracts/USDT.sol\":6594:6604  msg.sender */\n      caller\n        /* \"contracts/USDT.sol\":6586:6605  allowed[msg.sender] */\n      dup2\n      and\n      0x0\n      swap1\n      dup2\n      mstore\n        /* \"contracts/USDT.sol\":6586:6593  allowed */\n      0x5\n        /* \"contracts/USDT.sol\":6586:6605  allowed[msg.sender] */\n      0x20\n      swap1\n      dup2\n      mstore\n      0x40\n      dup1\n      dup4\n      keccak256\n        /* \"contracts/USDT.sol\":6586:6615  allowed[msg.sender][_spender] */\n      swap4\n      dup8\n      and\n      dup4\n      mstore\n      swap3\n      swap1\n      mstore\n      keccak256\n      sload\n        /* \"contracts/USDT.sol\":6586:6620  allowed[msg.sender][_spender] != 0 */\n      iszero\n      iszero\n        /* \"contracts/USDT.sol\":6568:6621  (_value != 0) && (allowed[msg.sender][_spender] != 0) */\n    tag_242:\n        /* \"contracts/USDT.sol\":6566:6622  !((_value != 0) && (allowed[msg.sender][_spender] != 0)) */\n      iszero\n        /* \"contracts/USDT.sol\":6558:6623  require(!((_value != 0) && (allowed[msg.sender][_spender] != 0))) */\n      tag_243\n      jumpi\n      0x0\n      dup1\n      revert\n    tag_243:\n      sub(exp(0x2, 0xa0), 0x1)\n        /* \"contracts/USDT.sol\":6642:6652  msg.sender */\n      caller\n        /* \"contracts/USDT.sol\":6634:6653  allowed[msg.sender] */\n      dup2\n      and\n      0x0\n      dup2\n      dup2\n      mstore\n        /* \"contracts/USDT.sol\":6634:6641  allowed */\n      0x5\n        /* \"contracts/USDT.sol\":6634:6653  allowed[msg.sender] */\n      0x20\n      swap1\n      dup2\n      mstore\n      0x40\n      dup1\n      dup4\n      keccak256\n        /* \"contracts/USDT.sol\":6634:6663  allowed[msg.sender][_spender] */\n      swap5\n      dup9\n      and\n      dup1\n      dup5\n      mstore\n      swap5\n      swap1\n      swap2\n      mstore\n      swap1\n      dup2\n      swap1\n      keccak256\n        /* \"contracts/USDT.sol\":6634:6672  allowed[msg.sender][_spender] = _value */\n      dup6\n      swap1\n      sstore\n        /* \"contracts/USDT.sol\":6682:6720  Approval(msg.sender, _spender, _value) */\n      0x8c5be1e5ebec7d5bd14f71427d1e84f3dd0314c0f7b2291e5b200ac8c7c3b925\n      swap1\n        /* \"contracts/USDT.sol\":6666:6672  _value */\n      dup6\n      swap1\n        /* \"contracts/USDT.sol\":6682:6720  Approval(msg.sender, _spender, _value) */\n      mload\n      swap1\n      dup2\n      mstore\n      0x20\n      add\n      mload(0x40)\n      dup1\n      swap2\n      sub\n      swap1\n      log3\n        /* \"contracts/USDT.sol\":6164:6727  function approve(address _spender, uint _value) public onlyPayloadSize(2 * 32) {... */\n      pop\n      pop\n      pop\n      jump\t// out\n        /* \"contracts/USDT.sol\":5044:5924  function transferFrom(address _from, address _to, uint _value) public onlyPayloadSize(3 * 32) {... */\n    tag_170:\n        /* \"contracts/USDT.sol\":5148:5162  var _allowance */\n      0x0\n      dup1\n      dup1\n        /* \"contracts/USDT.sol\":5130:5136  3 * 32 */\n      0x60\n        /* \"contracts/USDT.sol\":3251:3259  size + 4 */\n      0x64\n        /* \"contracts/USDT.sol\":3233:3241  msg.data */\n      calldatasize\n        /* \"contracts/USDT.sol\":3233:3259  msg.data.length < size + 4 */\n      lt\n        /* \"contracts/USDT.sol\":3231:3260  !(msg.data.length < size + 4) */\n      iszero\n        /* \"contracts/USDT.sol\":3223:3261  require(!(msg.data.length < size + 4)) */\n      tag_245\n      jumpi\n      0x0\n      dup1\n      revert\n    tag_245:\n      sub(exp(0x2, 0xa0), 0x1)\n        /* \"contracts/USDT.sol\":5165:5179  allowed[_from] */\n      dup1\n      dup9\n      and\n      0x0\n      swap1\n      dup2\n      mstore\n        /* \"contracts/USDT.sol\":5165:5172  allowed */\n      0x5\n        /* \"contracts/USDT.sol\":5165:5179  allowed[_from] */\n      0x20\n      swap1\n      dup2\n      mstore\n      0x40\n      dup1\n      dup4\n      keccak256\n        /* \"contracts/USDT.sol\":5180:5190  msg.sender */\n      caller\n        /* \"contracts/USDT.sol\":5165:5191  allowed[_from][msg.sender] */\n      swap1\n      swap5\n      and\n      dup4\n      mstore\n      swap3\n      swap1\n      mstore\n      keccak256\n      sload\n        /* \"contracts/USDT.sol\":5380:5395  basisPointsRate */\n      sload(0x3)\n        /* \"contracts/USDT.sol\":5165:5191  allowed[_from][msg.sender] */\n      swap1\n      swap5\n      pop\n        /* \"contracts/USDT.sol\":5368:5408  (_value.mul(basisPointsRate)).div(10000) */\n      tag_247\n      swap1\n        /* \"contracts/USDT.sol\":5402:5407  10000 */\n      0x2710\n      swap1\n        /* \"contracts/USDT.sol\":5369:5396  _value.mul(basisPointsRate) */\n      tag_248\n      swap1\n        /* \"contracts/USDT.sol\":5369:5375  _value */\n      dup9\n      swap1\n        /* \"contracts/USDT.sol\":5369:5396  _value.mul(basisPointsRate) */\n      0xffffffff\n        /* \"contracts/USDT.sol\":5369:5379  _value.mul */\n      tag_209\n        /* \"contracts/USDT.sol\":5369:5396  _value.mul(basisPointsRate) */\n      and\n      jump\t// in\n    tag_248:\n        /* \"contracts/USDT.sol\":5368:5401  (_value.mul(basisPointsRate)).div */\n      swap1\n        /* \"contracts/USDT.sol\":5368:5408  (_value.mul(basisPointsRate)).div(10000) */\n      0xffffffff\n        /* \"contracts/USDT.sol\":5368:5401  (_value.mul(basisPointsRate)).div */\n      tag_249\n        /* \"contracts/USDT.sol\":5368:5408  (_value.mul(basisPointsRate)).div(10000) */\n      and\n      jump\t// in\n    tag_247:\n        /* \"contracts/USDT.sol\":5357:5408  uint fee = (_value.mul(basisPointsRate)).div(10000) */\n      swap3\n      pop\n        /* \"contracts/USDT.sol\":5428:5438  maximumFee */\n      sload(0x4)\n        /* \"contracts/USDT.sol\":5422:5425  fee */\n      dup4\n        /* \"contracts/USDT.sol\":5422:5438  fee > maximumFee */\n      gt\n        /* \"contracts/USDT.sol\":5418:5481  if (fee > maximumFee) {... */\n      iszero\n      tag_250\n      jumpi\n        /* \"contracts/USDT.sol\":5460:5470  maximumFee */\n      sload(0x4)\n        /* \"contracts/USDT.sol\":5454:5470  fee = maximumFee */\n      swap3\n      pop\n        /* \"contracts/USDT.sol\":5418:5481  if (fee > maximumFee) {... */\n    tag_250:\n      not(0x0)\n        /* \"contracts/USDT.sol\":5494:5504  _allowance */\n      dup5\n        /* \"contracts/USDT.sol\":5494:5515  _allowance < MAX_UINT */\n      lt\n        /* \"contracts/USDT.sol\":5490:5593  if (_allowance < MAX_UINT) {... */\n      iszero\n      tag_251\n      jumpi\n        /* \"contracts/USDT.sol\":5560:5582  _allowance.sub(_value) */\n      tag_252\n        /* \"contracts/USDT.sol\":5560:5570  _allowance */\n      dup5\n        /* \"contracts/USDT.sol\":5575:5581  _value */\n      dup7\n        /* \"contracts/USDT.sol\":5560:5582  _allowance.sub(_value) */\n      0xffffffff\n        /* \"contracts/USDT.sol\":5560:5574  _allowance.sub */\n      tag_253\n        /* \"contracts/USDT.sol\":5560:5582  _allowance.sub(_value) */\n      and\n      jump\t// in\n    tag_252:\n      sub(exp(0x2, 0xa0), 0x1)\n        /* \"contracts/USDT.sol\":5531:5545  allowed[_from] */\n      dup1\n      dup10\n      and\n      0x0\n      swap1\n      dup2\n      mstore\n        /* \"contracts/USDT.sol\":5531:5538  allowed */\n      0x5\n        /* \"contracts/USDT.sol\":5531:5545  allowed[_from] */\n      0x20\n      swap1\n      dup2\n      mstore\n      0x40\n      dup1\n      dup4\n      keccak256\n        /* \"contracts/USDT.sol\":5546:5556  msg.sender */\n      caller\n        /* \"contracts/USDT.sol\":5531:5557  allowed[_from][msg.sender] */\n      swap1\n      swap5\n      and\n      dup4\n      mstore\n      swap3\n      swap1\n      mstore\n      keccak256\n        /* \"contracts/USDT.sol\":5531:5582  allowed[_from][msg.sender] = _allowance.sub(_value) */\n      sstore\n        /* \"contracts/USDT.sol\":5490:5593  if (_allowance < MAX_UINT) {... */\n    tag_251:\n        /* \"contracts/USDT.sol\":5620:5635  _value.sub(fee) */\n      tag_254\n        /* \"contracts/USDT.sol\":5620:5626  _value */\n      dup6\n        /* \"contracts/USDT.sol\":5631:5634  fee */\n      dup5\n        /* \"contracts/USDT.sol\":5620:5635  _value.sub(fee) */\n      0xffffffff\n        /* \"contracts/USDT.sol\":5620:5630  _value.sub */\n      tag_253\n        /* \"contracts/USDT.sol\":5620:5635  _value.sub(fee) */\n      and\n      jump\t// in\n    tag_254:\n      sub(exp(0x2, 0xa0), 0x1)\n        /* \"contracts/USDT.sol\":5663:5678  balances[_from] */\n      dup9\n      and\n      0x0\n      swap1\n      dup2\n      mstore\n        /* \"contracts/USDT.sol\":5663:5671  balances */\n      0x2\n        /* \"contracts/USDT.sol\":5663:5678  balances[_from] */\n      0x20\n      mstore\n      0x40\n      swap1\n      keccak256\n      sload\n        /* \"contracts/USDT.sol\":5602:5635  uint sendAmount = _value.sub(fee) */\n      swap1\n      swap3\n      pop\n        /* \"contracts/USDT.sol\":5663:5690  balances[_from].sub(_value) */\n      tag_255\n      swap1\n        /* \"contracts/USDT.sol\":5683:5689  _value */\n      dup7\n        /* \"contracts/USDT.sol\":5663:5690  balances[_from].sub(_value) */\n      0xffffffff\n        /* \"contracts/USDT.sol\":5663:5682  balances[_from].sub */\n      tag_253\n        /* \"contracts/USDT.sol\":5663:5690  balances[_from].sub(_value) */\n      and\n      jump\t// in\n    tag_255:\n      sub(exp(0x2, 0xa0), 0x1)\n        /* \"contracts/USDT.sol\":5645:5660  balances[_from] */\n      dup1\n      dup10\n      and\n      0x0\n      swap1\n      dup2\n      mstore\n        /* \"contracts/USDT.sol\":5645:5653  balances */\n      0x2\n        /* \"contracts/USDT.sol\":5645:5660  balances[_from] */\n      0x20\n      mstore\n      0x40\n      dup1\n      dup3\n      keccak256\n        /* \"contracts/USDT.sol\":5645:5690  balances[_from] = balances[_from].sub(_value) */\n      swap4\n      swap1\n      swap4\n      sstore\n        /* \"contracts/USDT.sol\":5716:5729  balances[_to] */\n      swap1\n      dup9\n      and\n      dup2\n      mstore\n      keccak256\n      sload\n        /* \"contracts/USDT.sol\":5716:5745  balances[_to].add(sendAmount) */\n      tag_256\n      swap1\n        /* \"contracts/USDT.sol\":5734:5744  sendAmount */\n      dup4\n        /* \"contracts/USDT.sol\":5716:5745  balances[_to].add(sendAmount) */\n      0xffffffff\n        /* \"contracts/USDT.sol\":5716:5733  balances[_to].add */\n      tag_257\n        /* \"contracts/USDT.sol\":5716:5745  balances[_to].add(sendAmount) */\n      and\n      jump\t// in\n    tag_256:\n      sub(exp(0x2, 0xa0), 0x1)\n        /* \"contracts/USDT.sol\":5700:5713  balances[_to] */\n      dup8\n      and\n      0x0\n      swap1\n      dup2\n      mstore\n        /* \"contracts/USDT.sol\":5700:5708  balances */\n      0x2\n        /* \"contracts/USDT.sol\":5700:5713  balances[_to] */\n      0x20\n      mstore\n      0x40\n      dup2\n      keccak256\n        /* \"contracts/USDT.sol\":5700:5745  balances[_to] = balances[_to].add(sendAmount) */\n      swap2\n      swap1\n      swap2\n      sstore\n        /* \"contracts/USDT.sol\":5759:5766  fee > 0 */\n      dup4\n      gt\n        /* \"contracts/USDT.sol\":5755:5876  if (fee > 0) {... */\n      iszero\n      tag_258\n      jumpi\n        /* \"contracts/USDT.sol\":5800:5815  balances[owner] */\n      0x0\n        /* \"contracts/USDT.sol\":5809:5814  owner */\n      dup1\n      sload\n      sub(exp(0x2, 0xa0), 0x1)\n      and\n        /* \"contracts/USDT.sol\":5800:5815  balances[owner] */\n      dup2\n      mstore\n        /* \"contracts/USDT.sol\":5800:5808  balances */\n      0x2\n        /* \"contracts/USDT.sol\":5800:5815  balances[owner] */\n      0x20\n      mstore\n      0x40\n      swap1\n      keccak256\n      sload\n        /* \"contracts/USDT.sol\":5800:5824  balances[owner].add(fee) */\n      tag_259\n      swap1\n        /* \"contracts/USDT.sol\":5820:5823  fee */\n      dup5\n        /* \"contracts/USDT.sol\":5800:5824  balances[owner].add(fee) */\n      0xffffffff\n        /* \"contracts/USDT.sol\":5800:5819  balances[owner].add */\n      tag_257\n        /* \"contracts/USDT.sol\":5800:5824  balances[owner].add(fee) */\n      and\n      jump\t// in\n    tag_259:\n        /* \"contracts/USDT.sol\":5782:5797  balances[owner] */\n      0x0\n        /* \"contracts/USDT.sol\":5791:5796  owner */\n      dup1\n      sload\n      sub(exp(0x2, 0xa0), 0x1)\n      swap1\n      dup2\n      and\n        /* \"contracts/USDT.sol\":5782:5797  balances[owner] */\n      dup3\n      mstore\n        /* \"contracts/USDT.sol\":5782:5790  balances */\n      0x2\n        /* \"contracts/USDT.sol\":5782:5797  balances[owner] */\n      0x20\n      mstore\n      0x40\n      dup1\n      dup4\n      keccak256\n        /* \"contracts/USDT.sol\":5782:5824  balances[owner] = balances[owner].add(fee) */\n      swap4\n      swap1\n      swap4\n      sstore\n        /* \"contracts/USDT.sol\":5854:5859  owner */\n      swap1\n      sload\n      dup2\n      and\n      swap2\n        /* \"contracts/USDT.sol\":5838:5865  Transfer(_from, owner, fee) */\n      swap1\n      dup10\n      and\n      swap1\n      0x0\n      dup1\n      mload\n      0x20\n      data_ada389e1fc24a8587c776340efb91b36e675792ab631816100d55df0b5cf3cbc\n      dup4\n      codecopy\n      dup2\n      mload\n      swap2\n      mstore\n      swap1\n        /* \"contracts/USDT.sol\":5861:5864  fee */\n      dup7\n      swap1\n        /* \"contracts/USDT.sol\":5838:5865  Transfer(_from, owner, fee) */\n      mload\n      swap1\n      dup2\n      mstore\n      0x20\n      add\n      mload(0x40)\n      dup1\n      swap2\n      sub\n      swap1\n      log3\n        /* \"contracts/USDT.sol\":5755:5876  if (fee > 0) {... */\n    tag_258:\n        /* \"contracts/USDT.sol\":5901:5904  _to */\n      dup6\n      sub(exp(0x2, 0xa0), 0x1)\n        /* \"contracts/USDT.sol\":5885:5917  Transfer(_from, _to, sendAmount) */\n      and\n        /* \"contracts/USDT.sol\":5894:5899  _from */\n      dup8\n      sub(exp(0x2, 0xa0), 0x1)\n        /* \"contracts/USDT.sol\":5885:5917  Transfer(_from, _to, sendAmount) */\n      and\n      0x0\n      dup1\n      mload\n      0x20\n      data_ada389e1fc24a8587c776340efb91b36e675792ab631816100d55df0b5cf3cbc\n      dup4\n      codecopy\n      dup2\n      mload\n      swap2\n      mstore\n        /* \"contracts/USDT.sol\":5906:5916  sendAmount */\n      dup5\n        /* \"contracts/USDT.sol\":5885:5917  Transfer(_from, _to, sendAmount) */\n      mload(0x40)\n      swap1\n      dup2\n      mstore\n      0x20\n      add\n      mload(0x40)\n      dup1\n      swap2\n      sub\n      swap1\n      log3\n        /* \"contracts/USDT.sol\":5044:5924  function transferFrom(address _from, address _to, uint _value) public onlyPayloadSize(3 * 32) {... */\n      pop\n      pop\n      pop\n      pop\n      pop\n      pop\n      pop\n      jump\t// out\n        /* \"contracts/USDT.sol\":4216:4330  function balanceOf(address _owner) public constant returns (uint balance) {... */\n    tag_183:\n      sub(exp(0x2, 0xa0), 0x1)\n        /* \"contracts/USDT.sol\":4307:4323  balances[_owner] */\n      and\n        /* \"contracts/USDT.sol\":4276:4288  uint balance */\n      0x0\n        /* \"contracts/USDT.sol\":4307:4323  balances[_owner] */\n      swap1\n      dup2\n      mstore\n        /* \"contracts/USDT.sol\":4307:4315  balances */\n      0x2\n        /* \"contracts/USDT.sol\":4307:4323  balances[_owner] */\n      0x20\n      mstore\n      0x40\n      swap1\n      keccak256\n      sload\n      swap1\n        /* \"contracts/USDT.sol\":4216:4330  function balanceOf(address _owner) public constant returns (uint balance) {... */\n      jump\t// out\n        /* \"contracts/USDT.sol\":3445:4005  function transfer(address _to, uint _value) public onlyPayloadSize(2 * 32) {... */\n    tag_202:\n        /* \"contracts/USDT.sol\":3530:3538  uint fee */\n      0x0\n      dup1\n        /* \"contracts/USDT.sol\":3512:3518  2 * 32 */\n      0x40\n        /* \"contracts/USDT.sol\":3251:3259  size + 4 */\n      0x44\n        /* \"contracts/USDT.sol\":3233:3241  msg.data */\n      calldatasize\n        /* \"contracts/USDT.sol\":3233:3259  msg.data.length < size + 4 */\n      lt\n        /* \"contracts/USDT.sol\":3231:3260  !(msg.data.length < size + 4) */\n      iszero\n        /* \"contracts/USDT.sol\":3223:3261  require(!(msg.data.length < size + 4)) */\n      tag_262\n      jumpi\n      0x0\n      dup1\n      revert\n    tag_262:\n        /* \"contracts/USDT.sol\":3541:3581  (_value.mul(basisPointsRate)).div(10000) */\n      tag_264\n        /* \"contracts/USDT.sol\":3575:3580  10000 */\n      0x2710\n        /* \"contracts/USDT.sol\":3542:3569  _value.mul(basisPointsRate) */\n      tag_248\n        /* \"contracts/USDT.sol\":3553:3568  basisPointsRate */\n      sload(0x3)\n        /* \"contracts/USDT.sol\":3542:3548  _value */\n      dup8\n        /* \"contracts/USDT.sol\":3542:3552  _value.mul */\n      tag_209\n      swap1\n        /* \"contracts/USDT.sol\":3542:3569  _value.mul(basisPointsRate) */\n      swap2\n      swap1\n      0xffffffff\n      and\n      jump\t// in\n        /* \"contracts/USDT.sol\":3541:3581  (_value.mul(basisPointsRate)).div(10000) */\n    tag_264:\n        /* \"contracts/USDT.sol\":3530:3581  uint fee = (_value.mul(basisPointsRate)).div(10000) */\n      swap3\n      pop\n        /* \"contracts/USDT.sol\":3601:3611  maximumFee */\n      sload(0x4)\n        /* \"contracts/USDT.sol\":3595:3598  fee */\n      dup4\n        /* \"contracts/USDT.sol\":3595:3611  fee > maximumFee */\n      gt\n        /* \"contracts/USDT.sol\":3591:3654  if (fee > maximumFee) {... */\n      iszero\n      tag_266\n      jumpi\n        /* \"contracts/USDT.sol\":3633:3643  maximumFee */\n      sload(0x4)\n        /* \"contracts/USDT.sol\":3627:3643  fee = maximumFee */\n      swap3\n      pop\n        /* \"contracts/USDT.sol\":3591:3654  if (fee > maximumFee) {... */\n    tag_266:\n        /* \"contracts/USDT.sol\":3681:3696  _value.sub(fee) */\n      tag_267\n        /* \"contracts/USDT.sol\":3681:3687  _value */\n      dup5\n        /* \"contracts/USDT.sol\":3692:3695  fee */\n      dup5\n        /* \"contracts/USDT.sol\":3681:3696  _value.sub(fee) */\n      0xffffffff\n        /* \"contracts/USDT.sol\":3681:3691  _value.sub */\n      tag_253\n        /* \"contracts/USDT.sol\":3681:3696  _value.sub(fee) */\n      and\n      jump\t// in\n    tag_267:\n      sub(exp(0x2, 0xa0), 0x1)\n        /* \"contracts/USDT.sol\":3738:3748  msg.sender */\n      caller\n        /* \"contracts/USDT.sol\":3729:3749  balances[msg.sender] */\n      and\n      0x0\n      swap1\n      dup2\n      mstore\n        /* \"contracts/USDT.sol\":3729:3737  balances */\n      0x2\n        /* \"contracts/USDT.sol\":3729:3749  balances[msg.sender] */\n      0x20\n      mstore\n      0x40\n      swap1\n      keccak256\n      sload\n        /* \"contracts/USDT.sol\":3663:3696  uint sendAmount = _value.sub(fee) */\n      swap1\n      swap3\n      pop\n        /* \"contracts/USDT.sol\":3729:3761  balances[msg.sender].sub(_value) */\n      tag_268\n      swap1\n        /* \"contracts/USDT.sol\":3754:3760  _value */\n      dup6\n        /* \"contracts/USDT.sol\":3729:3761  balances[msg.sender].sub(_value) */\n      0xffffffff\n        /* \"contracts/USDT.sol\":3729:3753  balances[msg.sender].sub */\n      tag_253\n        /* \"contracts/USDT.sol\":3729:3761  balances[msg.sender].sub(_value) */\n      and\n      jump\t// in\n    tag_268:\n      sub(exp(0x2, 0xa0), 0x1)\n        /* \"contracts/USDT.sol\":3715:3725  msg.sender */\n      caller\n        /* \"contracts/USDT.sol\":3706:3726  balances[msg.sender] */\n      dup2\n      and\n      0x0\n      swap1\n      dup2\n      mstore\n        /* \"contracts/USDT.sol\":3706:3714  balances */\n      0x2\n        /* \"contracts/USDT.sol\":3706:3726  balances[msg.sender] */\n      0x20\n      mstore\n      0x40\n      dup1\n      dup3\n      keccak256\n        /* \"contracts/USDT.sol\":3706:3761  balances[msg.sender] = balances[msg.sender].sub(_value) */\n      swap4\n      swap1\n      swap4\n      sstore\n        /* \"contracts/USDT.sol\":3787:3800  balances[_to] */\n      swap1\n      dup8\n      and\n      dup2\n      mstore\n      keccak256\n      sload\n        /* \"contracts/USDT.sol\":3787:3816  balances[_to].add(sendAmount) */\n      tag_269\n      swap1\n        /* \"contracts/USDT.sol\":3805:3815  sendAmount */\n      dup4\n        /* \"contracts/USDT.sol\":3787:3816  balances[_to].add(sendAmount) */\n      0xffffffff\n        /* \"contracts/USDT.sol\":3787:3804  balances[_to].add */\n      tag_257\n        /* \"contracts/USDT.sol\":3787:3816  balances[_to].add(sendAmount) */\n      and\n      jump\t// in\n    tag_269:\n      sub(exp(0x2, 0xa0), 0x1)\n        /* \"contracts/USDT.sol\":3771:3784  balances[_to] */\n      dup7\n      and\n      0x0\n      swap1\n      dup2\n      mstore\n        /* \"contracts/USDT.sol\":3771:3779  balances */\n      0x2\n        /* \"contracts/USDT.sol\":3771:3784  balances[_to] */\n      0x20\n      mstore\n      0x40\n      dup2\n      keccak256\n        /* \"contracts/USDT.sol\":3771:3816  balances[_to] = balances[_to].add(sendAmount) */\n      swap2\n      swap1\n      swap2\n      sstore\n        /* \"contracts/USDT.sol\":3830:3837  fee > 0 */\n      dup4\n      gt\n        /* \"contracts/USDT.sol\":3826:3952  if (fee > 0) {... */\n      iszero\n      tag_270\n      jumpi\n        /* \"contracts/USDT.sol\":3871:3886  balances[owner] */\n      0x0\n        /* \"contracts/USDT.sol\":3880:3885  owner */\n      dup1\n      sload\n      sub(exp(0x2, 0xa0), 0x1)\n      and\n        /* \"contracts/USDT.sol\":3871:3886  balances[owner] */\n      dup2\n      mstore\n        /* \"contracts/USDT.sol\":3871:3879  balances */\n      0x2\n        /* \"contracts/USDT.sol\":3871:3886  balances[owner] */\n      0x20\n      mstore\n      0x40\n      swap1\n      keccak256\n      sload\n        /* \"contracts/USDT.sol\":3871:3895  balances[owner].add(fee) */\n      tag_271\n      swap1\n        /* \"contracts/USDT.sol\":3891:3894  fee */\n      dup5\n        /* \"contracts/USDT.sol\":3871:3895  balances[owner].add(fee) */\n      0xffffffff\n        /* \"contracts/USDT.sol\":3871:3890  balances[owner].add */\n      tag_257\n        /* \"contracts/USDT.sol\":3871:3895  balances[owner].add(fee) */\n      and\n      jump\t// in\n    tag_271:\n        /* \"contracts/USDT.sol\":3853:3868  balances[owner] */\n      0x0\n        /* \"contracts/USDT.sol\":3862:3867  owner */\n      dup1\n      sload\n      sub(exp(0x2, 0xa0), 0x1)\n      swap1\n      dup2\n      and\n        /* \"contracts/USDT.sol\":3853:3868  balances[owner] */\n      dup3\n      mstore\n        /* \"contracts/USDT.sol\":3853:3861  balances */\n      0x2\n        /* \"contracts/USDT.sol\":3853:3868  balances[owner] */\n      0x20\n      mstore\n      0x40\n      dup1\n      dup4\n      keccak256\n        /* \"contracts/USDT.sol\":3853:3895  balances[owner] = balances[owner].add(fee) */\n      swap4\n      swap1\n      swap4\n      sstore\n        /* \"contracts/USDT.sol\":3930:3935  owner */\n      swap1\n      sload\n      dup2\n      and\n      swap2\n        /* \"contracts/USDT.sol\":3918:3928  msg.sender */\n      caller\n        /* \"contracts/USDT.sol\":3909:3941  Transfer(msg.sender, owner, fee) */\n      swap1\n      swap2\n      and\n      swap1\n      0x0\n      dup1\n      mload\n      0x20\n      data_ada389e1fc24a8587c776340efb91b36e675792ab631816100d55df0b5cf3cbc\n      dup4\n      codecopy\n      dup2\n      mload\n      swap2\n      mstore\n      swap1\n        /* \"contracts/USDT.sol\":3937:3940  fee */\n      dup7\n      swap1\n        /* \"contracts/USDT.sol\":3909:3941  Transfer(msg.sender, owner, fee) */\n      mload\n      swap1\n      dup2\n      mstore\n      0x20\n      add\n      mload(0x40)\n      dup1\n      swap2\n      sub\n      swap1\n      log3\n        /* \"contracts/USDT.sol\":3826:3952  if (fee > 0) {... */\n    tag_270:\n        /* \"contracts/USDT.sol\":3982:3985  _to */\n      dup5\n      sub(exp(0x2, 0xa0), 0x1)\n        /* \"contracts/USDT.sol\":3961:3998  Transfer(msg.sender, _to, sendAmount) */\n      and\n        /* \"contracts/USDT.sol\":3970:3980  msg.sender */\n      caller\n      sub(exp(0x2, 0xa0), 0x1)\n        /* \"contracts/USDT.sol\":3961:3998  Transfer(msg.sender, _to, sendAmount) */\n      and\n      0x0\n      dup1\n      mload\n      0x20\n      data_ada389e1fc24a8587c776340efb91b36e675792ab631816100d55df0b5cf3cbc\n      dup4\n      codecopy\n      dup2\n      mload\n      swap2\n      mstore\n        /* \"contracts/USDT.sol\":3987:3997  sendAmount */\n      dup5\n        /* \"contracts/USDT.sol\":3961:3998  Transfer(msg.sender, _to, sendAmount) */\n      mload(0x40)\n      swap1\n      dup2\n      mstore\n      0x20\n      add\n      mload(0x40)\n      dup1\n      swap2\n      sub\n      swap1\n      log3\n        /* \"contracts/USDT.sol\":3445:4005  function transfer(address _to, uint _value) public onlyPayloadSize(2 * 32) {... */\n      pop\n      pop\n      pop\n      pop\n      pop\n      jump\t// out\n        /* \"contracts/USDT.sol\":206:407  function mul(uint256 a, uint256 b) internal pure returns (uint256) {... */\n    tag_209:\n        /* \"contracts/USDT.sol\":264:271  uint256 */\n      0x0\n      dup1\n        /* \"contracts/USDT.sol\":287:293  a == 0 */\n      dup4\n      iszero\n        /* \"contracts/USDT.sol\":283:328  if (a == 0) {... */\n      iszero\n      tag_273\n      jumpi\n        /* \"contracts/USDT.sol\":316:317  0 */\n      0x0\n        /* \"contracts/USDT.sol\":309:317  return 0 */\n      swap2\n      pop\n      jump(tag_272)\n        /* \"contracts/USDT.sol\":283:328  if (a == 0) {... */\n    tag_273:\n      pop\n        /* \"contracts/USDT.sol\":349:354  a * b */\n      dup3\n      dup3\n      mul\n        /* \"contracts/USDT.sol\":353:354  b */\n      dup3\n        /* \"contracts/USDT.sol\":349:350  a */\n      dup5\n        /* \"contracts/USDT.sol\":349:354  a * b */\n      dup3\n        /* \"contracts/USDT.sol\":371:376  c / a */\n      dup2\n      iszero\n      iszero\n      tag_274\n      jumpi\n      invalid\n    tag_274:\n      div\n        /* \"contracts/USDT.sol\":371:381  c / a == b */\n      eq\n        /* \"contracts/USDT.sol\":364:382  assert(c / a == b) */\n      tag_275\n      jumpi\n      invalid\n    tag_275:\n        /* \"contracts/USDT.sol\":399:400  c */\n      dup1\n        /* \"contracts/USDT.sol\":392:400  return c */\n      swap2\n      pop\n        /* \"contracts/USDT.sol\":206:407  function mul(uint256 a, uint256 b) internal pure returns (uint256) {... */\n    tag_272:\n      pop\n      swap3\n      swap2\n      pop\n      pop\n      jump\t// out\n        /* \"contracts/USDT.sol\":7052:7195  function allowance(address _owner, address _spender) public constant returns (uint remaining) {... */\n    tag_226:\n      sub(exp(0x2, 0xa0), 0x1)\n        /* \"contracts/USDT.sol\":7163:7178  allowed[_owner] */\n      swap2\n      dup3\n      and\n        /* \"contracts/USDT.sol\":7130:7144  uint remaining */\n      0x0\n        /* \"contracts/USDT.sol\":7163:7178  allowed[_owner] */\n      swap1\n      dup2\n      mstore\n        /* \"contracts/USDT.sol\":7163:7170  allowed */\n      0x5\n        /* \"contracts/USDT.sol\":7163:7178  allowed[_owner] */\n      0x20\n      swap1\n      dup2\n      mstore\n      0x40\n      dup1\n      dup4\n      keccak256\n        /* \"contracts/USDT.sol\":7163:7188  allowed[_owner][_spender] */\n      swap4\n      swap1\n      swap5\n      and\n      dup3\n      mstore\n      swap2\n      swap1\n      swap2\n      mstore\n      keccak256\n      sload\n      swap1\n        /* \"contracts/USDT.sol\":7052:7195  function allowance(address _owner, address _spender) public constant returns (uint remaining) {... */\n      jump\t// out\n        /* \"contracts/USDT.sol\":413:696  function div(uint256 a, uint256 b) internal pure returns (uint256) {... */\n    tag_249:\n        /* \"contracts/USDT.sol\":471:478  uint256 */\n      0x0\n        /* \"contracts/USDT.sol\":568:577  uint256 c */\n      dup1\n        /* \"contracts/USDT.sol\":584:585  b */\n      dup3\n        /* \"contracts/USDT.sol\":580:581  a */\n      dup5\n        /* \"contracts/USDT.sol\":580:585  a / b */\n      dup2\n      iszero\n      iszero\n      tag_278\n      jumpi\n      invalid\n    tag_278:\n      div\n      swap5\n        /* \"contracts/USDT.sol\":413:696  function div(uint256 a, uint256 b) internal pure returns (uint256) {... */\n      swap4\n      pop\n      pop\n      pop\n      pop\n      jump\t// out\n        /* \"contracts/USDT.sol\":702:822  function sub(uint256 a, uint256 b) internal pure returns (uint256) {... */\n    tag_253:\n        /* \"contracts/USDT.sol\":760:767  uint256 */\n      0x0\n        /* \"contracts/USDT.sol\":786:792  b <= a */\n      dup3\n      dup3\n      gt\n      iszero\n        /* \"contracts/USDT.sol\":779:793  assert(b <= a) */\n      tag_280\n      jumpi\n      invalid\n    tag_280:\n      pop\n        /* \"contracts/USDT.sol\":810:815  a - b */\n      swap1\n      sub\n      swap1\n        /* \"contracts/USDT.sol\":702:822  function sub(uint256 a, uint256 b) internal pure returns (uint256) {... */\n      jump\t// out\n        /* \"contracts/USDT.sol\":828:971  function add(uint256 a, uint256 b) internal pure returns (uint256) {... */\n    tag_257:\n        /* \"contracts/USDT.sol\":886:893  uint256 */\n      0x0\n        /* \"contracts/USDT.sol\":917:922  a + b */\n      dup3\n      dup3\n      add\n        /* \"contracts/USDT.sol\":939:945  c >= a */\n      dup4\n      dup2\n      lt\n      iszero\n        /* \"contracts/USDT.sol\":932:946  assert(c >= a) */\n      tag_275\n      jumpi\n      invalid\n    stop\n    data_ada389e1fc24a8587c776340efb91b36e675792ab631816100d55df0b5cf3cbc ddf252ad1be2c89b69c2b068fc378daa952ba7f163c4a11628f55a4df523b3ef\n\n    auxdata: 0xa165627a7a7230582028b1e8400ebfd8d8a7bed6b0c0e44685879bee6d467af2f48b6a204974d354680029\n}\n",
    "bytecode": {
      "linkReferences": {},
      "object": "60606040526000805460a060020a60ff0219168155600381905560045534156200002857600080fd5b604051620017d5380380620017d5833981016040528080519190602001805182019190602001805182019190602001805160008054600160a060020a03191633600160a060020a0316179055600186905591506007905083805162000092929160200190620000dd565b506008828051620000a8929160200190620000dd565b50600955505060008054600160a060020a0316815260026020526040902055600a805460a060020a60ff021916905562000182565b828054600181600116156101000203166002900490600052602060002090601f016020900481019282601f106200012057805160ff191683800117855562000150565b8280016001018555821562000150579182015b828111156200015057825182559160200191906001019062000133565b506200015e92915062000162565b5090565b6200017f91905b808211156200015e576000815560010162000169565b90565b61164380620001926000396000f30060606040526004361061017c5763ffffffff60e060020a60003504166306fdde0381146101815780630753c30c1461020b578063095ea7b31461022c5780630e136b191461024e5780630ecb93c01461027557806318160ddd1461029457806323b872dd146102b957806326976e3f146102e157806327e235e314610310578063313ce5671461032f57806335390714146103425780633eaaf86b146103555780633f4ba83a1461036857806359bf1abe1461037b5780635c6581651461039a5780635c975abb146103bf57806370a08231146103d25780638456cb59146103f1578063893d20e8146104045780638da5cb5b1461041757806395d89b411461042a578063a9059cbb1461043d578063c0324c771461045f578063cc872b6614610478578063db006a751461048e578063dd62ed3e146104a4578063dd644f72146104c9578063e47d6060146104dc578063e4997dc5146104fb578063e5b5019a1461051a578063f2fde38b1461052d578063f3bdc2281461054c575b600080fd5b341561018c57600080fd5b61019461056b565b60405160208082528190810183818151815260200191508051906020019080838360005b838110156101d05780820151838201526020016101b8565b50505050905090810190601f1680156101fd5780820380516001836020036101000a031916815260200191505b509250505060405180910390f35b341561021657600080fd5b61022a600160a060020a0360043516610609565b005b341561023757600080fd5b61022a600160a060020a03600435166024356106ac565b341561025957600080fd5b610261610759565b604051901515815260200160405180910390f35b341561028057600080fd5b61022a600160a060020a0360043516610769565b341561029f57600080fd5b6102a76107e9565b60405190815260200160405180910390f35b34156102c457600080fd5b61022a600160a060020a0360043581169060243516604435610870565b34156102ec57600080fd5b6102f4610934565b604051600160a060020a03909116815260200160405180910390f35b341561031b57600080fd5b6102a7600160a060020a0360043516610943565b341561033a57600080fd5b6102a7610955565b341561034d57600080fd5b6102a761095b565b341561036057600080fd5b6102a7610961565b341561037357600080fd5b61022a610967565b341561038657600080fd5b610261600160a060020a03600435166109e6565b34156103a557600080fd5b6102a7600160a060020a0360043581169060243516610a08565b34156103ca57600080fd5b610261610a25565b34156103dd57600080fd5b6102a7600160a060020a0360043516610a35565b34156103fc57600080fd5b61022a610ad5565b341561040f57600080fd5b6102f4610b59565b341561042257600080fd5b6102f4610b68565b341561043557600080fd5b610194610b77565b341561044857600080fd5b61022a600160a060020a0360043516602435610be2565b341561046a57600080fd5b61022a600435602435610cbb565b341561048357600080fd5b61022a600435610d51565b341561049957600080fd5b61022a600435610e00565b34156104af57600080fd5b6102a7600160a060020a0360043581169060243516610eb1565b34156104d457600080fd5b6102a7610f5c565b34156104e757600080fd5b610261600160a060020a0360043516610f62565b341561050657600080fd5b61022a600160a060020a0360043516610f77565b341561052557600080fd5b6102a7610ff4565b341561053857600080fd5b61022a600160a060020a0360043516610ffa565b341561055757600080fd5b61022a600160a060020a0360043516611050565b60078054600181600116156101000203166002900480601f0160208091040260200160405190810160405280929190818152602001828054600181600116156101000203166002900480156106015780601f106105d657610100808354040283529160200191610601565b820191906000526020600020905b8154815290600101906020018083116105e457829003601f168201915b505050505081565b60005433600160a060020a0390811691161461062457600080fd5b600a805460a060020a74ff0000000000000000000000000000000000000000199091161773ffffffffffffffffffffffffffffffffffffffff1916600160a060020a0383161790557fcc358699805e9a8b7f77b522628c7cb9abd07d9efb86b6fb616af1609036a99e81604051600160a060020a03909116815260200160405180910390a150565b604060443610156106bc57600080fd5b600a5460a060020a900460ff161561074a57600a54600160a060020a031663aee92d3333858560405160e060020a63ffffffff8616028152600160a060020a0393841660048201529190921660248201526044810191909152606401600060405180830381600087803b151561073157600080fd5b6102c65a03f1151561074257600080fd5b505050610754565b610754838361110e565b505050565b600a5460a060020a900460ff1681565b60005433600160a060020a0390811691161461078457600080fd5b600160a060020a03811660009081526006602052604090819020805460ff191660011790557f42e160154868087d6bfdc0ca23d96a1c1cfa32f1b72ba9ba27b69b98a0d819dc90829051600160a060020a03909116815260200160405180910390a150565b600a5460009060a060020a900460ff161561086857600a54600160a060020a03166318160ddd6000604051602001526040518163ffffffff1660e060020a028152600401602060405180830381600087803b151561084657600080fd5b6102c65a03f1151561085757600080fd5b50505060405180519050905061086d565b506001545b90565b60005460a060020a900460ff161561088757600080fd5b600160a060020a03831660009081526006602052604090205460ff16156108ad57600080fd5b600a5460a060020a900460ff161561092957600a54600160a060020a0316638b477adb3385858560405160e060020a63ffffffff8716028152600160a060020a0394851660048201529284166024840152921660448201526064810191909152608401600060405180830381600087803b151561073157600080fd5b6107548383836111c0565b600a54600160a060020a031681565b60026020526000908152604090205481565b60095481565b60045481565b60015481565b60005433600160a060020a0390811691161461098257600080fd5b60005460a060020a900460ff16151561099a57600080fd5b6000805474ff0000000000000000000000000000000000000000191690557f7805862f689e2f13df9f062ff482ad3ad112aca9e0847911ed832e158c525b3360405160405180910390a1565b600160a060020a03811660009081526006602052604090205460ff165b919050565b600560209081526000928352604080842090915290825290205481565b60005460a060020a900460ff1681565b600a5460009060a060020a900460ff1615610ac557600a54600160a060020a03166370a082318360006040516020015260405160e060020a63ffffffff8416028152600160a060020a039091166004820152602401602060405180830381600087803b1515610aa357600080fd5b6102c65a03f11515610ab457600080fd5b505050604051805190509050610a03565b610ace826113bf565b9050610a03565b60005433600160a060020a03908116911614610af057600080fd5b60005460a060020a900460ff1615610b0757600080fd5b6000805474ff0000000000000000000000000000000000000000191660a060020a1790557f6985a02210a168e66602d3235cb6db0e70f92b3ba4d376a33c0f3d9434bff62560405160405180910390a1565b600054600160a060020a031690565b600054600160a060020a031681565b60088054600181600116156101000203166002900480601f0160208091040260200160405190810160405280929190818152602001828054600181600116156101000203166002900480156106015780601f106105d657610100808354040283529160200191610601565b60005460a060020a900460ff1615610bf957600080fd5b600160a060020a03331660009081526006602052604090205460ff1615610c1f57600080fd5b600a5460a060020a900460ff1615610cad57600a54600160a060020a0316636e18980a33848460405160e060020a63ffffffff8616028152600160a060020a0393841660048201529190921660248201526044810191909152606401600060405180830381600087803b1515610c9457600080fd5b6102c65a03f11515610ca557600080fd5b505050610cb7565b610cb782826113da565b5050565b60005433600160a060020a03908116911614610cd657600080fd5b60148210610ce357600080fd5b60328110610cf057600080fd5b6003829055600954610d0c908290600a0a63ffffffff61155e16565b60048190556003547fb044a1e409eac5c48e5af22d4af52670dd1a99059537a78b31b48c6500a6354e9160405191825260208201526040908101905180910390a15050565b60005433600160a060020a03908116911614610d6c57600080fd5b60015481810111610d7c57600080fd5b60008054600160a060020a031681526002602052604090205481810111610da257600080fd5b60008054600160a060020a03168152600260205260409081902080548301905560018054830190557fcb8241adb0c3fdb35b70c24ce35c5eb0c17af7431c99f827d44a445ca624176a9082905190815260200160405180910390a150565b60005433600160a060020a03908116911614610e1b57600080fd5b60015481901015610e2b57600080fd5b60008054600160a060020a031681526002602052604090205481901015610e5157600080fd5b60018054829003905560008054600160a060020a031681526002602052604090819020805483900390557f702d5967f45f6513a38ffc42d6ba9bf230bd40e8f53b16363c7eb4fd2deb9a449082905190815260200160405180910390a150565b600a5460009060a060020a900460ff1615610f4957600a54600160a060020a031663dd62ed3e848460006040516020015260405160e060020a63ffffffff8516028152600160a060020a03928316600482015291166024820152604401602060405180830381600087803b1515610f2757600080fd5b6102c65a03f11515610f3857600080fd5b505050604051805190509050610f56565b610f538383611594565b90505b92915050565b60035481565b60066020526000908152604090205460ff1681565b60005433600160a060020a03908116911614610f9257600080fd5b600160a060020a03811660009081526006602052604090819020805460ff191690557fd7e9ec6e6ecd65492dce6bf513cd6867560d49544421d0783ddf06e76c24470c90829051600160a060020a03909116815260200160405180910390a150565b60001981565b60005433600160a060020a0390811691161461101557600080fd5b600160a060020a0381161561104d576000805473ffffffffffffffffffffffffffffffffffffffff1916600160a060020a0383161790555b50565b6000805433600160a060020a0390811691161461106c57600080fd5b600160a060020a03821660009081526006602052604090205460ff16151561109357600080fd5b61109c82610a35565b600160a060020a038316600090815260026020526040808220919091556001805483900390559091507f61e6e66b0d6339b2980aecc6ccc0039736791f0ccde9ed512e789a7fbdd698c6908390839051600160a060020a03909216825260208201526040908101905180910390a15050565b6040604436101561111e57600080fd5b81158015906111515750600160a060020a0333811660009081526005602090815260408083209387168352929052205415155b1561115b57600080fd5b600160a060020a03338116600081815260056020908152604080832094881680845294909152908190208590557f8c5be1e5ebec7d5bd14f71427d1e84f3dd0314c0f7b2291e5b200ac8c7c3b9259085905190815260200160405180910390a3505050565b60008080606060643610156111d457600080fd5b600160a060020a0380881660009081526005602090815260408083203390941683529290522054600354909450611226906127109061121a90889063ffffffff61155e16565b9063ffffffff6115bf16565b92506004548311156112385760045492505b60001984101561127a57611252848663ffffffff6115d616565b600160a060020a03808916600090815260056020908152604080832033909416835292905220555b61128a858463ffffffff6115d616565b600160a060020a0388166000908152600260205260409020549092506112b6908663ffffffff6115d616565b600160a060020a0380891660009081526002602052604080822093909355908816815220546112eb908363ffffffff6115e816565b600160a060020a0387166000908152600260205260408120919091558311156113815760008054600160a060020a0316815260026020526040902054611337908463ffffffff6115e816565b60008054600160a060020a03908116825260026020526040808320939093559054811691908916906000805160206115f88339815191529086905190815260200160405180910390a35b85600160a060020a031687600160a060020a03166000805160206115f88339815191528460405190815260200160405180910390a350505050505050565b600160a060020a031660009081526002602052604090205490565b600080604060443610156113ed57600080fd5b61140861271061121a6003548761155e90919063ffffffff16565b925060045483111561141a5760045492505b61142a848463ffffffff6115d616565b600160a060020a033316600090815260026020526040902054909250611456908563ffffffff6115d616565b600160a060020a03338116600090815260026020526040808220939093559087168152205461148b908363ffffffff6115e816565b600160a060020a0386166000908152600260205260408120919091558311156115225760008054600160a060020a03168152600260205260409020546114d7908463ffffffff6115e816565b60008054600160a060020a0390811682526002602052604080832093909355905481169133909116906000805160206115f88339815191529086905190815260200160405180910390a35b84600160a060020a031633600160a060020a03166000805160206115f88339815191528460405190815260200160405180910390a35050505050565b600080831515611571576000915061158d565b5082820282848281151561158157fe5b041461158957fe5b8091505b5092915050565b600160a060020a03918216600090815260056020908152604080832093909416825291909152205490565b60008082848115156115cd57fe5b04949350505050565b6000828211156115e257fe5b50900390565b60008282018381101561158957fe00ddf252ad1be2c89b69c2b068fc378daa952ba7f163c4a11628f55a4df523b3efa165627a7a7230582028b1e8400ebfd8d8a7bed6b0c0e44685879bee6d467af2f48b6a204974d354680029",
      "opcodes": "PUSH1 0x60 PUSH1 0x40 MSTORE PUSH1 0x0 DUP1 SLOAD PUSH1 0xA0 PUSH1 0x2 EXP PUSH1 0xFF MUL NOT AND DUP2 SSTORE PUSH1 0x3 DUP2 SWAP1 SSTORE PUSH1 0x4 SSTORE CALLVALUE ISZERO PUSH3 0x28 JUMPI PUSH1 0x0 DUP1 REVERT JUMPDEST PUSH1 0x40 MLOAD PUSH3 0x17D5 CODESIZE SUB DUP1 PUSH3 0x17D5 DUP4 CODECOPY DUP2 ADD PUSH1 0x40 MSTORE DUP1 DUP1 MLOAD SWAP2 SWAP1 PUSH1 0x20 ADD DUP1 MLOAD DUP3 ADD SWAP2 SWAP1 PUSH1 0x20 ADD DUP1 MLOAD DUP3 ADD SWAP2 SWAP1 PUSH1 0x20 ADD DUP1 MLOAD PUSH1 0x0 DUP1 SLOAD PUSH1 0x1 PUSH1 0xA0 PUSH1 0x2 EXP SUB NOT AND CALLER PUSH1 0x1 PUSH1 0xA0 PUSH1 0x2 EXP SUB AND OR SWAP1 SSTORE PUSH1 0x1 DUP7 SWAP1 SSTORE SWAP2 POP PUSH1 0x7 SWAP1 POP DUP4 DUP1 MLOAD PUSH3 0x92 SWAP3 SWAP2 PUSH1 0x20 ADD SWAP1 PUSH3 0xDD JUMP JUMPDEST POP PUSH1 0x8 DUP3 DUP1 MLOAD PUSH3 0xA8 SWAP3 SWAP2 PUSH1 0x20 ADD SWAP1 PUSH3 0xDD JUMP JUMPDEST POP PUSH1 0x9 SSTORE POP POP PUSH1 0x0 DUP1 SLOAD PUSH1 0x1 PUSH1 0xA0 PUSH1 0x2 EXP SUB AND DUP2 MSTORE PUSH1 0x2 PUSH1 0x20 MSTORE PUSH1 0x40 SWAP1 KECCAK256 SSTORE PUSH1 0xA DUP1 SLOAD PUSH1 0xA0 PUSH1 0x2 EXP PUSH1 0xFF MUL NOT AND SWAP1 SSTORE PUSH3 0x182 JUMP JUMPDEST DUP3 DUP1 SLOAD PUSH1 0x1 DUP2 PUSH1 0x1 AND ISZERO PUSH2 0x100 MUL SUB AND PUSH1 0x2 SWAP1 DIV SWAP1 PUSH1 0x0 MSTORE PUSH1 0x20 PUSH1 0x0 KECCAK256 SWAP1 PUSH1 0x1F ADD PUSH1 0x20 SWAP1 DIV DUP2 ADD SWAP3 DUP3 PUSH1 0x1F LT PUSH3 0x120 JUMPI DUP1 MLOAD PUSH1 0xFF NOT AND DUP4 DUP1 ADD OR DUP6 SSTORE PUSH3 0x150 JUMP JUMPDEST DUP3 DUP1 ADD PUSH1 0x1 ADD DUP6 SSTORE DUP3 ISZERO PUSH3 0x150 JUMPI SWAP2 DUP3 ADD JUMPDEST DUP3 DUP2 GT ISZERO PUSH3 0x150 JUMPI DUP3 MLOAD DUP3 SSTORE SWAP2 PUSH1 0x20 ADD SWAP2 SWAP1 PUSH1 0x1 ADD SWAP1 PUSH3 0x133 JUMP JUMPDEST POP PUSH3 0x15E SWAP3 SWAP2 POP PUSH3 0x162 JUMP JUMPDEST POP SWAP1 JUMP JUMPDEST PUSH3 0x17F SWAP2 SWAP1 JUMPDEST DUP1 DUP3 GT ISZERO PUSH3 0x15E JUMPI PUSH1 0x0 DUP2 SSTORE PUSH1 0x1 ADD PUSH3 0x169 JUMP JUMPDEST SWAP1 JUMP JUMPDEST PUSH2 0x1643 DUP1 PUSH3 0x192 PUSH1 0x0 CODECOPY PUSH1 0x0 RETURN STOP PUSH1 0x60 PUSH1 0x40 MSTORE PUSH1 0x4 CALLDATASIZE LT PUSH2 0x17C JUMPI PUSH4 0xFFFFFFFF PUSH1 0xE0 PUSH1 0x2 EXP PUSH1 0x0 CALLDATALOAD DIV AND PUSH4 0x6FDDE03 DUP2 EQ PUSH2 0x181 JUMPI DUP1 PUSH4 0x753C30C EQ PUSH2 0x20B JUMPI DUP1 PUSH4 0x95EA7B3 EQ PUSH2 0x22C JUMPI DUP1 PUSH4 0xE136B19 EQ PUSH2 0x24E JUMPI DUP1 PUSH4 0xECB93C0 EQ PUSH2 0x275 JUMPI DUP1 PUSH4 0x18160DDD EQ PUSH2 0x294 JUMPI DUP1 PUSH4 0x23B872DD EQ PUSH2 0x2B9 JUMPI DUP1 PUSH4 0x26976E3F EQ PUSH2 0x2E1 JUMPI DUP1 PUSH4 0x27E235E3 EQ PUSH2 0x310 JUMPI DUP1 PUSH4 0x313CE567 EQ PUSH2 0x32F JUMPI DUP1 PUSH4 0x35390714 EQ PUSH2 0x342 JUMPI DUP1 PUSH4 0x3EAAF86B EQ PUSH2 0x355 JUMPI DUP1 PUSH4 0x3F4BA83A EQ PUSH2 0x368 JUMPI DUP1 PUSH4 0x59BF1ABE EQ PUSH2 0x37B JUMPI DUP1 PUSH4 0x5C658165 EQ PUSH2 0x39A JUMPI DUP1 PUSH4 0x5C975ABB EQ PUSH2 0x3BF JUMPI DUP1 PUSH4 0x70A08231 EQ PUSH2 0x3D2 JUMPI DUP1 PUSH4 0x8456CB59 EQ PUSH2 0x3F1 JUMPI DUP1 PUSH4 0x893D20E8 EQ PUSH2 0x404 JUMPI DUP1 PUSH4 0x8DA5CB5B EQ PUSH2 0x417 JUMPI DUP1 PUSH4 0x95D89B41 EQ PUSH2 0x42A JUMPI DUP1 PUSH4 0xA9059CBB EQ PUSH2 0x43D JUMPI DUP1 PUSH4 0xC0324C77 EQ PUSH2 0x45F JUMPI DUP1 PUSH4 0xCC872B66 EQ PUSH2 0x478 JUMPI DUP1 PUSH4 0xDB006A75 EQ PUSH2 0x48E JUMPI DUP1 PUSH4 0xDD62ED3E EQ PUSH2 0x4A4 JUMPI DUP1 PUSH4 0xDD644F72 EQ PUSH2 0x4C9 JUMPI DUP1 PUSH4 0xE47D6060 EQ PUSH2 0x4DC JUMPI DUP1 PUSH4 0xE4997DC5 EQ PUSH2 0x4FB JUMPI DUP1 PUSH4 0xE5B5019A EQ PUSH2 0x51A JUMPI DUP1 PUSH4 0xF2FDE38B EQ PUSH2 0x52D JUMPI DUP1 PUSH4 0xF3BDC228 EQ PUSH2 0x54C JUMPI JUMPDEST PUSH1 0x0 DUP1 REVERT JUMPDEST CALLVALUE ISZERO PUSH2 0x18C JUMPI PUSH1 0x0 DUP1 REVERT JUMPDEST PUSH2 0x194 PUSH2 0x56B JUMP JUMPDEST PUSH1 0x40 MLOAD PUSH1 0x20 DUP1 DUP3 MSTORE DUP2 SWAP1 DUP2 ADD DUP4 DUP2 DUP2 MLOAD DUP2 MSTORE PUSH1 0x20 ADD SWAP2 POP DUP1 MLOAD SWAP1 PUSH1 0x20 ADD SWAP1 DUP1 DUP4 DUP4 PUSH1 0x0 JUMPDEST DUP4 DUP2 LT ISZERO PUSH2 0x1D0 JUMPI DUP1 DUP3 ADD MLOAD DUP4 DUP3 ADD MSTORE PUSH1 0x20 ADD PUSH2 0x1B8 JUMP JUMPDEST POP POP POP POP SWAP1 POP SWAP1 DUP2 ADD SWAP1 PUSH1 0x1F AND DUP1 ISZERO PUSH2 0x1FD JUMPI DUP1 DUP3 SUB DUP1 MLOAD PUSH1 0x1 DUP4 PUSH1 0x20 SUB PUSH2 0x100 EXP SUB NOT AND DUP2 MSTORE PUSH1 0x20 ADD SWAP2 POP JUMPDEST POP SWAP3 POP POP POP PUSH1 0x40 MLOAD DUP1 SWAP2 SUB SWAP1 RETURN JUMPDEST CALLVALUE ISZERO PUSH2 0x216 JUMPI PUSH1 0x0 DUP1 REVERT JUMPDEST PUSH2 0x22A PUSH1 0x1 PUSH1 0xA0 PUSH1 0x2 EXP SUB PUSH1 0x4 CALLDATALOAD AND PUSH2 0x609 JUMP JUMPDEST STOP JUMPDEST CALLVALUE ISZERO PUSH2 0x237 JUMPI PUSH1 0x0 DUP1 REVERT JUMPDEST PUSH2 0x22A PUSH1 0x1 PUSH1 0xA0 PUSH1 0x2 EXP SUB PUSH1 0x4 CALLDATALOAD AND PUSH1 0x24 CALLDATALOAD PUSH2 0x6AC JUMP JUMPDEST CALLVALUE ISZERO PUSH2 0x259 JUMPI PUSH1 0x0 DUP1 REVERT JUMPDEST PUSH2 0x261 PUSH2 0x759 JUMP JUMPDEST PUSH1 0x40 MLOAD SWAP1 ISZERO ISZERO DUP2 MSTORE PUSH1 0x20 ADD PUSH1 0x40 MLOAD DUP1 SWAP2 SUB SWAP1 RETURN JUMPDEST CALLVALUE ISZERO PUSH2 0x280 JUMPI PUSH1 0x0 DUP1 REVERT JUMPDEST PUSH2 0x22A PUSH1 0x1 PUSH1 0xA0 PUSH1 0x2 EXP SUB PUSH1 0x4 CALLDATALOAD AND PUSH2 0x769 JUMP JUMPDEST CALLVALUE ISZERO PUSH2 0x29F JUMPI PUSH1 0x0 DUP1 REVERT JUMPDEST PUSH2 0x2A7 PUSH2 0x7E9 JUMP JUMPDEST PUSH1 0x40 MLOAD SWAP1 DUP2 MSTORE PUSH1 0x20 ADD PUSH1 0x40 MLOAD DUP1 SWAP2 SUB SWAP1 RETURN JUMPDEST CALLVALUE ISZERO PUSH2 0x2C4 JUMPI PUSH1 0x0 DUP1 REVERT JUMPDEST PUSH2 0x22A PUSH1 0x1 PUSH1 0xA0 PUSH1 0x2 EXP SUB PUSH1 0x4 CALLDATALOAD DUP2 AND SWAP1 PUSH1 0x24 CALLDATALOAD AND PUSH1 0x44 CALLDATALOAD PUSH2 0x870 JUMP JUMPDEST CALLVALUE ISZERO PUSH2 0x2EC JUMPI PUSH1 0x0 DUP1 REVERT JUMPDEST PUSH2 0x2F4 PUSH2 0x934 JUMP JUMPDEST PUSH1 0x40 MLOAD PUSH1 0x1 PUSH1 0xA0 PUSH1 0x2 EXP SUB SWAP1 SWAP2 AND DUP2 MSTORE PUSH1 0x20 ADD PUSH1 0x40 MLOAD DUP1 SWAP2 SUB SWAP1 RETURN JUMPDEST CALLVALUE ISZERO PUSH2 0x31B JUMPI PUSH1 0x0 DUP1 REVERT JUMPDEST PUSH2 0x2A7 PUSH1 0x1 PUSH1 0xA0 PUSH1 0x2 EXP SUB PUSH1 0x4 CALLDATALOAD AND PUSH2 0x943 JUMP JUMPDEST CALLVALUE ISZERO PUSH2 0x33A JUMPI PUSH1 0x0 DUP1 REVERT JUMPDEST PUSH2 0x2A7 PUSH2 0x955 JUMP JUMPDEST CALLVALUE ISZERO PUSH2 0x34D JUMPI PUSH1 0x0 DUP1 REVERT JUMPDEST PUSH2 0x2A7 PUSH2 0x95B JUMP JUMPDEST CALLVALUE ISZERO PUSH2 0x360 JUMPI PUSH1 0x0 DUP1 REVERT JUMPDEST PUSH2 0x2A7 PUSH2 0x961 JUMP JUMPDEST CALLVALUE ISZERO PUSH2 0x373 JUMPI PUSH1 0x0 DUP1 REVERT JUMPDEST PUSH2 0x22A PUSH2 0x967 JUMP JUMPDEST CALLVALUE ISZERO PUSH2 0x386 JUMPI PUSH1 0x0 DUP1 REVERT JUMPDEST PUSH2 0x261 PUSH1 0x1 PUSH1 0xA0 PUSH1 0x2 EXP SUB PUSH1 0x4 CALLDATALOAD AND PUSH2 0x9E6 JUMP JUMPDEST CALLVALUE ISZERO PUSH2 0x3A5 JUMPI PUSH1 0x0 DUP1 REVERT JUMPDEST PUSH2 0x2A7 PUSH1 0x1 PUSH1 0xA0 PUSH1 0x2 EXP SUB PUSH1 0x4 CALLDATALOAD DUP2 AND SWAP1 PUSH1 0x24 CALLDATALOAD AND PUSH2 0xA08 JUMP JUMPDEST CALLVALUE ISZERO PUSH2 0x3CA JUMPI PUSH1 0x0 DUP1 REVERT JUMPDEST PUSH2 0x261 PUSH2 0xA25 JUMP JUMPDEST CALLVALUE ISZERO PUSH2 0x3DD JUMPI PUSH1 0x0 DUP1 REVERT JUMPDEST PUSH2 0x2A7 PUSH1 0x1 PUSH1 0xA0 PUSH1 0x2 EXP SUB PUSH1 0x4 CALLDATALOAD AND PUSH2 0xA35 JUMP JUMPDEST CALLVALUE ISZERO PUSH2 0x3FC JUMPI PUSH1 0x0 DUP1 REVERT JUMPDEST PUSH2 0x22A PUSH2 0xAD5 JUMP JUMPDEST CALLVALUE ISZERO PUSH2 0x40F JUMPI PUSH1 0x0 DUP1 REVERT JUMPDEST PUSH2 0x2F4 PUSH2 0xB59 JUMP JUMPDEST CALLVALUE ISZERO PUSH2 0x422 JUMPI PUSH1 0x0 DUP1 REVERT JUMPDEST PUSH2 0x2F4 PUSH2 0xB68 JUMP JUMPDEST CALLVALUE ISZERO PUSH2 0x435 JUMPI PUSH1 0x0 DUP1 REVERT JUMPDEST PUSH2 0x194 PUSH2 0xB77 JUMP JUMPDEST CALLVALUE ISZERO PUSH2 0x448 JUMPI PUSH1 0x0 DUP1 REVERT JUMPDEST PUSH2 0x22A PUSH1 0x1 PUSH1 0xA0 PUSH1 0x2 EXP SUB PUSH1 0x4 CALLDATALOAD AND PUSH1 0x24 CALLDATALOAD PUSH2 0xBE2 JUMP JUMPDEST CALLVALUE ISZERO PUSH2 0x46A JUMPI PUSH1 0x0 DUP1 REVERT JUMPDEST PUSH2 0x22A PUSH1 0x4 CALLDATALOAD PUSH1 0x24 CALLDATALOAD PUSH2 0xCBB JUMP JUMPDEST CALLVALUE ISZERO PUSH2 0x483 JUMPI PUSH1 0x0 DUP1 REVERT JUMPDEST PUSH2 0x22A PUSH1 0x4 CALLDATALOAD PUSH2 0xD51 JUMP JUMPDEST CALLVALUE ISZERO PUSH2 0x499 JUMPI PUSH1 0x0 DUP1 REVERT JUMPDEST PUSH2 0x22A PUSH1 0x4 CALLDATALOAD PUSH2 0xE00 JUMP JUMPDEST CALLVALUE ISZERO PUSH2 0x4AF JUMPI PUSH1 0x0 DUP1 REVERT JUMPDEST PUSH2 0x2A7 PUSH1 0x1 PUSH1 0xA0 PUSH1 0x2 EXP SUB PUSH1 0x4 CALLDATALOAD DUP2 AND SWAP1 PUSH1 0x24 CALLDATALOAD AND PUSH2 0xEB1 JUMP JUMPDEST CALLVALUE ISZERO PUSH2 0x4D4 JUMPI PUSH1 0x0 DUP1 REVERT JUMPDEST PUSH2 0x2A7 PUSH2 0xF5C JUMP JUMPDEST CALLVALUE ISZERO PUSH2 0x4E7 JUMPI PUSH1 0x0 DUP1 REVERT JUMPDEST PUSH2 0x261 PUSH1 0x1 PUSH1 0xA0 PUSH1 0x2 EXP SUB PUSH1 0x4 CALLDATALOAD AND PUSH2 0xF62 JUMP JUMPDEST CALLVALUE ISZERO PUSH2 0x506 JUMPI PUSH1 0x0 DUP1 REVERT JUMPDEST PUSH2 0x22A PUSH1 0x1 PUSH1 0xA0 PUSH1 0x2 EXP SUB PUSH1 0x4 CALLDATALOAD AND PUSH2 0xF77 JUMP JUMPDEST CALLVALUE ISZERO PUSH2 0x525 JUMPI PUSH1 0x0 DUP1 REVERT JUMPDEST PUSH2 0x2A7 PUSH2 0xFF4 JUMP JUMPDEST CALLVALUE ISZERO PUSH2 0x538 JUMPI PUSH1 0x0 DUP1 REVERT JUMPDEST PUSH2 0x22A PUSH1 0x1 PUSH1 0xA0 PUSH1 0x2 EXP SUB PUSH1 0x4 CALLDATALOAD AND PUSH2 0xFFA JUMP JUMPDEST CALLVALUE ISZERO PUSH2 0x557 JUMPI PUSH1 0x0 DUP1 REVERT JUMPDEST PUSH2 0x22A PUSH1 0x1 PUSH1 0xA0 PUSH1 0x2 EXP SUB PUSH1 0x4 CALLDATALOAD AND PUSH2 0x1050 JUMP JUMPDEST PUSH1 0x7 DUP1 SLOAD PUSH1 0x1 DUP2 PUSH1 0x1 AND ISZERO PUSH2 0x100 MUL SUB AND PUSH1 0x2 SWAP1 DIV DUP1 PUSH1 0x1F ADD PUSH1 0x20 DUP1 SWAP2 DIV MUL PUSH1 0x20 ADD PUSH1 0x40 MLOAD SWAP1 DUP2 ADD PUSH1 0x40 MSTORE DUP1 SWAP3 SWAP2 SWAP1 DUP2 DUP2 MSTORE PUSH1 0x20 ADD DUP3 DUP1 SLOAD PUSH1 0x1 DUP2 PUSH1 0x1 AND ISZERO PUSH2 0x100 MUL SUB AND PUSH1 0x2 SWAP1 DIV DUP1 ISZERO PUSH2 0x601 JUMPI DUP1 PUSH1 0x1F LT PUSH2 0x5D6 JUMPI PUSH2 0x100 DUP1 DUP4 SLOAD DIV MUL DUP4 MSTORE SWAP2 PUSH1 0x20 ADD SWAP2 PUSH2 0x601 JUMP JUMPDEST DUP3 ADD SWAP2 SWAP1 PUSH1 0x0 MSTORE PUSH1 0x20 PUSH1 0x0 KECCAK256 SWAP1 JUMPDEST DUP2 SLOAD DUP2 MSTORE SWAP1 PUSH1 0x1 ADD SWAP1 PUSH1 0x20 ADD DUP1 DUP4 GT PUSH2 0x5E4 JUMPI DUP3 SWAP1 SUB PUSH1 0x1F AND DUP3 ADD SWAP2 JUMPDEST POP POP POP POP POP DUP2 JUMP JUMPDEST PUSH1 0x0 SLOAD CALLER PUSH1 0x1 PUSH1 0xA0 PUSH1 0x2 EXP SUB SWAP1 DUP2 AND SWAP2 AND EQ PUSH2 0x624 JUMPI PUSH1 0x0 DUP1 REVERT JUMPDEST PUSH1 0xA DUP1 SLOAD PUSH1 0xA0 PUSH1 0x2 EXP PUSH21 0xFF0000000000000000000000000000000000000000 NOT SWAP1 SWAP2 AND OR PUSH20 0xFFFFFFFFFFFFFFFFFFFFFFFFFFFFFFFFFFFFFFFF NOT AND PUSH1 0x1 PUSH1 0xA0 PUSH1 0x2 EXP SUB DUP4 AND OR SWAP1 SSTORE PUSH32 0xCC358699805E9A8B7F77B522628C7CB9ABD07D9EFB86B6FB616AF1609036A99E DUP2 PUSH1 0x40 MLOAD PUSH1 0x1 PUSH1 0xA0 PUSH1 0x2 EXP SUB SWAP1 SWAP2 AND DUP2 MSTORE PUSH1 0x20 ADD PUSH1 0x40 MLOAD DUP1 SWAP2 SUB SWAP1 LOG1 POP JUMP JUMPDEST PUSH1 0x40 PUSH1 0x44 CALLDATASIZE LT ISZERO PUSH2 0x6BC JUMPI PUSH1 0x0 DUP1 REVERT JUMPDEST PUSH1 0xA SLOAD PUSH1 0xA0 PUSH1 0x2 EXP SWAP1 DIV PUSH1 0xFF AND ISZERO PUSH2 0x74A JUMPI PUSH1 0xA SLOAD PUSH1 0x1 PUSH1 0xA0 PUSH1 0x2 EXP SUB AND PUSH4 0xAEE92D33 CALLER DUP6 DUP6 PUSH1 0x40 MLOAD PUSH1 0xE0 PUSH1 0x2 EXP PUSH4 0xFFFFFFFF DUP7 AND MUL DUP2 MSTORE PUSH1 0x1 PUSH1 0xA0 PUSH1 0x2 EXP SUB SWAP4 DUP5 AND PUSH1 0x4 DUP3 ADD MSTORE SWAP2 SWAP1 SWAP3 AND PUSH1 0x24 DUP3 ADD MSTORE PUSH1 0x44 DUP2 ADD SWAP2 SWAP1 SWAP2 MSTORE PUSH1 0x64 ADD PUSH1 0x0 PUSH1 0x40 MLOAD DUP1 DUP4 SUB DUP2 PUSH1 0x0 DUP8 DUP1 EXTCODESIZE ISZERO ISZERO PUSH2 0x731 JUMPI PUSH1 0x0 DUP1 REVERT JUMPDEST PUSH2 0x2C6 GAS SUB CALL ISZERO ISZERO PUSH2 0x742 JUMPI PUSH1 0x0 DUP1 REVERT JUMPDEST POP POP POP PUSH2 0x754 JUMP JUMPDEST PUSH2 0x754 DUP4 DUP4 PUSH2 0x110E JUMP JUMPDEST POP POP POP JUMP JUMPDEST PUSH1 0xA SLOAD PUSH1 0xA0 PUSH1 0x2 EXP SWAP1 DIV PUSH1 0xFF AND DUP2 JUMP JUMPDEST PUSH1 0x0 SLOAD CALLER PUSH1 0x1 PUSH1 0xA0 PUSH1 0x2 EXP SUB SWAP1 DUP2 AND SWAP2 AND EQ PUSH2 0x784 JUMPI PUSH1 0x0 DUP1 REVERT JUMPDEST PUSH1 0x1 PUSH1 0xA0 PUSH1 0x2 EXP SUB DUP2 AND PUSH1 0x0 SWAP1 DUP2 MSTORE PUSH1 0x6 PUSH1 0x20 MSTORE PUSH1 0x40 SWAP1 DUP2 SWAP1 KECCAK256 DUP1 SLOAD PUSH1 0xFF NOT AND PUSH1 0x1 OR SWAP1 SSTORE PUSH32 0x42E160154868087D6BFDC0CA23D96A1C1CFA32F1B72BA9BA27B69B98A0D819DC SWAP1 DUP3 SWAP1 MLOAD PUSH1 0x1 PUSH1 0xA0 PUSH1 0x2 EXP SUB SWAP1 SWAP2 AND DUP2 MSTORE PUSH1 0x20 ADD PUSH1 0x40 MLOAD DUP1 SWAP2 SUB SWAP1 LOG1 POP JUMP JUMPDEST PUSH1 0xA SLOAD PUSH1 0x0 SWAP1 PUSH1 0xA0 PUSH1 0x2 EXP SWAP1 DIV PUSH1 0xFF AND ISZERO PUSH2 0x868 JUMPI PUSH1 0xA SLOAD PUSH1 0x1 PUSH1 0xA0 PUSH1 0x2 EXP SUB AND PUSH4 0x18160DDD PUSH1 0x0 PUSH1 0x40 MLOAD PUSH1 0x20 ADD MSTORE PUSH1 0x40 MLOAD DUP2 PUSH4 0xFFFFFFFF AND PUSH1 0xE0 PUSH1 0x2 EXP MUL DUP2 MSTORE PUSH1 0x4 ADD PUSH1 0x20 PUSH1 0x40 MLOAD DUP1 DUP4 SUB DUP2 PUSH1 0x0 DUP8 DUP1 EXTCODESIZE ISZERO ISZERO PUSH2 0x846 JUMPI PUSH1 0x0 DUP1 REVERT JUMPDEST PUSH2 0x2C6 GAS SUB CALL ISZERO ISZERO PUSH2 0x857 JUMPI PUSH1 0x0 DUP1 REVERT JUMPDEST POP POP POP PUSH1 0x40 MLOAD DUP1 MLOAD SWAP1 POP SWAP1 POP PUSH2 0x86D JUMP JUMPDEST POP PUSH1 0x1 SLOAD JUMPDEST SWAP1 JUMP JUMPDEST PUSH1 0x0 SLOAD PUSH1 0xA0 PUSH1 0x2 EXP SWAP1 DIV PUSH1 0xFF AND ISZERO PUSH2 0x887 JUMPI PUSH1 0x0 DUP1 REVERT JUMPDEST PUSH1 0x1 PUSH1 0xA0 PUSH1 0x2 EXP SUB DUP4 AND PUSH1 0x0 SWAP1 DUP2 MSTORE PUSH1 0x6 PUSH1 0x20 MSTORE PUSH1 0x40 SWAP1 KECCAK256 SLOAD PUSH1 0xFF AND ISZERO PUSH2 0x8AD JUMPI PUSH1 0x0 DUP1 REVERT JUMPDEST PUSH1 0xA SLOAD PUSH1 0xA0 PUSH1 0x2 EXP SWAP1 DIV PUSH1 0xFF AND ISZERO PUSH2 0x929 JUMPI PUSH1 0xA SLOAD PUSH1 0x1 PUSH1 0xA0 PUSH1 0x2 EXP SUB AND PUSH4 0x8B477ADB CALLER DUP6 DUP6 DUP6 PUSH1 0x40 MLOAD PUSH1 0xE0 PUSH1 0x2 EXP PUSH4 0xFFFFFFFF DUP8 AND MUL DUP2 MSTORE PUSH1 0x1 PUSH1 0xA0 PUSH1 0x2 EXP SUB SWAP5 DUP6 AND PUSH1 0x4 DUP3 ADD MSTORE SWAP3 DUP5 AND PUSH1 0x24 DUP5 ADD MSTORE SWAP3 AND PUSH1 0x44 DUP3 ADD MSTORE PUSH1 0x64 DUP2 ADD SWAP2 SWAP1 SWAP2 MSTORE PUSH1 0x84 ADD PUSH1 0x0 PUSH1 0x40 MLOAD DUP1 DUP4 SUB DUP2 PUSH1 0x0 DUP8 DUP1 EXTCODESIZE ISZERO ISZERO PUSH2 0x731 JUMPI PUSH1 0x0 DUP1 REVERT JUMPDEST PUSH2 0x754 DUP4 DUP4 DUP4 PUSH2 0x11C0 JUMP JUMPDEST PUSH1 0xA SLOAD PUSH1 0x1 PUSH1 0xA0 PUSH1 0x2 EXP SUB AND DUP2 JUMP JUMPDEST PUSH1 0x2 PUSH1 0x20 MSTORE PUSH1 0x0 SWAP1 DUP2 MSTORE PUSH1 0x40 SWAP1 KECCAK256 SLOAD DUP2 JUMP JUMPDEST PUSH1 0x9 SLOAD DUP2 JUMP JUMPDEST PUSH1 0x4 SLOAD DUP2 JUMP JUMPDEST PUSH1 0x1 SLOAD DUP2 JUMP JUMPDEST PUSH1 0x0 SLOAD CALLER PUSH1 0x1 PUSH1 0xA0 PUSH1 0x2 EXP SUB SWAP1 DUP2 AND SWAP2 AND EQ PUSH2 0x982 JUMPI PUSH1 0x0 DUP1 REVERT JUMPDEST PUSH1 0x0 SLOAD PUSH1 0xA0 PUSH1 0x2 EXP SWAP1 DIV PUSH1 0xFF AND ISZERO ISZERO PUSH2 0x99A JUMPI PUSH1 0x0 DUP1 REVERT JUMPDEST PUSH1 0x0 DUP1 SLOAD PUSH21 0xFF0000000000000000000000000000000000000000 NOT AND SWAP1 SSTORE PUSH32 0x7805862F689E2F13DF9F062FF482AD3AD112ACA9E0847911ED832E158C525B33 PUSH1 0x40 MLOAD PUSH1 0x40 MLOAD DUP1 SWAP2 SUB SWAP1 LOG1 JUMP JUMPDEST PUSH1 0x1 PUSH1 0xA0 PUSH1 0x2 EXP SUB DUP2 AND PUSH1 0x0 SWAP1 DUP2 MSTORE PUSH1 0x6 PUSH1 0x20 MSTORE PUSH1 0x40 SWAP1 KECCAK256 SLOAD PUSH1 0xFF AND JUMPDEST SWAP2 SWAP1 POP JUMP JUMPDEST PUSH1 0x5 PUSH1 0x20 SWAP1 DUP2 MSTORE PUSH1 0x0 SWAP3 DUP4 MSTORE PUSH1 0x40 DUP1 DUP5 KECCAK256 SWAP1 SWAP2 MSTORE SWAP1 DUP3 MSTORE SWAP1 KECCAK256 SLOAD DUP2 JUMP JUMPDEST PUSH1 0x0 SLOAD PUSH1 0xA0 PUSH1 0x2 EXP SWAP1 DIV PUSH1 0xFF AND DUP2 JUMP JUMPDEST PUSH1 0xA SLOAD PUSH1 0x0 SWAP1 PUSH1 0xA0 PUSH1 0x2 EXP SWAP1 DIV PUSH1 0xFF AND ISZERO PUSH2 0xAC5 JUMPI PUSH1 0xA SLOAD PUSH1 0x1 PUSH1 0xA0 PUSH1 0x2 EXP SUB AND PUSH4 0x70A08231 DUP4 PUSH1 0x0 PUSH1 0x40 MLOAD PUSH1 0x20 ADD MSTORE PUSH1 0x40 MLOAD PUSH1 0xE0 PUSH1 0x2 EXP PUSH4 0xFFFFFFFF DUP5 AND MUL DUP2 MSTORE PUSH1 0x1 PUSH1 0xA0 PUSH1 0x2 EXP SUB SWAP1 SWAP2 AND PUSH1 0x4 DUP3 ADD MSTORE PUSH1 0x24 ADD PUSH1 0x20 PUSH1 0x40 MLOAD DUP1 DUP4 SUB DUP2 PUSH1 0x0 DUP8 DUP1 EXTCODESIZE ISZERO ISZERO PUSH2 0xAA3 JUMPI PUSH1 0x0 DUP1 REVERT JUMPDEST PUSH2 0x2C6 GAS SUB CALL ISZERO ISZERO PUSH2 0xAB4 JUMPI PUSH1 0x0 DUP1 REVERT JUMPDEST POP POP POP PUSH1 0x40 MLOAD DUP1 MLOAD SWAP1 POP SWAP1 POP PUSH2 0xA03 JUMP JUMPDEST PUSH2 0xACE DUP3 PUSH2 0x13BF JUMP JUMPDEST SWAP1 POP PUSH2 0xA03 JUMP JUMPDEST PUSH1 0x0 SLOAD CALLER PUSH1 0x1 PUSH1 0xA0 PUSH1 0x2 EXP SUB SWAP1 DUP2 AND SWAP2 AND EQ PUSH2 0xAF0 JUMPI PUSH1 0x0 DUP1 REVERT JUMPDEST PUSH1 0x0 SLOAD PUSH1 0xA0 PUSH1 0x2 EXP SWAP1 DIV PUSH1 0xFF AND ISZERO PUSH2 0xB07 JUMPI PUSH1 0x0 DUP1 REVERT JUMPDEST PUSH1 0x0 DUP1 SLOAD PUSH21 0xFF0000000000000000000000000000000000000000 NOT AND PUSH1 0xA0 PUSH1 0x2 EXP OR SWAP1 SSTORE PUSH32 0x6985A02210A168E66602D3235CB6DB0E70F92B3BA4D376A33C0F3D9434BFF625 PUSH1 0x40 MLOAD PUSH1 0x40 MLOAD DUP1 SWAP2 SUB SWAP1 LOG1 JUMP JUMPDEST PUSH1 0x0 SLOAD PUSH1 0x1 PUSH1 0xA0 PUSH1 0x2 EXP SUB AND SWAP1 JUMP JUMPDEST PUSH1 0x0 SLOAD PUSH1 0x1 PUSH1 0xA0 PUSH1 0x2 EXP SUB AND DUP2 JUMP JUMPDEST PUSH1 0x8 DUP1 SLOAD PUSH1 0x1 DUP2 PUSH1 0x1 AND ISZERO PUSH2 0x100 MUL SUB AND PUSH1 0x2 SWAP1 DIV DUP1 PUSH1 0x1F ADD PUSH1 0x20 DUP1 SWAP2 DIV MUL PUSH1 0x20 ADD PUSH1 0x40 MLOAD SWAP1 DUP2 ADD PUSH1 0x40 MSTORE DUP1 SWAP3 SWAP2 SWAP1 DUP2 DUP2 MSTORE PUSH1 0x20 ADD DUP3 DUP1 SLOAD PUSH1 0x1 DUP2 PUSH1 0x1 AND ISZERO PUSH2 0x100 MUL SUB AND PUSH1 0x2 SWAP1 DIV DUP1 ISZERO PUSH2 0x601 JUMPI DUP1 PUSH1 0x1F LT PUSH2 0x5D6 JUMPI PUSH2 0x100 DUP1 DUP4 SLOAD DIV MUL DUP4 MSTORE SWAP2 PUSH1 0x20 ADD SWAP2 PUSH2 0x601 JUMP JUMPDEST PUSH1 0x0 SLOAD PUSH1 0xA0 PUSH1 0x2 EXP SWAP1 DIV PUSH1 0xFF AND ISZERO PUSH2 0xBF9 JUMPI PUSH1 0x0 DUP1 REVERT JUMPDEST PUSH1 0x1 PUSH1 0xA0 PUSH1 0x2 EXP SUB CALLER AND PUSH1 0x0 SWAP1 DUP2 MSTORE PUSH1 0x6 PUSH1 0x20 MSTORE PUSH1 0x40 SWAP1 KECCAK256 SLOAD PUSH1 0xFF AND ISZERO PUSH2 0xC1F JUMPI PUSH1 0x0 DUP1 REVERT JUMPDEST PUSH1 0xA SLOAD PUSH1 0xA0 PUSH1 0x2 EXP SWAP1 DIV PUSH1 0xFF AND ISZERO PUSH2 0xCAD JUMPI PUSH1 0xA SLOAD PUSH1 0x1 PUSH1 0xA0 PUSH1 0x2 EXP SUB AND PUSH4 0x6E18980A CALLER DUP5 DUP5 PUSH1 0x40 MLOAD PUSH1 0xE0 PUSH1 0x2 EXP PUSH4 0xFFFFFFFF DUP7 AND MUL DUP2 MSTORE PUSH1 0x1 PUSH1 0xA0 PUSH1 0x2 EXP SUB SWAP4 DUP5 AND PUSH1 0x4 DUP3 ADD MSTORE SWAP2 SWAP1 SWAP3 AND PUSH1 0x24 DUP3 ADD MSTORE PUSH1 0x44 DUP2 ADD SWAP2 SWAP1 SWAP2 MSTORE PUSH1 0x64 ADD PUSH1 0x0 PUSH1 0x40 MLOAD DUP1 DUP4 SUB DUP2 PUSH1 0x0 DUP8 DUP1 EXTCODESIZE ISZERO ISZERO PUSH2 0xC94 JUMPI PUSH1 0x0 DUP1 REVERT JUMPDEST PUSH2 0x2C6 GAS SUB CALL ISZERO ISZERO PUSH2 0xCA5 JUMPI PUSH1 0x0 DUP1 REVERT JUMPDEST POP POP POP PUSH2 0xCB7 JUMP JUMPDEST PUSH2 0xCB7 DUP3 DUP3 PUSH2 0x13DA JUMP JUMPDEST POP POP JUMP JUMPDEST PUSH1 0x0 SLOAD CALLER PUSH1 0x1 PUSH1 0xA0 PUSH1 0x2 EXP SUB SWAP1 DUP2 AND SWAP2 AND EQ PUSH2 0xCD6 JUMPI PUSH1 0x0 DUP1 REVERT JUMPDEST PUSH1 0x14 DUP3 LT PUSH2 0xCE3 JUMPI PUSH1 0x0 DUP1 REVERT JUMPDEST PUSH1 0x32 DUP2 LT PUSH2 0xCF0 JUMPI PUSH1 0x0 DUP1 REVERT JUMPDEST PUSH1 0x3 DUP3 SWAP1 SSTORE PUSH1 0x9 SLOAD PUSH2 0xD0C SWAP1 DUP3 SWAP1 PUSH1 0xA EXP PUSH4 0xFFFFFFFF PUSH2 0x155E AND JUMP JUMPDEST PUSH1 0x4 DUP2 SWAP1 SSTORE PUSH1 0x3 SLOAD PUSH32 0xB044A1E409EAC5C48E5AF22D4AF52670DD1A99059537A78B31B48C6500A6354E SWAP2 PUSH1 0x40 MLOAD SWAP2 DUP3 MSTORE PUSH1 0x20 DUP3 ADD MSTORE PUSH1 0x40 SWAP1 DUP2 ADD SWAP1 MLOAD DUP1 SWAP2 SUB SWAP1 LOG1 POP POP JUMP JUMPDEST PUSH1 0x0 SLOAD CALLER PUSH1 0x1 PUSH1 0xA0 PUSH1 0x2 EXP SUB SWAP1 DUP2 AND SWAP2 AND EQ PUSH2 0xD6C JUMPI PUSH1 0x0 DUP1 REVERT JUMPDEST PUSH1 0x1 SLOAD DUP2 DUP2 ADD GT PUSH2 0xD7C JUMPI PUSH1 0x0 DUP1 REVERT JUMPDEST PUSH1 0x0 DUP1 SLOAD PUSH1 0x1 PUSH1 0xA0 PUSH1 0x2 EXP SUB AND DUP2 MSTORE PUSH1 0x2 PUSH1 0x20 MSTORE PUSH1 0x40 SWAP1 KECCAK256 SLOAD DUP2 DUP2 ADD GT PUSH2 0xDA2 JUMPI PUSH1 0x0 DUP1 REVERT JUMPDEST PUSH1 0x0 DUP1 SLOAD PUSH1 0x1 PUSH1 0xA0 PUSH1 0x2 EXP SUB AND DUP2 MSTORE PUSH1 0x2 PUSH1 0x20 MSTORE PUSH1 0x40 SWAP1 DUP2 SWAP1 KECCAK256 DUP1 SLOAD DUP4 ADD SWAP1 SSTORE PUSH1 0x1 DUP1 SLOAD DUP4 ADD SWAP1 SSTORE PUSH32 0xCB8241ADB0C3FDB35B70C24CE35C5EB0C17AF7431C99F827D44A445CA624176A SWAP1 DUP3 SWAP1 MLOAD SWAP1 DUP2 MSTORE PUSH1 0x20 ADD PUSH1 0x40 MLOAD DUP1 SWAP2 SUB SWAP1 LOG1 POP JUMP JUMPDEST PUSH1 0x0 SLOAD CALLER PUSH1 0x1 PUSH1 0xA0 PUSH1 0x2 EXP SUB SWAP1 DUP2 AND SWAP2 AND EQ PUSH2 0xE1B JUMPI PUSH1 0x0 DUP1 REVERT JUMPDEST PUSH1 0x1 SLOAD DUP2 SWAP1 LT ISZERO PUSH2 0xE2B JUMPI PUSH1 0x0 DUP1 REVERT JUMPDEST PUSH1 0x0 DUP1 SLOAD PUSH1 0x1 PUSH1 0xA0 PUSH1 0x2 EXP SUB AND DUP2 MSTORE PUSH1 0x2 PUSH1 0x20 MSTORE PUSH1 0x40 SWAP1 KECCAK256 SLOAD DUP2 SWAP1 LT ISZERO PUSH2 0xE51 JUMPI PUSH1 0x0 DUP1 REVERT JUMPDEST PUSH1 0x1 DUP1 SLOAD DUP3 SWAP1 SUB SWAP1 SSTORE PUSH1 0x0 DUP1 SLOAD PUSH1 0x1 PUSH1 0xA0 PUSH1 0x2 EXP SUB AND DUP2 MSTORE PUSH1 0x2 PUSH1 0x20 MSTORE PUSH1 0x40 SWAP1 DUP2 SWAP1 KECCAK256 DUP1 SLOAD DUP4 SWAP1 SUB SWAP1 SSTORE PUSH32 0x702D5967F45F6513A38FFC42D6BA9BF230BD40E8F53B16363C7EB4FD2DEB9A44 SWAP1 DUP3 SWAP1 MLOAD SWAP1 DUP2 MSTORE PUSH1 0x20 ADD PUSH1 0x40 MLOAD DUP1 SWAP2 SUB SWAP1 LOG1 POP JUMP JUMPDEST PUSH1 0xA SLOAD PUSH1 0x0 SWAP1 PUSH1 0xA0 PUSH1 0x2 EXP SWAP1 DIV PUSH1 0xFF AND ISZERO PUSH2 0xF49 JUMPI PUSH1 0xA SLOAD PUSH1 0x1 PUSH1 0xA0 PUSH1 0x2 EXP SUB AND PUSH4 0xDD62ED3E DUP5 DUP5 PUSH1 0x0 PUSH1 0x40 MLOAD PUSH1 0x20 ADD MSTORE PUSH1 0x40 MLOAD PUSH1 0xE0 PUSH1 0x2 EXP PUSH4 0xFFFFFFFF DUP6 AND MUL DUP2 MSTORE PUSH1 0x1 PUSH1 0xA0 PUSH1 0x2 EXP SUB SWAP3 DUP4 AND PUSH1 0x4 DUP3 ADD MSTORE SWAP2 AND PUSH1 0x24 DUP3 ADD MSTORE PUSH1 0x44 ADD PUSH1 0x20 PUSH1 0x40 MLOAD DUP1 DUP4 SUB DUP2 PUSH1 0x0 DUP8 DUP1 EXTCODESIZE ISZERO ISZERO PUSH2 0xF27 JUMPI PUSH1 0x0 DUP1 REVERT JUMPDEST PUSH2 0x2C6 GAS SUB CALL ISZERO ISZERO PUSH2 0xF38 JUMPI PUSH1 0x0 DUP1 REVERT JUMPDEST POP POP POP PUSH1 0x40 MLOAD DUP1 MLOAD SWAP1 POP SWAP1 POP PUSH2 0xF56 JUMP JUMPDEST PUSH2 0xF53 DUP4 DUP4 PUSH2 0x1594 JUMP JUMPDEST SWAP1 POP JUMPDEST SWAP3 SWAP2 POP POP JUMP JUMPDEST PUSH1 0x3 SLOAD DUP2 JUMP JUMPDEST PUSH1 0x6 PUSH1 0x20 MSTORE PUSH1 0x0 SWAP1 DUP2 MSTORE PUSH1 0x40 SWAP1 KECCAK256 SLOAD PUSH1 0xFF AND DUP2 JUMP JUMPDEST PUSH1 0x0 SLOAD CALLER PUSH1 0x1 PUSH1 0xA0 PUSH1 0x2 EXP SUB SWAP1 DUP2 AND SWAP2 AND EQ PUSH2 0xF92 JUMPI PUSH1 0x0 DUP1 REVERT JUMPDEST PUSH1 0x1 PUSH1 0xA0 PUSH1 0x2 EXP SUB DUP2 AND PUSH1 0x0 SWAP1 DUP2 MSTORE PUSH1 0x6 PUSH1 0x20 MSTORE PUSH1 0x40 SWAP1 DUP2 SWAP1 KECCAK256 DUP1 SLOAD PUSH1 0xFF NOT AND SWAP1 SSTORE PUSH32 0xD7E9EC6E6ECD65492DCE6BF513CD6867560D49544421D0783DDF06E76C24470C SWAP1 DUP3 SWAP1 MLOAD PUSH1 0x1 PUSH1 0xA0 PUSH1 0x2 EXP SUB SWAP1 SWAP2 AND DUP2 MSTORE PUSH1 0x20 ADD PUSH1 0x40 MLOAD DUP1 SWAP2 SUB SWAP1 LOG1 POP JUMP JUMPDEST PUSH1 0x0 NOT DUP2 JUMP JUMPDEST PUSH1 0x0 SLOAD CALLER PUSH1 0x1 PUSH1 0xA0 PUSH1 0x2 EXP SUB SWAP1 DUP2 AND SWAP2 AND EQ PUSH2 0x1015 JUMPI PUSH1 0x0 DUP1 REVERT JUMPDEST PUSH1 0x1 PUSH1 0xA0 PUSH1 0x2 EXP SUB DUP2 AND ISZERO PUSH2 0x104D JUMPI PUSH1 0x0 DUP1 SLOAD PUSH20 0xFFFFFFFFFFFFFFFFFFFFFFFFFFFFFFFFFFFFFFFF NOT AND PUSH1 0x1 PUSH1 0xA0 PUSH1 0x2 EXP SUB DUP4 AND OR SWAP1 SSTORE JUMPDEST POP JUMP JUMPDEST PUSH1 0x0 DUP1 SLOAD CALLER PUSH1 0x1 PUSH1 0xA0 PUSH1 0x2 EXP SUB SWAP1 DUP2 AND SWAP2 AND EQ PUSH2 0x106C JUMPI PUSH1 0x0 DUP1 REVERT JUMPDEST PUSH1 0x1 PUSH1 0xA0 PUSH1 0x2 EXP SUB DUP3 AND PUSH1 0x0 SWAP1 DUP2 MSTORE PUSH1 0x6 PUSH1 0x20 MSTORE PUSH1 0x40 SWAP1 KECCAK256 SLOAD PUSH1 0xFF AND ISZERO ISZERO PUSH2 0x1093 JUMPI PUSH1 0x0 DUP1 REVERT JUMPDEST PUSH2 0x109C DUP3 PUSH2 0xA35 JUMP JUMPDEST PUSH1 0x1 PUSH1 0xA0 PUSH1 0x2 EXP SUB DUP4 AND PUSH1 0x0 SWAP1 DUP2 MSTORE PUSH1 0x2 PUSH1 0x20 MSTORE PUSH1 0x40 DUP1 DUP3 KECCAK256 SWAP2 SWAP1 SWAP2 SSTORE PUSH1 0x1 DUP1 SLOAD DUP4 SWAP1 SUB SWAP1 SSTORE SWAP1 SWAP2 POP PUSH32 0x61E6E66B0D6339B2980AECC6CCC0039736791F0CCDE9ED512E789A7FBDD698C6 SWAP1 DUP4 SWAP1 DUP4 SWAP1 MLOAD PUSH1 0x1 PUSH1 0xA0 PUSH1 0x2 EXP SUB SWAP1 SWAP3 AND DUP3 MSTORE PUSH1 0x20 DUP3 ADD MSTORE PUSH1 0x40 SWAP1 DUP2 ADD SWAP1 MLOAD DUP1 SWAP2 SUB SWAP1 LOG1 POP POP JUMP JUMPDEST PUSH1 0x40 PUSH1 0x44 CALLDATASIZE LT ISZERO PUSH2 0x111E JUMPI PUSH1 0x0 DUP1 REVERT JUMPDEST DUP2 ISZERO DUP1 ISZERO SWAP1 PUSH2 0x1151 JUMPI POP PUSH1 0x1 PUSH1 0xA0 PUSH1 0x2 EXP SUB CALLER DUP2 AND PUSH1 0x0 SWAP1 DUP2 MSTORE PUSH1 0x5 PUSH1 0x20 SWAP1 DUP2 MSTORE PUSH1 0x40 DUP1 DUP4 KECCAK256 SWAP4 DUP8 AND DUP4 MSTORE SWAP3 SWAP1 MSTORE KECCAK256 SLOAD ISZERO ISZERO JUMPDEST ISZERO PUSH2 0x115B JUMPI PUSH1 0x0 DUP1 REVERT JUMPDEST PUSH1 0x1 PUSH1 0xA0 PUSH1 0x2 EXP SUB CALLER DUP2 AND PUSH1 0x0 DUP2 DUP2 MSTORE PUSH1 0x5 PUSH1 0x20 SWAP1 DUP2 MSTORE PUSH1 0x40 DUP1 DUP4 KECCAK256 SWAP5 DUP9 AND DUP1 DUP5 MSTORE SWAP5 SWAP1 SWAP2 MSTORE SWAP1 DUP2 SWAP1 KECCAK256 DUP6 SWAP1 SSTORE PUSH32 0x8C5BE1E5EBEC7D5BD14F71427D1E84F3DD0314C0F7B2291E5B200AC8C7C3B925 SWAP1 DUP6 SWAP1 MLOAD SWAP1 DUP2 MSTORE PUSH1 0x20 ADD PUSH1 0x40 MLOAD DUP1 SWAP2 SUB SWAP1 LOG3 POP POP POP JUMP JUMPDEST PUSH1 0x0 DUP1 DUP1 PUSH1 0x60 PUSH1 0x64 CALLDATASIZE LT ISZERO PUSH2 0x11D4 JUMPI PUSH1 0x0 DUP1 REVERT JUMPDEST PUSH1 0x1 PUSH1 0xA0 PUSH1 0x2 EXP SUB DUP1 DUP9 AND PUSH1 0x0 SWAP1 DUP2 MSTORE PUSH1 0x5 PUSH1 0x20 SWAP1 DUP2 MSTORE PUSH1 0x40 DUP1 DUP4 KECCAK256 CALLER SWAP1 SWAP5 AND DUP4 MSTORE SWAP3 SWAP1 MSTORE KECCAK256 SLOAD PUSH1 0x3 SLOAD SWAP1 SWAP5 POP PUSH2 0x1226 SWAP1 PUSH2 0x2710 SWAP1 PUSH2 0x121A SWAP1 DUP9 SWAP1 PUSH4 0xFFFFFFFF PUSH2 0x155E AND JUMP JUMPDEST SWAP1 PUSH4 0xFFFFFFFF PUSH2 0x15BF AND JUMP JUMPDEST SWAP3 POP PUSH1 0x4 SLOAD DUP4 GT ISZERO PUSH2 0x1238 JUMPI PUSH1 0x4 SLOAD SWAP3 POP JUMPDEST PUSH1 0x0 NOT DUP5 LT ISZERO PUSH2 0x127A JUMPI PUSH2 0x1252 DUP5 DUP7 PUSH4 0xFFFFFFFF PUSH2 0x15D6 AND JUMP JUMPDEST PUSH1 0x1 PUSH1 0xA0 PUSH1 0x2 EXP SUB DUP1 DUP10 AND PUSH1 0x0 SWAP1 DUP2 MSTORE PUSH1 0x5 PUSH1 0x20 SWAP1 DUP2 MSTORE PUSH1 0x40 DUP1 DUP4 KECCAK256 CALLER SWAP1 SWAP5 AND DUP4 MSTORE SWAP3 SWAP1 MSTORE KECCAK256 SSTORE JUMPDEST PUSH2 0x128A DUP6 DUP5 PUSH4 0xFFFFFFFF PUSH2 0x15D6 AND JUMP JUMPDEST PUSH1 0x1 PUSH1 0xA0 PUSH1 0x2 EXP SUB DUP9 AND PUSH1 0x0 SWAP1 DUP2 MSTORE PUSH1 0x2 PUSH1 0x20 MSTORE PUSH1 0x40 SWAP1 KECCAK256 SLOAD SWAP1 SWAP3 POP PUSH2 0x12B6 SWAP1 DUP7 PUSH4 0xFFFFFFFF PUSH2 0x15D6 AND JUMP JUMPDEST PUSH1 0x1 PUSH1 0xA0 PUSH1 0x2 EXP SUB DUP1 DUP10 AND PUSH1 0x0 SWAP1 DUP2 MSTORE PUSH1 0x2 PUSH1 0x20 MSTORE PUSH1 0x40 DUP1 DUP3 KECCAK256 SWAP4 SWAP1 SWAP4 SSTORE SWAP1 DUP9 AND DUP2 MSTORE KECCAK256 SLOAD PUSH2 0x12EB SWAP1 DUP4 PUSH4 0xFFFFFFFF PUSH2 0x15E8 AND JUMP JUMPDEST PUSH1 0x1 PUSH1 0xA0 PUSH1 0x2 EXP SUB DUP8 AND PUSH1 0x0 SWAP1 DUP2 MSTORE PUSH1 0x2 PUSH1 0x20 MSTORE PUSH1 0x40 DUP2 KECCAK256 SWAP2 SWAP1 SWAP2 SSTORE DUP4 GT ISZERO PUSH2 0x1381 JUMPI PUSH1 0x0 DUP1 SLOAD PUSH1 0x1 PUSH1 0xA0 PUSH1 0x2 EXP SUB AND DUP2 MSTORE PUSH1 0x2 PUSH1 0x20 MSTORE PUSH1 0x40 SWAP1 KECCAK256 SLOAD PUSH2 0x1337 SWAP1 DUP5 PUSH4 0xFFFFFFFF PUSH2 0x15E8 AND JUMP JUMPDEST PUSH1 0x0 DUP1 SLOAD PUSH1 0x1 PUSH1 0xA0 PUSH1 0x2 EXP SUB SWAP1 DUP2 AND DUP3 MSTORE PUSH1 0x2 PUSH1 0x20 MSTORE PUSH1 0x40 DUP1 DUP4 KECCAK256 SWAP4 SWAP1 SWAP4 SSTORE SWAP1 SLOAD DUP2 AND SWAP2 SWAP1 DUP10 AND SWAP1 PUSH1 0x0 DUP1 MLOAD PUSH1 0x20 PUSH2 0x15F8 DUP4 CODECOPY DUP2 MLOAD SWAP2 MSTORE SWAP1 DUP7 SWAP1 MLOAD SWAP1 DUP2 MSTORE PUSH1 0x20 ADD PUSH1 0x40 MLOAD DUP1 SWAP2 SUB SWAP1 LOG3 JUMPDEST DUP6 PUSH1 0x1 PUSH1 0xA0 PUSH1 0x2 EXP SUB AND DUP8 PUSH1 0x1 PUSH1 0xA0 PUSH1 0x2 EXP SUB AND PUSH1 0x0 DUP1 MLOAD PUSH1 0x20 PUSH2 0x15F8 DUP4 CODECOPY DUP2 MLOAD SWAP2 MSTORE DUP5 PUSH1 0x40 MLOAD SWAP1 DUP2 MSTORE PUSH1 0x20 ADD PUSH1 0x40 MLOAD DUP1 SWAP2 SUB SWAP1 LOG3 POP POP POP POP POP POP POP JUMP JUMPDEST PUSH1 0x1 PUSH1 0xA0 PUSH1 0x2 EXP SUB AND PUSH1 0x0 SWAP1 DUP2 MSTORE PUSH1 0x2 PUSH1 0x20 MSTORE PUSH1 0x40 SWAP1 KECCAK256 SLOAD SWAP1 JUMP JUMPDEST PUSH1 0x0 DUP1 PUSH1 0x40 PUSH1 0x44 CALLDATASIZE LT ISZERO PUSH2 0x13ED JUMPI PUSH1 0x0 DUP1 REVERT JUMPDEST PUSH2 0x1408 PUSH2 0x2710 PUSH2 0x121A PUSH1 0x3 SLOAD DUP8 PUSH2 0x155E SWAP1 SWAP2 SWAP1 PUSH4 0xFFFFFFFF AND JUMP JUMPDEST SWAP3 POP PUSH1 0x4 SLOAD DUP4 GT ISZERO PUSH2 0x141A JUMPI PUSH1 0x4 SLOAD SWAP3 POP JUMPDEST PUSH2 0x142A DUP5 DUP5 PUSH4 0xFFFFFFFF PUSH2 0x15D6 AND JUMP JUMPDEST PUSH1 0x1 PUSH1 0xA0 PUSH1 0x2 EXP SUB CALLER AND PUSH1 0x0 SWAP1 DUP2 MSTORE PUSH1 0x2 PUSH1 0x20 MSTORE PUSH1 0x40 SWAP1 KECCAK256 SLOAD SWAP1 SWAP3 POP PUSH2 0x1456 SWAP1 DUP6 PUSH4 0xFFFFFFFF PUSH2 0x15D6 AND JUMP JUMPDEST PUSH1 0x1 PUSH1 0xA0 PUSH1 0x2 EXP SUB CALLER DUP2 AND PUSH1 0x0 SWAP1 DUP2 MSTORE PUSH1 0x2 PUSH1 0x20 MSTORE PUSH1 0x40 DUP1 DUP3 KECCAK256 SWAP4 SWAP1 SWAP4 SSTORE SWAP1 DUP8 AND DUP2 MSTORE KECCAK256 SLOAD PUSH2 0x148B SWAP1 DUP4 PUSH4 0xFFFFFFFF PUSH2 0x15E8 AND JUMP JUMPDEST PUSH1 0x1 PUSH1 0xA0 PUSH1 0x2 EXP SUB DUP7 AND PUSH1 0x0 SWAP1 DUP2 MSTORE PUSH1 0x2 PUSH1 0x20 MSTORE PUSH1 0x40 DUP2 KECCAK256 SWAP2 SWAP1 SWAP2 SSTORE DUP4 GT ISZERO PUSH2 0x1522 JUMPI PUSH1 0x0 DUP1 SLOAD PUSH1 0x1 PUSH1 0xA0 PUSH1 0x2 EXP SUB AND DUP2 MSTORE PUSH1 0x2 PUSH1 0x20 MSTORE PUSH1 0x40 SWAP1 KECCAK256 SLOAD PUSH2 0x14D7 SWAP1 DUP5 PUSH4 0xFFFFFFFF PUSH2 0x15E8 AND JUMP JUMPDEST PUSH1 0x0 DUP1 SLOAD PUSH1 0x1 PUSH1 0xA0 PUSH1 0x2 EXP SUB SWAP1 DUP2 AND DUP3 MSTORE PUSH1 0x2 PUSH1 0x20 MSTORE PUSH1 0x40 DUP1 DUP4 KECCAK256 SWAP4 SWAP1 SWAP4 SSTORE SWAP1 SLOAD DUP2 AND SWAP2 CALLER SWAP1 SWAP2 AND SWAP1 PUSH1 0x0 DUP1 MLOAD PUSH1 0x20 PUSH2 0x15F8 DUP4 CODECOPY DUP2 MLOAD SWAP2 MSTORE SWAP1 DUP7 SWAP1 MLOAD SWAP1 DUP2 MSTORE PUSH1 0x20 ADD PUSH1 0x40 MLOAD DUP1 SWAP2 SUB SWAP1 LOG3 JUMPDEST DUP5 PUSH1 0x1 PUSH1 0xA0 PUSH1 0x2 EXP SUB AND CALLER PUSH1 0x1 PUSH1 0xA0 PUSH1 0x2 EXP SUB AND PUSH1 0x0 DUP1 MLOAD PUSH1 0x20 PUSH2 0x15F8 DUP4 CODECOPY DUP2 MLOAD SWAP2 MSTORE DUP5 PUSH1 0x40 MLOAD SWAP1 DUP2 MSTORE PUSH1 0x20 ADD PUSH1 0x40 MLOAD DUP1 SWAP2 SUB SWAP1 LOG3 POP POP POP POP POP JUMP JUMPDEST PUSH1 0x0 DUP1 DUP4 ISZERO ISZERO PUSH2 0x1571 JUMPI PUSH1 0x0 SWAP2 POP PUSH2 0x158D JUMP JUMPDEST POP DUP3 DUP3 MUL DUP3 DUP5 DUP3 DUP2 ISZERO ISZERO PUSH2 0x1581 JUMPI INVALID JUMPDEST DIV EQ PUSH2 0x1589 JUMPI INVALID JUMPDEST DUP1 SWAP2 POP JUMPDEST POP SWAP3 SWAP2 POP POP JUMP JUMPDEST PUSH1 0x1 PUSH1 0xA0 PUSH1 0x2 EXP SUB SWAP2 DUP3 AND PUSH1 0x0 SWAP1 DUP2 MSTORE PUSH1 0x5 PUSH1 0x20 SWAP1 DUP2 MSTORE PUSH1 0x40 DUP1 DUP4 KECCAK256 SWAP4 SWAP1 SWAP5 AND DUP3 MSTORE SWAP2 SWAP1 SWAP2 MSTORE KECCAK256 SLOAD SWAP1 JUMP JUMPDEST PUSH1 0x0 DUP1 DUP3 DUP5 DUP2 ISZERO ISZERO PUSH2 0x15CD JUMPI INVALID JUMPDEST DIV SWAP5 SWAP4 POP POP POP POP JUMP JUMPDEST PUSH1 0x0 DUP3 DUP3 GT ISZERO PUSH2 0x15E2 JUMPI INVALID JUMPDEST POP SWAP1 SUB SWAP1 JUMP JUMPDEST PUSH1 0x0 DUP3 DUP3 ADD DUP4 DUP2 LT ISZERO PUSH2 0x1589 JUMPI INVALID STOP 0xdd CALLCODE MSTORE 0xad 0x1b 0xe2 0xc8 SWAP12 PUSH10 0xC2B068FC378DAA952BA7 CALL PUSH4 0xC4A11628 0xf5 GAS 0x4d 0xf5 0x23 0xb3 0xef LOG1 PUSH6 0x627A7A723058 KECCAK256 0x28 0xb1 0xe8 BLOCKHASH 0xe 0xbf 0xd8 0xd8 0xa7 0xbe 0xd6 0xb0 0xc0 0xe4 0x46 DUP6 DUP8 SWAP12 0xee PUSH14 0x467AF2F48B6A204974D354680029 "
    },
    "gasEstimates": {
      "creation": {
        "codeDepositCost": "1139800",
        "executionCost": "infinite",
        "totalCost": "infinite"
      },
      "external": {
        "MAX_UINT()": "877",
        "_totalSupply()": "678",
        "addBlackList(address)": "22177",
        "allowance(address,address)": "infinite",
        "allowed(address,address)": "978",
        "approve(address,uint256)": "infinite",
        "balanceOf(address)": "infinite",
        "balances(address)": "759",
        "basisPointsRate()": "1008",
        "decimals()": "634",
        "deprecate(address)": "22117",
        "deprecated()": "588",
        "destroyBlackFunds(address)": "infinite",
        "getBlackListStatus(address)": "965",
        "getOwner()": "985",
        "isBlackListed(address)": "1189",
        "issue(uint256)": "43644",
        "maximumFee()": "656",
        "name()": "infinite",
        "owner()": "1007",
        "pause()": "22235",
        "paused()": "852",
        "redeem(uint256)": "43672",
        "removeBlackList(address)": "22699",
        "setParams(uint256,uint256)": "infinite",
        "symbol()": "infinite",
        "totalSupply()": "infinite",
        "transfer(address,uint256)": "infinite",
        "transferFrom(address,address,uint256)": "infinite",
        "transferOwnership(address)": "21634",
        "unpause()": "22059",
        "upgradedAddress()": "743"
      }
    },
    "methodIdentifiers": {
      "MAX_UINT()": "e5b5019a",
      "_totalSupply()": "3eaaf86b",
      "addBlackList(address)": "0ecb93c0",
      "allowance(address,address)": "dd62ed3e",
      "allowed(address,address)": "5c658165",
      "approve(address,uint256)": "095ea7b3",
      "balanceOf(address)": "70a08231",
      "balances(address)": "27e235e3",
      "basisPointsRate()": "dd644f72",
      "decimals()": "313ce567",
      "deprecate(address)": "0753c30c",
      "deprecated()": "0e136b19",
      "destroyBlackFunds(address)": "f3bdc228",
      "getBlackListStatus(address)": "59bf1abe",
      "getOwner()": "893d20e8",
      "isBlackListed(address)": "e47d6060",
      "issue(uint256)": "cc872b66",
      "maximumFee()": "35390714",
      "name()": "06fdde03",
      "owner()": "8da5cb5b",
      "pause()": "8456cb59",
      "paused()": "5c975abb",
      "redeem(uint256)": "db006a75",
      "removeBlackList(address)": "e4997dc5",
      "setParams(uint256,uint256)": "c0324c77",
      "symbol()": "95d89b41",
      "totalSupply()": "18160ddd",
      "transfer(address,uint256)": "a9059cbb",
      "transferFrom(address,address,uint256)": "23b872dd",
      "transferOwnership(address)": "f2fde38b",
      "unpause()": "3f4ba83a",
      "upgradedAddress()": "26976e3f"
    }
  },
  "userdoc": {
    "methods": {
      "getBlackListStatus(address)": {
        "notice": "//// Getters to allow the same blacklist to be used also by other contracts (including upgraded Tether) ///////"
      }
    }
  }
}